{
  "_format": "hh3-artifact-1",
  "contractName": "FRToken",
  "sourceName": "contracts/FRToken.sol",
  "abi": [
    {
      "inputs": [],
      "stateMutability": "nonpayable",
      "type": "constructor"
    },
    {
      "anonymous": false,
      "inputs": [
        {
          "indexed": true,
          "internalType": "address",
          "name": "owner",
          "type": "address"
        },
        {
          "indexed": true,
          "internalType": "address",
          "name": "spender",
          "type": "address"
        },
        {
          "indexed": false,
          "internalType": "uint256",
          "name": "value",
          "type": "uint256"
        }
      ],
      "name": "Approval",
      "type": "event"
    },
    {
      "anonymous": false,
      "inputs": [
        {
          "indexed": true,
          "internalType": "address",
          "name": "from",
          "type": "address"
        },
        {
          "indexed": true,
          "internalType": "address",
          "name": "to",
          "type": "address"
        },
        {
          "indexed": false,
          "internalType": "uint256",
          "name": "value",
          "type": "uint256"
        }
      ],
      "name": "Transfer",
      "type": "event"
    },
    {
      "inputs": [
        {
          "internalType": "address",
          "name": "owner_",
          "type": "address"
        },
        {
          "internalType": "address",
          "name": "spender",
          "type": "address"
        }
      ],
      "name": "allowance",
      "outputs": [
        {
          "internalType": "uint256",
          "name": "",
          "type": "uint256"
        }
      ],
      "stateMutability": "view",
      "type": "function"
    },
    {
      "inputs": [
        {
          "internalType": "address",
          "name": "spender",
          "type": "address"
        },
        {
          "internalType": "uint256",
          "name": "amount",
          "type": "uint256"
        }
      ],
      "name": "approve",
      "outputs": [
        {
          "internalType": "bool",
          "name": "",
          "type": "bool"
        }
      ],
      "stateMutability": "nonpayable",
      "type": "function"
    },
    {
      "inputs": [
        {
          "internalType": "address",
          "name": "account",
          "type": "address"
        }
      ],
      "name": "balanceOf",
      "outputs": [
        {
          "internalType": "uint256",
          "name": "",
          "type": "uint256"
        }
      ],
      "stateMutability": "view",
      "type": "function"
    },
    {
      "inputs": [
        {
          "internalType": "address",
          "name": "from",
          "type": "address"
        },
        {
          "internalType": "uint256",
          "name": "amount",
          "type": "uint256"
        }
      ],
      "name": "burn",
      "outputs": [],
      "stateMutability": "nonpayable",
      "type": "function"
    },
    {
      "inputs": [],
      "name": "decimals",
      "outputs": [
        {
          "internalType": "uint8",
          "name": "",
          "type": "uint8"
        }
      ],
      "stateMutability": "view",
      "type": "function"
    },
    {
      "inputs": [],
      "name": "lendingPool",
      "outputs": [
        {
          "internalType": "address",
          "name": "",
          "type": "address"
        }
      ],
      "stateMutability": "view",
      "type": "function"
    },
    {
      "inputs": [
        {
          "internalType": "address",
          "name": "to",
          "type": "address"
        },
        {
          "internalType": "uint256",
          "name": "amount",
          "type": "uint256"
        }
      ],
      "name": "mint",
      "outputs": [],
      "stateMutability": "nonpayable",
      "type": "function"
    },
    {
      "inputs": [],
      "name": "name",
      "outputs": [
        {
          "internalType": "string",
          "name": "",
          "type": "string"
        }
      ],
      "stateMutability": "view",
      "type": "function"
    },
    {
      "inputs": [],
      "name": "owner",
      "outputs": [
        {
          "internalType": "address",
          "name": "",
          "type": "address"
        }
      ],
      "stateMutability": "view",
      "type": "function"
    },
    {
      "inputs": [
        {
          "internalType": "address",
          "name": "pool",
          "type": "address"
        }
      ],
      "name": "setLendingPool",
      "outputs": [],
      "stateMutability": "nonpayable",
      "type": "function"
    },
    {
      "inputs": [],
      "name": "symbol",
      "outputs": [
        {
          "internalType": "string",
          "name": "",
          "type": "string"
        }
      ],
      "stateMutability": "view",
      "type": "function"
    },
    {
      "inputs": [],
      "name": "totalSupply",
      "outputs": [
        {
          "internalType": "uint256",
          "name": "",
          "type": "uint256"
        }
      ],
      "stateMutability": "view",
      "type": "function"
    },
    {
      "inputs": [
        {
          "internalType": "address",
          "name": "to",
          "type": "address"
        },
        {
          "internalType": "uint256",
          "name": "amount",
          "type": "uint256"
        }
      ],
      "name": "transfer",
      "outputs": [
        {
          "internalType": "bool",
          "name": "",
          "type": "bool"
        }
      ],
      "stateMutability": "nonpayable",
      "type": "function"
    },
    {
      "inputs": [
        {
          "internalType": "address",
          "name": "from",
          "type": "address"
        },
        {
          "internalType": "address",
          "name": "to",
          "type": "address"
        },
        {
          "internalType": "uint256",
          "name": "amount",
          "type": "uint256"
        }
      ],
      "name": "transferFrom",
      "outputs": [
        {
          "internalType": "bool",
          "name": "",
          "type": "bool"
        }
      ],
      "stateMutability": "nonpayable",
      "type": "function"
    }
  ],
  "bytecode": "0x60c0604052600760809081526623292a37b5b2b760c91b60a0525f906100259082610115565b50604080518082019091526002815261232960f11b602082015260019061004c9082610115565b506002805460ff19166012179055348015610065575f5ffd5b50600680546001600160a01b031916331790556101cf565b634e487b7160e01b5f52604160045260245ffd5b600181811c908216806100a557607f821691505b6020821081036100c357634e487b7160e01b5f52602260045260245ffd5b50919050565b601f82111561011057805f5260205f20601f840160051c810160208510156100ee5750805b601f840160051c820191505b8181101561010d575f81556001016100fa565b50505b505050565b81516001600160401b0381111561012e5761012e61007d565b6101428161013c8454610091565b846100c9565b6020601f821160018114610174575f831561015d5750848201515b5f19600385901b1c1916600184901b17845561010d565b5f84815260208120601f198516915b828110156101a35787850151825560209485019460019092019101610183565b50848210156101c057868401515f19600387901b60f8161c191681555b50505050600190811b01905550565b61095a806101dc5f395ff3fe608060405234801561000f575f5ffd5b50600436106100e5575f3560e01c806370a08231116100885780639dc29fac116100635780639dc29fac146101f6578063a59a997314610209578063a9059cbb1461021c578063dd62ed3e1461022f575f5ffd5b806370a082311461019b5780638da5cb5b146101c357806395d89b41146101ee575f5ffd5b806318160ddd116100c357806318160ddd1461013f57806323b872dd14610156578063313ce5671461016957806340c10f1914610188575f5ffd5b806306fdde03146100e9578063095ea7b314610107578063113aa8b11461012a575b5f5ffd5b6100f1610267565b6040516100fe91906107af565b60405180910390f35b61011a6101153660046107ff565b6102f2565b60405190151581526020016100fe565b61013d610138366004610827565b61035e565b005b61014860035481565b6040519081526020016100fe565b61011a610164366004610847565b6103cb565b6002546101769060ff1681565b60405160ff90911681526020016100fe565b61013d6101963660046107ff565b61046d565b6101486101a9366004610827565b6001600160a01b03165f9081526004602052604090205490565b6006546101d6906001600160a01b031681565b6040516001600160a01b0390911681526020016100fe565b6100f1610542565b61013d6102043660046107ff565b61054f565b6007546101d6906001600160a01b031681565b61011a61022a3660046107ff565b61066f565b61014861023d366004610881565b6001600160a01b039182165f90815260056020908152604080832093909416825291909152205490565b5f8054610273906108b2565b80601f016020809104026020016040519081016040528092919081815260200182805461029f906108b2565b80156102ea5780601f106102c1576101008083540402835291602001916102ea565b820191905f5260205f20905b8154815290600101906020018083116102cd57829003601f168201915b505050505081565b335f8181526005602090815260408083206001600160a01b038716808552925280832085905551919290917f8c5be1e5ebec7d5bd14f71427d1e84f3dd0314c0f7b2291e5b200ac8c7c3b9259061034c9086815260200190565b60405180910390a35060015b92915050565b6006546001600160a01b031633146103a95760405162461bcd60e51b81526020600482015260096024820152682727aa2fa7aba722a960b91b60448201526064015b60405180910390fd5b600780546001600160a01b0319166001600160a01b0392909216919091179055565b6001600160a01b0383165f9081526005602090815260408083203384529091528120548281101561042a5760405162461bcd60e51b8152602060048201526009602482015268414c4c4f57414e434560b81b60448201526064016103a0565b61043483826108fe565b6001600160a01b0386165f908152600560209081526040808320338452909152902055610462858585610684565b506001949350505050565b6007546001600160a01b031633146104ba5760405162461bcd60e51b815260206004820152601060248201526f1393d517d3115391125391d7d413d3d360821b60448201526064016103a0565b6001600160a01b0382165f90815260046020526040812080548392906104e1908490610911565b925050819055508060035f8282546104f99190610911565b90915550506040518181526001600160a01b038316905f907fddf252ad1be2c89b69c2b068fc378daa952ba7f163c4a11628f55a4df523b3ef9060200160405180910390a35050565b60018054610273906108b2565b6007546001600160a01b0316331461059c5760405162461bcd60e51b815260206004820152601060248201526f1393d517d3115391125391d7d413d3d360821b60448201526064016103a0565b6001600160a01b0382165f90815260046020526040902054818110156105ee5760405162461bcd60e51b815260206004820152600760248201526642414c414e434560c81b60448201526064016103a0565b6105f882826108fe565b6001600160a01b0384165f90815260046020526040812091909155600380548492906106259084906108fe565b90915550506040518281525f906001600160a01b038516907fddf252ad1be2c89b69c2b068fc378daa952ba7f163c4a11628f55a4df523b3ef9060200160405180910390a3505050565b5f61067b338484610684565b50600192915050565b6001600160a01b0382166106c45760405162461bcd60e51b81526020600482015260076024820152665a45524f5f544f60c81b60448201526064016103a0565b6001600160a01b0383165f90815260046020526040902054818110156107165760405162461bcd60e51b815260206004820152600760248201526642414c414e434560c81b60448201526064016103a0565b61072082826108fe565b6001600160a01b038086165f908152600460205260408082209390935590851681529081208054849290610755908490610911565b92505081905550826001600160a01b0316846001600160a01b03167fddf252ad1be2c89b69c2b068fc378daa952ba7f163c4a11628f55a4df523b3ef846040516107a191815260200190565b60405180910390a350505050565b602081525f82518060208401528060208501604085015e5f604082850101526040601f19601f83011684010191505092915050565b80356001600160a01b03811681146107fa575f5ffd5b919050565b5f5f60408385031215610810575f5ffd5b610819836107e4565b946020939093013593505050565b5f60208284031215610837575f5ffd5b610840826107e4565b9392505050565b5f5f5f60608486031215610859575f5ffd5b610862846107e4565b9250610870602085016107e4565b929592945050506040919091013590565b5f5f60408385031215610892575f5ffd5b61089b836107e4565b91506108a9602084016107e4565b90509250929050565b600181811c908216806108c657607f821691505b6020821081036108e457634e487b7160e01b5f52602260045260245ffd5b50919050565b634e487b7160e01b5f52601160045260245ffd5b81810381811115610358576103586108ea565b80820180821115610358576103586108ea56fea2646970667358221220d84d847dc392596c65a7582cf6b7a177ac15907789e9ff0da6f407bfc5eabeb964736f6c634300081c0033",
  "linkReferences": {},
  "deployedLinkReferences": {},
  "immutableReferences": {},
  "inputSourceName": "project/contracts/FRToken.sol",
  "buildInfoId": "solc-0_8_28-5975ac55bd949c0aae47bf6367aa94078e0764c3"
}