{
  "_format": "hh3-artifact-1",
  "contractName": "MockUSDT",
  "sourceName": "contracts/MockUSDT.sol",
  "abi": [
    {
      "inputs": [],
      "stateMutability": "nonpayable",
      "type": "constructor"
    },
    {
      "anonymous": false,
      "inputs": [
        {
          "indexed": true,
          "internalType": "address",
          "name": "owner",
          "type": "address"
        },
        {
          "indexed": true,
          "internalType": "address",
          "name": "spender",
          "type": "address"
        },
        {
          "indexed": false,
          "internalType": "uint256",
          "name": "value",
          "type": "uint256"
        }
      ],
      "name": "Approval",
      "type": "event"
    },
    {
      "anonymous": false,
      "inputs": [
        {
          "indexed": true,
          "internalType": "address",
          "name": "from",
          "type": "address"
        },
        {
          "indexed": true,
          "internalType": "address",
          "name": "to",
          "type": "address"
        },
        {
          "indexed": false,
          "internalType": "uint256",
          "name": "value",
          "type": "uint256"
        }
      ],
      "name": "Transfer",
      "type": "event"
    },
    {
      "inputs": [
        {
          "internalType": "address",
          "name": "owner_",
          "type": "address"
        },
        {
          "internalType": "address",
          "name": "spender",
          "type": "address"
        }
      ],
      "name": "allowance",
      "outputs": [
        {
          "internalType": "uint256",
          "name": "",
          "type": "uint256"
        }
      ],
      "stateMutability": "view",
      "type": "function"
    },
    {
      "inputs": [
        {
          "internalType": "address",
          "name": "spender",
          "type": "address"
        },
        {
          "internalType": "uint256",
          "name": "amount",
          "type": "uint256"
        }
      ],
      "name": "approve",
      "outputs": [
        {
          "internalType": "bool",
          "name": "",
          "type": "bool"
        }
      ],
      "stateMutability": "nonpayable",
      "type": "function"
    },
    {
      "inputs": [
        {
          "internalType": "address",
          "name": "account",
          "type": "address"
        }
      ],
      "name": "balanceOf",
      "outputs": [
        {
          "internalType": "uint256",
          "name": "",
          "type": "uint256"
        }
      ],
      "stateMutability": "view",
      "type": "function"
    },
    {
      "inputs": [],
      "name": "decimals",
      "outputs": [
        {
          "internalType": "uint8",
          "name": "",
          "type": "uint8"
        }
      ],
      "stateMutability": "view",
      "type": "function"
    },
    {
      "inputs": [
        {
          "internalType": "address",
          "name": "to",
          "type": "address"
        },
        {
          "internalType": "uint256",
          "name": "amount",
          "type": "uint256"
        }
      ],
      "name": "demoMint",
      "outputs": [],
      "stateMutability": "nonpayable",
      "type": "function"
    },
    {
      "inputs": [],
      "name": "name",
      "outputs": [
        {
          "internalType": "string",
          "name": "",
          "type": "string"
        }
      ],
      "stateMutability": "view",
      "type": "function"
    },
    {
      "inputs": [],
      "name": "owner",
      "outputs": [
        {
          "internalType": "address",
          "name": "",
          "type": "address"
        }
      ],
      "stateMutability": "view",
      "type": "function"
    },
    {
      "inputs": [],
      "name": "symbol",
      "outputs": [
        {
          "internalType": "string",
          "name": "",
          "type": "string"
        }
      ],
      "stateMutability": "view",
      "type": "function"
    },
    {
      "inputs": [],
      "name": "totalSupply",
      "outputs": [
        {
          "internalType": "uint256",
          "name": "",
          "type": "uint256"
        }
      ],
      "stateMutability": "view",
      "type": "function"
    },
    {
      "inputs": [
        {
          "internalType": "address",
          "name": "to",
          "type": "address"
        },
        {
          "internalType": "uint256",
          "name": "amount",
          "type": "uint256"
        }
      ],
      "name": "transfer",
      "outputs": [
        {
          "internalType": "bool",
          "name": "",
          "type": "bool"
        }
      ],
      "stateMutability": "nonpayable",
      "type": "function"
    },
    {
      "inputs": [
        {
          "internalType": "address",
          "name": "from",
          "type": "address"
        },
        {
          "internalType": "address",
          "name": "to",
          "type": "address"
        },
        {
          "internalType": "uint256",
          "name": "amount",
          "type": "uint256"
        }
      ],
      "name": "transferFrom",
      "outputs": [
        {
          "internalType": "bool",
          "name": "",
          "type": "bool"
        }
      ],
      "stateMutability": "nonpayable",
      "type": "function"
    }
  ],
  "bytecode": "0x60c06040526008608090815267135bd8dad554d11560c21b60a0525f906100269082610118565b506040805180820190915260048152631554d11560e21b602082015260019061004f9082610118565b506002805460ff19166012179055348015610068575f5ffd5b50600480546001600160a01b031916331790556101d2565b634e487b7160e01b5f52604160045260245ffd5b600181811c908216806100a857607f821691505b6020821081036100c657634e487b7160e01b5f52602260045260245ffd5b50919050565b601f82111561011357805f5260205f20601f840160051c810160208510156100f15750805b601f840160051c820191505b81811015610110575f81556001016100fd565b50505b505050565b81516001600160401b0381111561013157610131610080565b6101458161013f8454610094565b846100cc565b6020601f821160018114610177575f83156101605750848201515b5f19600385901b1c1916600184901b178455610110565b5f84815260208120601f198516915b828110156101a65787850151825560209485019460019092019101610186565b50848210156101c357868401515f19600387901b60f8161c191681555b50505050600190811b01905550565b6107d0806101df5f395ff3fe608060405234801561000f575f5ffd5b50600436106100a6575f3560e01c806370a082311161006e57806370a08231146101345780638b12a2621461015c5780638da5cb5b1461017157806395d89b411461019c578063a9059cbb146101a4578063dd62ed3e146101b7575f5ffd5b806306fdde03146100aa578063095ea7b3146100c857806318160ddd146100eb57806323b872dd14610102578063313ce56714610115575b5f5ffd5b6100b26101ef565b6040516100bf9190610625565b60405180910390f35b6100db6100d6366004610675565b61027a565b60405190151581526020016100bf565b6100f460035481565b6040519081526020016100bf565b6100db61011036600461069d565b6102e6565b6002546101229060ff1681565b60405160ff90911681526020016100bf565b6100f46101423660046106d7565b6001600160a01b03165f9081526005602052604090205490565b61016f61016a366004610675565b61038d565b005b600454610184906001600160a01b031681565b6040516001600160a01b0390911681526020016100bf565b6100b26104d8565b6100db6101b2366004610675565b6104e5565b6100f46101c53660046106f7565b6001600160a01b039182165f90815260066020908152604080832093909416825291909152205490565b5f80546101fb90610728565b80601f016020809104026020016040519081016040528092919081815260200182805461022790610728565b80156102725780601f1061024957610100808354040283529160200191610272565b820191905f5260205f20905b81548152906001019060200180831161025557829003601f168201915b505050505081565b335f8181526006602090815260408083206001600160a01b038716808552925280832085905551919290917f8c5be1e5ebec7d5bd14f71427d1e84f3dd0314c0f7b2291e5b200ac8c7c3b925906102d49086815260200190565b60405180910390a35060015b92915050565b6001600160a01b0383165f9081526006602090815260408083203384529091528120548281101561034a5760405162461bcd60e51b8152602060048201526009602482015268414c4c4f57414e434560b81b60448201526064015b60405180910390fd5b6103548382610774565b6001600160a01b0386165f9081526006602090815260408083203384529091529020556103828585856104fa565b506001949350505050565b6004546001600160a01b031633146103d35760405162461bcd60e51b81526020600482015260096024820152682727aa2fa7aba722a960b91b6044820152606401610341565b6001600160a01b0382166104135760405162461bcd60e51b81526020600482015260076024820152665a45524f5f544f60c81b6044820152606401610341565b5f81116104505760405162461bcd60e51b815260206004820152600b60248201526a16915493d7d05353d5539560aa1b6044820152606401610341565b6001600160a01b0382165f9081526005602052604081208054839290610477908490610787565b925050819055508060035f82825461048f9190610787565b90915550506040518181526001600160a01b038316905f907fddf252ad1be2c89b69c2b068fc378daa952ba7f163c4a11628f55a4df523b3ef9060200160405180910390a35050565b600180546101fb90610728565b5f6104f13384846104fa565b50600192915050565b6001600160a01b03821661053a5760405162461bcd60e51b81526020600482015260076024820152665a45524f5f544f60c81b6044820152606401610341565b6001600160a01b0383165f908152600560205260409020548181101561058c5760405162461bcd60e51b815260206004820152600760248201526642414c414e434560c81b6044820152606401610341565b6105968282610774565b6001600160a01b038086165f9081526005602052604080822093909355908516815290812080548492906105cb908490610787565b92505081905550826001600160a01b0316846001600160a01b03167fddf252ad1be2c89b69c2b068fc378daa952ba7f163c4a11628f55a4df523b3ef8460405161061791815260200190565b60405180910390a350505050565b602081525f82518060208401528060208501604085015e5f604082850101526040601f19601f83011684010191505092915050565b80356001600160a01b0381168114610670575f5ffd5b919050565b5f5f60408385031215610686575f5ffd5b61068f8361065a565b946020939093013593505050565b5f5f5f606084860312156106af575f5ffd5b6106b88461065a565b92506106c66020850161065a565b929592945050506040919091013590565b5f602082840312156106e7575f5ffd5b6106f08261065a565b9392505050565b5f5f60408385031215610708575f5ffd5b6107118361065a565b915061071f6020840161065a565b90509250929050565b600181811c9082168061073c57607f821691505b60208210810361075a57634e487b7160e01b5f52602260045260245ffd5b50919050565b634e487b7160e01b5f52601160045260245ffd5b818103818111156102e0576102e0610760565b808201808211156102e0576102e061076056fea264697066735822122004431fdb0839543e009c2ad8cc03685d91eb9924794087583dac86cc96d4f3d064736f6c634300081c0033",
  "linkReferences": {},
  "deployedLinkReferences": {},
  "immutableReferences": {},
  "inputSourceName": "project/contracts/MockUSDT.sol",
  "buildInfoId": "solc-0_8_28-5975ac55bd949c0aae47bf6367aa94078e0764c3"
}