{
  "_format": "hh3-artifact-1",
  "contractName": "MockUSDT",
  "sourceName": "contracts/MockUSDT.sol",
  "abi": [
    {
      "anonymous": false,
      "inputs": [
        {
          "indexed": true,
          "internalType": "address",
          "name": "owner",
          "type": "address"
        },
        {
          "indexed": true,
          "internalType": "address",
          "name": "spender",
          "type": "address"
        },
        {
          "indexed": false,
          "internalType": "uint256",
          "name": "value",
          "type": "uint256"
        }
      ],
      "name": "Approval",
      "type": "event"
    },
    {
      "anonymous": false,
      "inputs": [
        {
          "indexed": true,
          "internalType": "address",
          "name": "from",
          "type": "address"
        },
        {
          "indexed": true,
          "internalType": "address",
          "name": "to",
          "type": "address"
        },
        {
          "indexed": false,
          "internalType": "uint256",
          "name": "value",
          "type": "uint256"
        }
      ],
      "name": "Transfer",
      "type": "event"
    },
    {
      "inputs": [
        {
          "internalType": "address",
          "name": "owner",
          "type": "address"
        },
        {
          "internalType": "address",
          "name": "spender",
          "type": "address"
        }
      ],
      "name": "allowance",
      "outputs": [
        {
          "internalType": "uint256",
          "name": "",
          "type": "uint256"
        }
      ],
      "stateMutability": "view",
      "type": "function"
    },
    {
      "inputs": [
        {
          "internalType": "address",
          "name": "spender",
          "type": "address"
        },
        {
          "internalType": "uint256",
          "name": "amount",
          "type": "uint256"
        }
      ],
      "name": "approve",
      "outputs": [
        {
          "internalType": "bool",
          "name": "",
          "type": "bool"
        }
      ],
      "stateMutability": "nonpayable",
      "type": "function"
    },
    {
      "inputs": [
        {
          "internalType": "address",
          "name": "account",
          "type": "address"
        }
      ],
      "name": "balanceOf",
      "outputs": [
        {
          "internalType": "uint256",
          "name": "",
          "type": "uint256"
        }
      ],
      "stateMutability": "view",
      "type": "function"
    },
    {
      "inputs": [],
      "name": "decimals",
      "outputs": [
        {
          "internalType": "uint8",
          "name": "",
          "type": "uint8"
        }
      ],
      "stateMutability": "view",
      "type": "function"
    },
    {
      "inputs": [
        {
          "internalType": "address",
          "name": "to",
          "type": "address"
        },
        {
          "internalType": "uint256",
          "name": "amount",
          "type": "uint256"
        }
      ],
      "name": "demoMint",
      "outputs": [],
      "stateMutability": "nonpayable",
      "type": "function"
    },
    {
      "inputs": [],
      "name": "name",
      "outputs": [
        {
          "internalType": "string",
          "name": "",
          "type": "string"
        }
      ],
      "stateMutability": "view",
      "type": "function"
    },
    {
      "inputs": [],
      "name": "symbol",
      "outputs": [
        {
          "internalType": "string",
          "name": "",
          "type": "string"
        }
      ],
      "stateMutability": "view",
      "type": "function"
    },
    {
      "inputs": [],
      "name": "totalSupply",
      "outputs": [
        {
          "internalType": "uint256",
          "name": "",
          "type": "uint256"
        }
      ],
      "stateMutability": "view",
      "type": "function"
    },
    {
      "inputs": [
        {
          "internalType": "address",
          "name": "to",
          "type": "address"
        },
        {
          "internalType": "uint256",
          "name": "amount",
          "type": "uint256"
        }
      ],
      "name": "transfer",
      "outputs": [
        {
          "internalType": "bool",
          "name": "",
          "type": "bool"
        }
      ],
      "stateMutability": "nonpayable",
      "type": "function"
    },
    {
      "inputs": [
        {
          "internalType": "address",
          "name": "from",
          "type": "address"
        },
        {
          "internalType": "address",
          "name": "to",
          "type": "address"
        },
        {
          "internalType": "uint256",
          "name": "amount",
          "type": "uint256"
        }
      ],
      "name": "transferFrom",
      "outputs": [
        {
          "internalType": "bool",
          "name": "",
          "type": "bool"
        }
      ],
      "stateMutability": "nonpayable",
      "type": "function"
    }
  ],
  "bytecode": "0x60c06040526008608090815267135bd8dad554d11560c21b60a0525f906100269082610106565b506040805180820190915260048152631554d11560e21b602082015260019061004f9082610106565b506002805460ff19166012179055348015610068575f5ffd5b506101c0565b634e487b7160e01b5f52604160045260245ffd5b600181811c9082168061009657607f821691505b6020821081036100b457634e487b7160e01b5f52602260045260245ffd5b50919050565b601f82111561010157805f5260205f20601f840160051c810160208510156100df5750805b601f840160051c820191505b818110156100fe575f81556001016100eb565b50505b505050565b81516001600160401b0381111561011f5761011f61006e565b6101338161012d8454610082565b846100ba565b6020601f821160018114610165575f831561014e5750848201515b5f19600385901b1c1916600184901b1784556100fe565b5f84815260208120601f198516915b828110156101945787850151825560209485019460019092019101610174565b50848210156101b157868401515f19600387901b60f8161c191681555b50505050600190811b01905550565b610697806101cd5f395ff3fe608060405234801561000f575f5ffd5b506004361061009b575f3560e01c806370a082311161006357806370a08231146101295780638b12a2621461015157806395d89b4114610166578063a9059cbb1461016e578063dd62ed3e14610181575f5ffd5b806306fdde031461009f578063095ea7b3146100bd57806318160ddd146100e057806323b872dd146100f7578063313ce5671461010a575b5f5ffd5b6100a76101b9565b6040516100b491906104ec565b60405180910390f35b6100d06100cb36600461053c565b610244565b60405190151581526020016100b4565b6100e960035481565b6040519081526020016100b4565b6100d0610105366004610564565b6102b0565b6002546101179060ff1681565b60405160ff90911681526020016100b4565b6100e961013736600461059e565b6001600160a01b03165f9081526004602052604090205490565b61016461015f36600461053c565b610357565b005b6100a761039f565b6100d061017c36600461053c565b6103ac565b6100e961018f3660046105be565b6001600160a01b039182165f90815260056020908152604080832093909416825291909152205490565b5f80546101c5906105ef565b80601f01602080910402602001604051908101604052809291908181526020018280546101f1906105ef565b801561023c5780601f106102135761010080835404028352916020019161023c565b820191905f5260205f20905b81548152906001019060200180831161021f57829003601f168201915b505050505081565b335f8181526005602090815260408083206001600160a01b038716808552925280832085905551919290917f8c5be1e5ebec7d5bd14f71427d1e84f3dd0314c0f7b2291e5b200ac8c7c3b9259061029e9086815260200190565b60405180910390a35060015b92915050565b6001600160a01b0383165f908152600560209081526040808320338452909152812054828110156103145760405162461bcd60e51b8152602060048201526009602482015268414c4c4f57414e434560b81b60448201526064015b60405180910390fd5b61031e838261063b565b6001600160a01b0386165f90815260056020908152604080832033845290915290205561034c8585856103c1565b506001949350505050565b60405162461bcd60e51b815260206004820152601960248201527f44454d4f5f4d494e545f4e4f545f494d504c454d454e54454400000000000000604482015260640161030b565b600180546101c5906105ef565b5f6103b83384846103c1565b50600192915050565b6001600160a01b0382166104015760405162461bcd60e51b81526020600482015260076024820152665a45524f5f544f60c81b604482015260640161030b565b6001600160a01b0383165f90815260046020526040902054818110156104535760405162461bcd60e51b815260206004820152600760248201526642414c414e434560c81b604482015260640161030b565b61045d828261063b565b6001600160a01b038086165f90815260046020526040808220939093559085168152908120805484929061049290849061064e565b92505081905550826001600160a01b0316846001600160a01b03167fddf252ad1be2c89b69c2b068fc378daa952ba7f163c4a11628f55a4df523b3ef846040516104de91815260200190565b60405180910390a350505050565b602081525f82518060208401528060208501604085015e5f604082850101526040601f19601f83011684010191505092915050565b80356001600160a01b0381168114610537575f5ffd5b919050565b5f5f6040838503121561054d575f5ffd5b61055683610521565b946020939093013593505050565b5f5f5f60608486031215610576575f5ffd5b61057f84610521565b925061058d60208501610521565b929592945050506040919091013590565b5f602082840312156105ae575f5ffd5b6105b782610521565b9392505050565b5f5f604083850312156105cf575f5ffd5b6105d883610521565b91506105e660208401610521565b90509250929050565b600181811c9082168061060357607f821691505b60208210810361062157634e487b7160e01b5f52602260045260245ffd5b50919050565b634e487b7160e01b5f52601160045260245ffd5b818103818111156102aa576102aa610627565b808201808211156102aa576102aa61062756fea264697066735822122080882347cbb592d2522d77a3bb926104c6a9653d423eac2ea47979893adcaceb64736f6c634300081c0033",
  "linkReferences": {},
  "deployedLinkReferences": {},
  "immutableReferences": {},
  "inputSourceName": "project/contracts/MockUSDT.sol",
  "buildInfoId": "solc-0_8_28-bbf654e65f13c8c9e2db75148cc30ca14038f8cb"
}