{"project/contracts/LendingPool.sol":{"LendingPool":{"abi":[{"inputs":[{"internalType":"address","name":"usdt_","type":"address"},{"internalType":"address","name":"oracle_","type":"address"},{"internalType":"address","name":"frToken_","type":"address"}],"stateMutability":"nonpayable","type":"constructor"},{"inputs":[{"internalType":"uint256","name":"borrowAmount","type":"uint256"}],"name":"borrow","outputs":[],"stateMutability":"nonpayable","type":"function"},{"inputs":[{"internalType":"address","name":"","type":"address"}],"name":"collateralETH","outputs":[{"internalType":"uint256","name":"","type":"uint256"}],"stateMutability":"view","type":"function"},{"inputs":[{"internalType":"address","name":"","type":"address"}],"name":"debtUSDT","outputs":[{"internalType":"uint256","name":"","type":"uint256"}],"stateMutability":"view","type":"function"},{"inputs":[],"name":"depositCollateral","outputs":[],"stateMutability":"payable","type":"function"},{"inputs":[{"internalType":"uint256","name":"amount","type":"uint256"}],"name":"depositLiquidity","outputs":[],"stateMutability":"nonpayable","type":"function"},{"inputs":[],"name":"frToken","outputs":[{"internalType":"contract IFRTokenLike","name":"","type":"address"}],"stateMutability":"view","type":"function"},{"inputs":[],"name":"getAvailableLiquidity","outputs":[{"internalType":"uint256","name":"","type":"uint256"}],"stateMutability":"view","type":"function"},{"inputs":[],"name":"getBorrowAPY","outputs":[{"internalType":"uint256","name":"","type":"uint256"}],"stateMutability":"view","type":"function"},{"inputs":[{"internalType":"address","name":"borrower","type":"address"}],"name":"getCollateralValue","outputs":[{"internalType":"uint256","name":"","type":"uint256"}],"stateMutability":"view","type":"function"},{"inputs":[{"internalType":"address","name":"borrower","type":"address"}],"name":"getDebtValue","outputs":[{"internalType":"uint256","name":"","type":"uint256"}],"stateMutability":"view","type":"function"},{"inputs":[{"internalType":"address","name":"borrower","type":"address"}],"name":"getHealthFactor","outputs":[{"internalType":"uint256","name":"","type":"uint256"}],"stateMutability":"view","type":"function"},{"inputs":[{"internalType":"address","name":"borrower","type":"address"}],"name":"getMaxBorrow","outputs":[{"internalType":"uint256","name":"","type":"uint256"}],"stateMutability":"view","type":"function"},{"inputs":[],"name":"getPoolValue","outputs":[{"internalType":"uint256","name":"","type":"uint256"}],"stateMutability":"view","type":"function"},{"inputs":[],"name":"getSupplyAPY","outputs":[{"internalType":"uint256","name":"","type":"uint256"}],"stateMutability":"view","type":"function"},{"inputs":[],"name":"getTotalSupplied","outputs":[{"internalType":"uint256","name":"","type":"uint256"}],"stateMutability":"view","type":"function"},{"inputs":[],"name":"getUtilization","outputs":[{"internalType":"uint256","name":"","type":"uint256"}],"stateMutability":"view","type":"function"},{"inputs":[{"internalType":"address","name":"","type":"address"}],"name":"lastAccrualTimestamp","outputs":[{"internalType":"uint256","name":"","type":"uint256"}],"stateMutability":"view","type":"function"},{"inputs":[{"internalType":"address","name":"borrower","type":"address"},{"internalType":"uint256","name":"repayAmount","type":"uint256"}],"name":"liquidate","outputs":[],"stateMutability":"nonpayable","type":"function"},{"inputs":[],"name":"oracle","outputs":[{"internalType":"contract IPriceOracleLike","name":"","type":"address"}],"stateMutability":"view","type":"function"},{"inputs":[{"internalType":"uint256","name":"repayAmount","type":"uint256"}],"name":"repay","outputs":[],"stateMutability":"nonpayable","type":"function"},{"inputs":[],"name":"totalBorrowedUSDT","outputs":[{"internalType":"uint256","name":"","type":"uint256"}],"stateMutability":"view","type":"function"},{"inputs":[],"name":"totalReservesUSDT","outputs":[{"internalType":"uint256","name":"","type":"uint256"}],"stateMutability":"view","type":"function"},{"inputs":[],"name":"totalSuppliedUSDT","outputs":[{"internalType":"uint256","name":"","type":"uint256"}],"stateMutability":"view","type":"function"},{"inputs":[],"name":"usdt","outputs":[{"internalType":"contract IERC20Like","name":"","type":"address"}],"stateMutability":"view","type":"function"},{"inputs":[{"internalType":"uint256","name":"ethAmount","type":"uint256"}],"name":"withdrawCollateral","outputs":[],"stateMutability":"nonpayable","type":"function"},{"inputs":[{"internalType":"uint256","name":"frAmount","type":"uint256"}],"name":"withdrawLiquidity","outputs":[],"stateMutability":"nonpayable","type":"function"},{"stateMutability":"payable","type":"receive"}],"evm":{"bytecode":{"linkReferences":{},"object":"608060405234801561000f575f5ffd5b50604051611dd1380380611dd183398101604081905261002e9161015a565b6001600160a01b0383166100755760405162461bcd60e51b815260206004820152600960248201526816915493d7d554d11560ba1b60448201526064015b60405180910390fd5b6001600160a01b0382166100b95760405162461bcd60e51b815260206004820152600b60248201526a5a45524f5f4f5241434c4560a81b604482015260640161006c565b6001600160a01b0381166100fe5760405162461bcd60e51b815260206004820152600c60248201526b2d22a927afa3292a27a5a2a760a11b604482015260640161006c565b5f80546001600160a01b039485166001600160a01b03199182161790915560018054938516938216939093179092556002805491909316911617905561019a565b80516001600160a01b0381168114610155575f5ffd5b919050565b5f5f5f6060848603121561016c575f5ffd5b6101758461013f565b92506101836020850161013f565b91506101916040850161013f565b90509250925092565b611c2a806101a75f395ff3fe60806040526004361061017e575f3560e01c806397904e42116100cd578063bcbaf48711610087578063ebf5a90811610062578063ebf5a90814610416578063f0a7fad814610435578063fd1c317a1461044a578063fe6bcd7c14610469575f5ffd5b8063bcbaf487146103c4578063c5ebeaec146103e3578063d9de24d714610402575f5ffd5b806397904e421461031e57806399b491301461033d5780639b745aec146103685780639f560dd51461037c578063a5310e7d14610390578063bbe413f2146103af575f5ffd5b80636112fe2e116101385780636f758140116101135780636f758140146102c457806376d58e1a146102cc5780637dc0d1d0146102eb5780637eb711311461030a575f5ffd5b80636112fe2e1461026557806362ac48f3146102845780636ad3d82b14610299575f5ffd5b80630a861f2a1461018957806316851b36146101aa5780631ba2f531146101e85780632f48ab7d146101fc578063371fd8e614610232578063503d37ea14610251575f5ffd5b3661018557005b5f5ffd5b348015610194575f5ffd5b506101a86101a3366004611a92565b610488565b005b3480156101b5575f5ffd5b506101d56101c4366004611abf565b60056020525f908152604090205481565b6040519081526020015b60405180910390f35b3480156101f3575f5ffd5b506101d5610750565b348015610207575f5ffd5b505f5461021a906001600160a01b031681565b6040516001600160a01b0390911681526020016101df565b34801561023d575f5ffd5b506101a861024c366004611a92565b61075e565b34801561025c575f5ffd5b506101d56108d3565b348015610270575f5ffd5b506101a861027f366004611a92565b6108e4565b34801561028f575f5ffd5b506101d560075481565b3480156102a4575f5ffd5b506101d56102b3366004611abf565b60036020525f908152604090205481565b6101a8610a86565b3480156102d7575f5ffd5b506101a86102e6366004611a92565b610aec565b3480156102f6575f5ffd5b5060015461021a906001600160a01b031681565b348015610315575f5ffd5b506101d5610d03565b348015610329575f5ffd5b506101d5610338366004611abf565b610d0c565b348015610348575f5ffd5b506101d5610357366004611abf565b60046020525f908152604090205481565b348015610373575f5ffd5b506101d5610d1c565b348015610387575f5ffd5b506101d5610d86565b34801561039b575f5ffd5b5060025461021a906001600160a01b031681565b3480156103ba575f5ffd5b506101d560065481565b3480156103cf575f5ffd5b506101a86103de366004611ad8565b610ddd565b3480156103ee575f5ffd5b506101a86103fd366004611a92565b6111ac565b34801561040d575f5ffd5b506008546101d5565b348015610421575f5ffd5b506101d5610430366004611abf565b6114d0565b348015610440575f5ffd5b506101d560085481565b348015610455575f5ffd5b506101d5610464366004611abf565b6114da565b348015610474575f5ffd5b506101d5610483366004611abf565b6114e4565b5f81116104b05760405162461bcd60e51b81526004016104a790611b00565b60405180910390fd5b600254604080516318160ddd60e01b815290515f926001600160a01b0316916318160ddd9160048083019260209291908290030181865afa1580156104f7573d5f5f3e3d5ffd5b505050506040513d601f19601f8201168201806040525081019061051b9190611b25565b90505f81116105585760405162461bcd60e51b81526020600482015260096024820152684e4f5f53484152455360b81b60448201526064016104a7565b5f6105616114ee565b90505f8261056f8386611b50565b6105799190611b67565b5f546040516370a0823160e01b81523060048201529192506001600160a01b0316906370a0823190602401602060405180830381865afa1580156105bf573d5f5f3e3d5ffd5b505050506040513d601f19601f820116820180604052508101906105e39190611b25565b81111561062b5760405162461bcd60e51b8152602060048201526016602482015275494e53554646494349454e545f4c495155494449545960501b60448201526064016104a7565b600254604051632770a7eb60e21b8152336004820152602481018690526001600160a01b0390911690639dc29fac906044015f604051808303815f87803b158015610674575f5ffd5b505af1158015610686573d5f5f3e3d5ffd5b505050505f836008548661069a9190611b50565b6106a49190611b67565b90508060085f8282546106b79190611b86565b90915550505f5460405163a9059cbb60e01b8152336004820152602481018490526001600160a01b039091169063a9059cbb906044016020604051808303815f875af1158015610709573d5f5f3e3d5ffd5b505050506040513d601f19601f8201168201806040525081019061072d9190611b99565b6107495760405162461bcd60e51b81526004016104a790611bb8565b5050505050565b5f6107596114ee565b905090565b5f811161079a5760405162461bcd60e51b815260206004820152600a6024820152695a45524f5f524550415960b01b60448201526064016104a7565b6107a333611576565b335f908152600460205260408120546107bd908390611708565b90505f81116108015760405162461bcd60e51b815260206004820152601060248201526f4e4f5448494e475f544f5f524550415960801b60448201526064016104a7565b5f546040516323b872dd60e01b8152336004820152306024820152604481018390526001600160a01b03909116906323b872dd906064016020604051808303815f875af1158015610854573d5f5f3e3d5ffd5b505050506040513d601f19601f820116820180604052508101906108789190611b99565b6108945760405162461bcd60e51b81526004016104a790611bb8565b335f90815260046020526040812080548392906108b2908490611b86565b925050819055508060065f8282546108ca9190611b86565b90915550505050565b5f6107596108df61171f565b61174a565b5f81116109035760405162461bcd60e51b81526004016104a790611b00565b335f908152600360205260409020548111156109615760405162461bcd60e51b815260206004820152601760248201527f494e53554646494349454e545f434f4c4c41544552414c00000000000000000060448201526064016104a7565b61096a33611576565b335f90815260036020526040812054610984908390611b86565b335f90815260046020526040902054909150670de0b6b3a76400006109a983836117c7565b10156109e65760405162461bcd60e51b815260206004820152600c60248201526b48465f42454c4f575f4f4e4560a01b60448201526064016104a7565b335f818152600360205260408082208590555190919085908381818185875af1925050503d805f8114610a34576040519150601f19603f3d011682016040523d82523d5f602084013e610a39565b606091505b5050905080610a805760405162461bcd60e51b815260206004820152601360248201527211551217d514905394d1915497d19052531151606a1b60448201526064016104a7565b50505050565b5f3411610ac75760405162461bcd60e51b815260206004820152600f60248201526e16915493d7d0d3d313105511549053608a1b60448201526064016104a7565b335f9081526003602052604081208054349290610ae5908490611be1565b9091555050565b5f8111610b0b5760405162461bcd60e51b81526004016104a790611b00565b5f610b146114ee565b90505f60025f9054906101000a90046001600160a01b03166001600160a01b03166318160ddd6040518163ffffffff1660e01b8152600401602060405180830381865afa158015610b67573d5f5f3e3d5ffd5b505050506040513d601f19601f82011682018060405250810190610b8b9190611b25565b90505f815f03610b9c575082610bf5565b5f8311610bdd5760405162461bcd60e51b815260206004820152600f60248201526e5a45524f5f504f4f4c5f56414c554560881b60448201526064016104a7565b82610be88386611b50565b610bf29190611b67565b90505b5f546040516323b872dd60e01b8152336004820152306024820152604481018690526001600160a01b03909116906323b872dd906064016020604051808303815f875af1158015610c48573d5f5f3e3d5ffd5b505050506040513d601f19601f82011682018060405250810190610c6c9190611b99565b610c885760405162461bcd60e51b81526004016104a790611bb8565b6002546040516340c10f1960e01b8152336004820152602481018390526001600160a01b03909116906340c10f19906044015f604051808303815f87803b158015610cd1575f5ffd5b505af1158015610ce3573d5f5f3e3d5ffd5b505050508360085f828254610cf89190611be1565b909155505050505050565b5f61075961171f565b5f610d16826118a7565b92915050565b5f80546040516370a0823160e01b81523060048201526001600160a01b03909116906370a0823190602401602060405180830381865afa158015610d62573d5f5f3e3d5ffd5b505050506040513d601f19601f820116820180604052508101906107599190611b25565b5f5f610d9061171f565b90505f610d9c8261174a565b905061271080610dae6103e882611b86565b610db88585611b50565b610dc29190611b50565b610dcc9190611b67565b610dd69190611b67565b9250505090565b5f8111610e195760405162461bcd60e51b815260206004820152600a6024820152695a45524f5f524550415960b01b60448201526064016104a7565b60015460408051634c6afee560e11b815290515f926001600160a01b0316916398d5fdca9160048083019260209291908290030181865afa158015610e60573d5f5f3e3d5ffd5b505050506040513d601f19601f82011682018060405250810190610e849190611b25565b90505f8111610ec55760405162461bcd60e51b815260206004820152600d60248201526c14149250d157d393d517d4d155609a1b60448201526064016104a7565b610ece83611576565b6001600160a01b0383165f90815260036020908152604080832054600490925290912054670de0b6b3a764000091610f05916117c7565b10610f415760405162461bcd60e51b815260206004820152600c60248201526b48465f41424f56455f4f4e4560a01b60448201526064016104a7565b6001600160a01b0383165f90815260046020526040812054610f64908490611708565b90505f8111610fac5760405162461bcd60e51b81526020600482015260146024820152734e4f5448494e475f544f5f4c495155494441544560601b60448201526064016104a7565b5f610fb983612710611b50565b610fc76101f4612710611be1565b610fd19084611b50565b610fe390670de0b6b3a7640000611b50565b610fed9190611b67565b6001600160a01b0386165f9081526003602052604081205491925090611014908390611708565b5f546040516323b872dd60e01b8152336004820152306024820152604481018690529192506001600160a01b0316906323b872dd906064016020604051808303815f875af1158015611068573d5f5f3e3d5ffd5b505050506040513d601f19601f8201168201806040525081019061108c9190611b99565b6110a85760405162461bcd60e51b81526004016104a790611bb8565b6001600160a01b0386165f90815260046020526040812080548592906110cf908490611b86565b925050819055508260065f8282546110e79190611b86565b90915550506001600160a01b0386165f9081526003602052604081208054839290611113908490611b86565b90915550506040515f90339083908381818185875af1925050503d805f8114611157576040519150601f19603f3d011682016040523d82523d5f602084013e61115c565b606091505b50509050806111a35760405162461bcd60e51b815260206004820152601360248201527211551217d514905394d1915497d19052531151606a1b60448201526064016104a7565b50505050505050565b5f81116111e95760405162461bcd60e51b815260206004820152600b60248201526a5a45524f5f424f52524f5760a81b60448201526064016104a7565b60015460408051634c6afee560e11b815290515f926001600160a01b0316916398d5fdca9160048083019260209291908290030181865afa158015611230573d5f5f3e3d5ffd5b505050506040513d601f19601f820116820180604052508101906112549190611b25565b116112915760405162461bcd60e51b815260206004820152600d60248201526c14149250d157d393d517d4d155609a1b60448201526064016104a7565b61129a33611576565b335f908152600360205260409020546112e55760405162461bcd60e51b815260206004820152600d60248201526c1393d7d0d3d313105511549053609a1b60448201526064016104a7565b335f818152600460205260408120549161271090611b5890611306906118a7565b6113109190611b50565b61131a9190611b67565b90505f6113278484611be1565b90508181111561136f5760405162461bcd60e51b815260206004820152601360248201527213505617d093d49493d5d7d15610d151511151606a1b60448201526064016104a7565b5f546040516370a0823160e01b81523060048201526001600160a01b03909116906370a0823190602401602060405180830381865afa1580156113b4573d5f5f3e3d5ffd5b505050506040513d601f19601f820116820180604052508101906113d89190611b25565b8411156114205760405162461bcd60e51b8152602060048201526016602482015275494e53554646494349454e545f4c495155494449545960501b60448201526064016104a7565b5f5460405163a9059cbb60e01b8152336004820152602481018690526001600160a01b039091169063a9059cbb906044016020604051808303815f875af115801561146d573d5f5f3e3d5ffd5b505050506040513d601f19601f820116820180604052508101906114919190611b99565b6114ad5760405162461bcd60e51b81526004016104a790611bb8565b335f90815260046020526040812082905560068054869290610cf8908490611be1565b5f610d1682611951565b5f610d168261195b565b5f610d16826119a8565b6007546006545f80546040516370a0823160e01b8152306004820152919392916001600160a01b03909116906370a0823190602401602060405180830381865afa15801561153e573d5f5f3e3d5ffd5b505050506040513d601f19601f820116820180604052508101906115629190611b25565b61156c9190611be1565b6107599190611b86565b6001600160a01b0381165f9081526004602090815260408083205460059092528220549091036115bc57506001600160a01b03165f908152600560205260409020429055565b6001600160a01b0382165f908152600560205260408120546115de9042611b86565b90508015806115eb575081155b1561160d5750506001600160a01b03165f908152600560205260409020429055565b5f61161661171f565b90505f6116228261174a565b90505f64496cebb800846116368488611b50565b6116409190611b50565b61164a9190611b67565b9050805f03611675575050506001600160a01b039092165f9081526005602052604090204290555050565b5f6127106116856103e884611b50565b61168f9190611b67565b905061169b8287611be1565b6001600160a01b0388165f90815260046020526040812091909155600680548492906116c8908490611be1565b925050819055508060075f8282546116e09190611be1565b9091555050506001600160a01b039095165f9081526005602052604090204290555050505050565b5f8183106117165781611718565b825b9392505050565b5f6008545f0361172e57505f90565b60085460065461174090612710611b50565b6107599190611b67565b5f611f40821161177857611f406117636103e884611b50565b61176d9190611b67565b610d169060c8611be1565b5f611785611f4084611b86565b9050611795611f40612710611b86565b6117a1610fa083611b50565b6117ab9190611b67565b6117b86103e860c8611be1565b6117189190611be1565b919050565b5f815f036117d757505f19610d16565b5f670de0b6b3a764000060015f9054906101000a90046001600160a01b03166001600160a01b03166398d5fdca6040518163ffffffff1660e01b8152600401602060405180830381865afa158015611831573d5f5f3e3d5ffd5b505050506040513d601f19601f820116820180604052508101906118559190611b25565b61185f9086611b50565b6118699190611b67565b905061187783612710611b50565b611883611f4083611b50565b61189590670de0b6b3a7640000611b50565b61189f9190611b67565b949350505050565b5f670de0b6b3a764000060015f9054906101000a90046001600160a01b03166001600160a01b03166398d5fdca6040518163ffffffff1660e01b8152600401602060405180830381865afa158015611901573d5f5f3e3d5ffd5b505050506040513d601f19601f820116820180604052508101906119259190611b25565b6001600160a01b0384165f908152600360205260409020546119479190611b50565b610d169190611b67565b5f610d16826119d2565b5f5f612710611b5861196c856118a7565b6119769190611b50565b6119809190611b67565b90505f61198c84611951565b905080821161199e57505f9392505050565b61189f8183611b86565b6001600160a01b0381165f90815260036020526040812054610d16906119cd84611951565b6117c7565b6001600160a01b0381165f9081526004602090815260408083205460059092528220548203611a0357505f92915050565b6001600160a01b0383165f90815260056020526040812054611a259042611b86565b9050801580611a32575081155b15611a3e575092915050565b5f611a4761171f565b90505f611a538261174a565b90505f64496cebb80084611a678488611b50565b611a719190611b50565b611a7b9190611b67565b9050611a878186611be1565b979650505050505050565b5f60208284031215611aa2575f5ffd5b5035919050565b80356001600160a01b03811681146117c2575f5ffd5b5f60208284031215611acf575f5ffd5b61171882611aa9565b5f5f60408385031215611ae9575f5ffd5b611af283611aa9565b946020939093013593505050565b6020808252600b908201526a16915493d7d05353d5539560aa1b604082015260600190565b5f60208284031215611b35575f5ffd5b5051919050565b634e487b7160e01b5f52601160045260245ffd5b8082028115828204841417610d1657610d16611b3c565b5f82611b8157634e487b7160e01b5f52601260045260245ffd5b500490565b81810381811115610d1657610d16611b3c565b5f60208284031215611ba9575f5ffd5b81518015158114611718575f5ffd5b6020808252600f908201526e1514905394d1915497d19052531151608a1b604082015260600190565b80820180821115610d1657610d16611b3c56fea26469706673582212208d20d7945343673168015a9e30ac9c0cf89c144bb54715e59038ef08ec91559464736f6c634300081c0033","opcodes":"PUSH1 0x80 PUSH1 0x40 MSTORE CALLVALUE DUP1 ISZERO PUSH2 0xF JUMPI PUSH0 PUSH0 REVERT JUMPDEST POP PUSH1 0x40 MLOAD PUSH2 0x1DD1 CODESIZE SUB DUP1 PUSH2 0x1DD1 DUP4 CODECOPY DUP2 ADD PUSH1 0x40 DUP2 SWAP1 MSTORE PUSH2 0x2E SWAP2 PUSH2 0x15A JUMP JUMPDEST PUSH1 0x1 PUSH1 0x1 PUSH1 0xA0 SHL SUB DUP4 AND PUSH2 0x75 JUMPI PUSH1 0x40 MLOAD PUSH3 0x461BCD PUSH1 0xE5 SHL DUP2 MSTORE PUSH1 0x20 PUSH1 0x4 DUP3 ADD MSTORE PUSH1 0x9 PUSH1 0x24 DUP3 ADD MSTORE PUSH9 0x16915493D7D554D115 PUSH1 0xBA SHL PUSH1 0x44 DUP3 ADD MSTORE PUSH1 0x64 ADD JUMPDEST PUSH1 0x40 MLOAD DUP1 SWAP2 SUB SWAP1 REVERT JUMPDEST PUSH1 0x1 PUSH1 0x1 PUSH1 0xA0 SHL SUB DUP3 AND PUSH2 0xB9 JUMPI PUSH1 0x40 MLOAD PUSH3 0x461BCD PUSH1 0xE5 SHL DUP2 MSTORE PUSH1 0x20 PUSH1 0x4 DUP3 ADD MSTORE PUSH1 0xB PUSH1 0x24 DUP3 ADD MSTORE PUSH11 0x5A45524F5F4F5241434C45 PUSH1 0xA8 SHL PUSH1 0x44 DUP3 ADD MSTORE PUSH1 0x64 ADD PUSH2 0x6C JUMP JUMPDEST PUSH1 0x1 PUSH1 0x1 PUSH1 0xA0 SHL SUB DUP2 AND PUSH2 0xFE JUMPI PUSH1 0x40 MLOAD PUSH3 0x461BCD PUSH1 0xE5 SHL DUP2 MSTORE PUSH1 0x20 PUSH1 0x4 DUP3 ADD MSTORE PUSH1 0xC PUSH1 0x24 DUP3 ADD MSTORE PUSH12 0x2D22A927AFA3292A27A5A2A7 PUSH1 0xA1 SHL PUSH1 0x44 DUP3 ADD MSTORE PUSH1 0x64 ADD PUSH2 0x6C JUMP JUMPDEST PUSH0 DUP1 SLOAD PUSH1 0x1 PUSH1 0x1 PUSH1 0xA0 SHL SUB SWAP5 DUP6 AND PUSH1 0x1 PUSH1 0x1 PUSH1 0xA0 SHL SUB NOT SWAP2 DUP3 AND OR SWAP1 SWAP2 SSTORE PUSH1 0x1 DUP1 SLOAD SWAP4 DUP6 AND SWAP4 DUP3 AND SWAP4 SWAP1 SWAP4 OR SWAP1 SWAP3 SSTORE PUSH1 0x2 DUP1 SLOAD SWAP2 SWAP1 SWAP4 AND SWAP2 AND OR SWAP1 SSTORE PUSH2 0x19A JUMP JUMPDEST DUP1 MLOAD PUSH1 0x1 PUSH1 0x1 PUSH1 0xA0 SHL SUB DUP2 AND DUP2 EQ PUSH2 0x155 JUMPI PUSH0 PUSH0 REVERT JUMPDEST SWAP2 SWAP1 POP JUMP JUMPDEST PUSH0 PUSH0 PUSH0 PUSH1 0x60 DUP5 DUP7 SUB SLT ISZERO PUSH2 0x16C JUMPI PUSH0 PUSH0 REVERT JUMPDEST PUSH2 0x175 DUP5 PUSH2 0x13F JUMP JUMPDEST SWAP3 POP PUSH2 0x183 PUSH1 0x20 DUP6 ADD PUSH2 0x13F JUMP JUMPDEST SWAP2 POP PUSH2 0x191 PUSH1 0x40 DUP6 ADD PUSH2 0x13F JUMP JUMPDEST SWAP1 POP SWAP3 POP SWAP3 POP SWAP3 JUMP JUMPDEST PUSH2 0x1C2A DUP1 PUSH2 0x1A7 PUSH0 CODECOPY PUSH0 RETURN INVALID PUSH1 0x80 PUSH1 0x40 MSTORE PUSH1 0x4 CALLDATASIZE LT PUSH2 0x17E JUMPI PUSH0 CALLDATALOAD PUSH1 0xE0 SHR DUP1 PUSH4 0x97904E42 GT PUSH2 0xCD JUMPI DUP1 PUSH4 0xBCBAF487 GT PUSH2 0x87 JUMPI DUP1 PUSH4 0xEBF5A908 GT PUSH2 0x62 JUMPI DUP1 PUSH4 0xEBF5A908 EQ PUSH2 0x416 JUMPI DUP1 PUSH4 0xF0A7FAD8 EQ PUSH2 0x435 JUMPI DUP1 PUSH4 0xFD1C317A EQ PUSH2 0x44A JUMPI DUP1 PUSH4 0xFE6BCD7C EQ PUSH2 0x469 JUMPI PUSH0 PUSH0 REVERT JUMPDEST DUP1 PUSH4 0xBCBAF487 EQ PUSH2 0x3C4 JUMPI DUP1 PUSH4 0xC5EBEAEC EQ PUSH2 0x3E3 JUMPI DUP1 PUSH4 0xD9DE24D7 EQ PUSH2 0x402 JUMPI PUSH0 PUSH0 REVERT JUMPDEST DUP1 PUSH4 0x97904E42 EQ PUSH2 0x31E JUMPI DUP1 PUSH4 0x99B49130 EQ PUSH2 0x33D JUMPI DUP1 PUSH4 0x9B745AEC EQ PUSH2 0x368 JUMPI DUP1 PUSH4 0x9F560DD5 EQ PUSH2 0x37C JUMPI DUP1 PUSH4 0xA5310E7D EQ PUSH2 0x390 JUMPI DUP1 PUSH4 0xBBE413F2 EQ PUSH2 0x3AF JUMPI PUSH0 PUSH0 REVERT JUMPDEST DUP1 PUSH4 0x6112FE2E GT PUSH2 0x138 JUMPI DUP1 PUSH4 0x6F758140 GT PUSH2 0x113 JUMPI DUP1 PUSH4 0x6F758140 EQ PUSH2 0x2C4 JUMPI DUP1 PUSH4 0x76D58E1A EQ PUSH2 0x2CC JUMPI DUP1 PUSH4 0x7DC0D1D0 EQ PUSH2 0x2EB JUMPI DUP1 PUSH4 0x7EB71131 EQ PUSH2 0x30A JUMPI PUSH0 PUSH0 REVERT JUMPDEST DUP1 PUSH4 0x6112FE2E EQ PUSH2 0x265 JUMPI DUP1 PUSH4 0x62AC48F3 EQ PUSH2 0x284 JUMPI DUP1 PUSH4 0x6AD3D82B EQ PUSH2 0x299 JUMPI PUSH0 PUSH0 REVERT JUMPDEST DUP1 PUSH4 0xA861F2A EQ PUSH2 0x189 JUMPI DUP1 PUSH4 0x16851B36 EQ PUSH2 0x1AA JUMPI DUP1 PUSH4 0x1BA2F531 EQ PUSH2 0x1E8 JUMPI DUP1 PUSH4 0x2F48AB7D EQ PUSH2 0x1FC JUMPI DUP1 PUSH4 0x371FD8E6 EQ PUSH2 0x232 JUMPI DUP1 PUSH4 0x503D37EA EQ PUSH2 0x251 JUMPI PUSH0 PUSH0 REVERT JUMPDEST CALLDATASIZE PUSH2 0x185 JUMPI STOP JUMPDEST PUSH0 PUSH0 REVERT JUMPDEST CALLVALUE DUP1 ISZERO PUSH2 0x194 JUMPI PUSH0 PUSH0 REVERT JUMPDEST POP PUSH2 0x1A8 PUSH2 0x1A3 CALLDATASIZE PUSH1 0x4 PUSH2 0x1A92 JUMP JUMPDEST PUSH2 0x488 JUMP JUMPDEST STOP JUMPDEST CALLVALUE DUP1 ISZERO PUSH2 0x1B5 JUMPI PUSH0 PUSH0 REVERT JUMPDEST POP PUSH2 0x1D5 PUSH2 0x1C4 CALLDATASIZE PUSH1 0x4 PUSH2 0x1ABF JUMP JUMPDEST PUSH1 0x5 PUSH1 0x20 MSTORE PUSH0 SWAP1 DUP2 MSTORE PUSH1 0x40 SWAP1 KECCAK256 SLOAD DUP2 JUMP JUMPDEST PUSH1 0x40 MLOAD SWAP1 DUP2 MSTORE PUSH1 0x20 ADD JUMPDEST PUSH1 0x40 MLOAD DUP1 SWAP2 SUB SWAP1 RETURN JUMPDEST CALLVALUE DUP1 ISZERO PUSH2 0x1F3 JUMPI PUSH0 PUSH0 REVERT JUMPDEST POP PUSH2 0x1D5 PUSH2 0x750 JUMP JUMPDEST CALLVALUE DUP1 ISZERO PUSH2 0x207 JUMPI PUSH0 PUSH0 REVERT JUMPDEST POP PUSH0 SLOAD PUSH2 0x21A SWAP1 PUSH1 0x1 PUSH1 0x1 PUSH1 0xA0 SHL SUB AND DUP2 JUMP JUMPDEST PUSH1 0x40 MLOAD PUSH1 0x1 PUSH1 0x1 PUSH1 0xA0 SHL SUB SWAP1 SWAP2 AND DUP2 MSTORE PUSH1 0x20 ADD PUSH2 0x1DF JUMP JUMPDEST CALLVALUE DUP1 ISZERO PUSH2 0x23D JUMPI PUSH0 PUSH0 REVERT JUMPDEST POP PUSH2 0x1A8 PUSH2 0x24C CALLDATASIZE PUSH1 0x4 PUSH2 0x1A92 JUMP JUMPDEST PUSH2 0x75E JUMP JUMPDEST CALLVALUE DUP1 ISZERO PUSH2 0x25C JUMPI PUSH0 PUSH0 REVERT JUMPDEST POP PUSH2 0x1D5 PUSH2 0x8D3 JUMP JUMPDEST CALLVALUE DUP1 ISZERO PUSH2 0x270 JUMPI PUSH0 PUSH0 REVERT JUMPDEST POP PUSH2 0x1A8 PUSH2 0x27F CALLDATASIZE PUSH1 0x4 PUSH2 0x1A92 JUMP JUMPDEST PUSH2 0x8E4 JUMP JUMPDEST CALLVALUE DUP1 ISZERO PUSH2 0x28F JUMPI PUSH0 PUSH0 REVERT JUMPDEST POP PUSH2 0x1D5 PUSH1 0x7 SLOAD DUP2 JUMP JUMPDEST CALLVALUE DUP1 ISZERO PUSH2 0x2A4 JUMPI PUSH0 PUSH0 REVERT JUMPDEST POP PUSH2 0x1D5 PUSH2 0x2B3 CALLDATASIZE PUSH1 0x4 PUSH2 0x1ABF JUMP JUMPDEST PUSH1 0x3 PUSH1 0x20 MSTORE PUSH0 SWAP1 DUP2 MSTORE PUSH1 0x40 SWAP1 KECCAK256 SLOAD DUP2 JUMP JUMPDEST PUSH2 0x1A8 PUSH2 0xA86 JUMP JUMPDEST CALLVALUE DUP1 ISZERO PUSH2 0x2D7 JUMPI PUSH0 PUSH0 REVERT JUMPDEST POP PUSH2 0x1A8 PUSH2 0x2E6 CALLDATASIZE PUSH1 0x4 PUSH2 0x1A92 JUMP JUMPDEST PUSH2 0xAEC JUMP JUMPDEST CALLVALUE DUP1 ISZERO PUSH2 0x2F6 JUMPI PUSH0 PUSH0 REVERT JUMPDEST POP PUSH1 0x1 SLOAD PUSH2 0x21A SWAP1 PUSH1 0x1 PUSH1 0x1 PUSH1 0xA0 SHL SUB AND DUP2 JUMP JUMPDEST CALLVALUE DUP1 ISZERO PUSH2 0x315 JUMPI PUSH0 PUSH0 REVERT JUMPDEST POP PUSH2 0x1D5 PUSH2 0xD03 JUMP JUMPDEST CALLVALUE DUP1 ISZERO PUSH2 0x329 JUMPI PUSH0 PUSH0 REVERT JUMPDEST POP PUSH2 0x1D5 PUSH2 0x338 CALLDATASIZE PUSH1 0x4 PUSH2 0x1ABF JUMP JUMPDEST PUSH2 0xD0C JUMP JUMPDEST CALLVALUE DUP1 ISZERO PUSH2 0x348 JUMPI PUSH0 PUSH0 REVERT JUMPDEST POP PUSH2 0x1D5 PUSH2 0x357 CALLDATASIZE PUSH1 0x4 PUSH2 0x1ABF JUMP JUMPDEST PUSH1 0x4 PUSH1 0x20 MSTORE PUSH0 SWAP1 DUP2 MSTORE PUSH1 0x40 SWAP1 KECCAK256 SLOAD DUP2 JUMP JUMPDEST CALLVALUE DUP1 ISZERO PUSH2 0x373 JUMPI PUSH0 PUSH0 REVERT JUMPDEST POP PUSH2 0x1D5 PUSH2 0xD1C JUMP JUMPDEST CALLVALUE DUP1 ISZERO PUSH2 0x387 JUMPI PUSH0 PUSH0 REVERT JUMPDEST POP PUSH2 0x1D5 PUSH2 0xD86 JUMP JUMPDEST CALLVALUE DUP1 ISZERO PUSH2 0x39B JUMPI PUSH0 PUSH0 REVERT JUMPDEST POP PUSH1 0x2 SLOAD PUSH2 0x21A SWAP1 PUSH1 0x1 PUSH1 0x1 PUSH1 0xA0 SHL SUB AND DUP2 JUMP JUMPDEST CALLVALUE DUP1 ISZERO PUSH2 0x3BA JUMPI PUSH0 PUSH0 REVERT JUMPDEST POP PUSH2 0x1D5 PUSH1 0x6 SLOAD DUP2 JUMP JUMPDEST CALLVALUE DUP1 ISZERO PUSH2 0x3CF JUMPI PUSH0 PUSH0 REVERT JUMPDEST POP PUSH2 0x1A8 PUSH2 0x3DE CALLDATASIZE PUSH1 0x4 PUSH2 0x1AD8 JUMP JUMPDEST PUSH2 0xDDD JUMP JUMPDEST CALLVALUE DUP1 ISZERO PUSH2 0x3EE JUMPI PUSH0 PUSH0 REVERT JUMPDEST POP PUSH2 0x1A8 PUSH2 0x3FD CALLDATASIZE PUSH1 0x4 PUSH2 0x1A92 JUMP JUMPDEST PUSH2 0x11AC JUMP JUMPDEST CALLVALUE DUP1 ISZERO PUSH2 0x40D JUMPI PUSH0 PUSH0 REVERT JUMPDEST POP PUSH1 0x8 SLOAD PUSH2 0x1D5 JUMP JUMPDEST CALLVALUE DUP1 ISZERO PUSH2 0x421 JUMPI PUSH0 PUSH0 REVERT JUMPDEST POP PUSH2 0x1D5 PUSH2 0x430 CALLDATASIZE PUSH1 0x4 PUSH2 0x1ABF JUMP JUMPDEST PUSH2 0x14D0 JUMP JUMPDEST CALLVALUE DUP1 ISZERO PUSH2 0x440 JUMPI PUSH0 PUSH0 REVERT JUMPDEST POP PUSH2 0x1D5 PUSH1 0x8 SLOAD DUP2 JUMP JUMPDEST CALLVALUE DUP1 ISZERO PUSH2 0x455 JUMPI PUSH0 PUSH0 REVERT JUMPDEST POP PUSH2 0x1D5 PUSH2 0x464 CALLDATASIZE PUSH1 0x4 PUSH2 0x1ABF JUMP JUMPDEST PUSH2 0x14DA JUMP JUMPDEST CALLVALUE DUP1 ISZERO PUSH2 0x474 JUMPI PUSH0 PUSH0 REVERT JUMPDEST POP PUSH2 0x1D5 PUSH2 0x483 CALLDATASIZE PUSH1 0x4 PUSH2 0x1ABF JUMP JUMPDEST PUSH2 0x14E4 JUMP JUMPDEST PUSH0 DUP2 GT PUSH2 0x4B0 JUMPI PUSH1 0x40 MLOAD PUSH3 0x461BCD PUSH1 0xE5 SHL DUP2 MSTORE PUSH1 0x4 ADD PUSH2 0x4A7 SWAP1 PUSH2 0x1B00 JUMP JUMPDEST PUSH1 0x40 MLOAD DUP1 SWAP2 SUB SWAP1 REVERT JUMPDEST PUSH1 0x2 SLOAD PUSH1 0x40 DUP1 MLOAD PUSH4 0x18160DDD PUSH1 0xE0 SHL DUP2 MSTORE SWAP1 MLOAD PUSH0 SWAP3 PUSH1 0x1 PUSH1 0x1 PUSH1 0xA0 SHL SUB AND SWAP2 PUSH4 0x18160DDD SWAP2 PUSH1 0x4 DUP1 DUP4 ADD SWAP3 PUSH1 0x20 SWAP3 SWAP2 SWAP1 DUP3 SWAP1 SUB ADD DUP2 DUP7 GAS STATICCALL ISZERO DUP1 ISZERO PUSH2 0x4F7 JUMPI RETURNDATASIZE PUSH0 PUSH0 RETURNDATACOPY RETURNDATASIZE PUSH0 REVERT JUMPDEST POP POP POP POP PUSH1 0x40 MLOAD RETURNDATASIZE PUSH1 0x1F NOT PUSH1 0x1F DUP3 ADD AND DUP3 ADD DUP1 PUSH1 0x40 MSTORE POP DUP2 ADD SWAP1 PUSH2 0x51B SWAP2 SWAP1 PUSH2 0x1B25 JUMP JUMPDEST SWAP1 POP PUSH0 DUP2 GT PUSH2 0x558 JUMPI PUSH1 0x40 MLOAD PUSH3 0x461BCD PUSH1 0xE5 SHL DUP2 MSTORE PUSH1 0x20 PUSH1 0x4 DUP3 ADD MSTORE PUSH1 0x9 PUSH1 0x24 DUP3 ADD MSTORE PUSH9 0x4E4F5F534841524553 PUSH1 0xB8 SHL PUSH1 0x44 DUP3 ADD MSTORE PUSH1 0x64 ADD PUSH2 0x4A7 JUMP JUMPDEST PUSH0 PUSH2 0x561 PUSH2 0x14EE JUMP JUMPDEST SWAP1 POP PUSH0 DUP3 PUSH2 0x56F DUP4 DUP7 PUSH2 0x1B50 JUMP JUMPDEST PUSH2 0x579 SWAP2 SWAP1 PUSH2 0x1B67 JUMP JUMPDEST PUSH0 SLOAD PUSH1 0x40 MLOAD PUSH4 0x70A08231 PUSH1 0xE0 SHL DUP2 MSTORE ADDRESS PUSH1 0x4 DUP3 ADD MSTORE SWAP2 SWAP3 POP PUSH1 0x1 PUSH1 0x1 PUSH1 0xA0 SHL SUB AND SWAP1 PUSH4 0x70A08231 SWAP1 PUSH1 0x24 ADD PUSH1 0x20 PUSH1 0x40 MLOAD DUP1 DUP4 SUB DUP2 DUP7 GAS STATICCALL ISZERO DUP1 ISZERO PUSH2 0x5BF JUMPI RETURNDATASIZE PUSH0 PUSH0 RETURNDATACOPY RETURNDATASIZE PUSH0 REVERT JUMPDEST POP POP POP POP PUSH1 0x40 MLOAD RETURNDATASIZE PUSH1 0x1F NOT PUSH1 0x1F DUP3 ADD AND DUP3 ADD DUP1 PUSH1 0x40 MSTORE POP DUP2 ADD SWAP1 PUSH2 0x5E3 SWAP2 SWAP1 PUSH2 0x1B25 JUMP JUMPDEST DUP2 GT ISZERO PUSH2 0x62B JUMPI PUSH1 0x40 MLOAD PUSH3 0x461BCD PUSH1 0xE5 SHL DUP2 MSTORE PUSH1 0x20 PUSH1 0x4 DUP3 ADD MSTORE PUSH1 0x16 PUSH1 0x24 DUP3 ADD MSTORE PUSH22 0x494E53554646494349454E545F4C4951554944495459 PUSH1 0x50 SHL PUSH1 0x44 DUP3 ADD MSTORE PUSH1 0x64 ADD PUSH2 0x4A7 JUMP JUMPDEST PUSH1 0x2 SLOAD PUSH1 0x40 MLOAD PUSH4 0x2770A7EB PUSH1 0xE2 SHL DUP2 MSTORE CALLER PUSH1 0x4 DUP3 ADD MSTORE PUSH1 0x24 DUP2 ADD DUP7 SWAP1 MSTORE PUSH1 0x1 PUSH1 0x1 PUSH1 0xA0 SHL SUB SWAP1 SWAP2 AND SWAP1 PUSH4 0x9DC29FAC SWAP1 PUSH1 0x44 ADD PUSH0 PUSH1 0x40 MLOAD DUP1 DUP4 SUB DUP2 PUSH0 DUP8 DUP1 EXTCODESIZE ISZERO DUP1 ISZERO PUSH2 0x674 JUMPI PUSH0 PUSH0 REVERT JUMPDEST POP GAS CALL ISZERO DUP1 ISZERO PUSH2 0x686 JUMPI RETURNDATASIZE PUSH0 PUSH0 RETURNDATACOPY RETURNDATASIZE PUSH0 REVERT JUMPDEST POP POP POP POP PUSH0 DUP4 PUSH1 0x8 SLOAD DUP7 PUSH2 0x69A SWAP2 SWAP1 PUSH2 0x1B50 JUMP JUMPDEST PUSH2 0x6A4 SWAP2 SWAP1 PUSH2 0x1B67 JUMP JUMPDEST SWAP1 POP DUP1 PUSH1 0x8 PUSH0 DUP3 DUP3 SLOAD PUSH2 0x6B7 SWAP2 SWAP1 PUSH2 0x1B86 JUMP JUMPDEST SWAP1 SWAP2 SSTORE POP POP PUSH0 SLOAD PUSH1 0x40 MLOAD PUSH4 0xA9059CBB PUSH1 0xE0 SHL DUP2 MSTORE CALLER PUSH1 0x4 DUP3 ADD MSTORE PUSH1 0x24 DUP2 ADD DUP5 SWAP1 MSTORE PUSH1 0x1 PUSH1 0x1 PUSH1 0xA0 SHL SUB SWAP1 SWAP2 AND SWAP1 PUSH4 0xA9059CBB SWAP1 PUSH1 0x44 ADD PUSH1 0x20 PUSH1 0x40 MLOAD DUP1 DUP4 SUB DUP2 PUSH0 DUP8 GAS CALL ISZERO DUP1 ISZERO PUSH2 0x709 JUMPI RETURNDATASIZE PUSH0 PUSH0 RETURNDATACOPY RETURNDATASIZE PUSH0 REVERT JUMPDEST POP POP POP POP PUSH1 0x40 MLOAD RETURNDATASIZE PUSH1 0x1F NOT PUSH1 0x1F DUP3 ADD AND DUP3 ADD DUP1 PUSH1 0x40 MSTORE POP DUP2 ADD SWAP1 PUSH2 0x72D SWAP2 SWAP1 PUSH2 0x1B99 JUMP JUMPDEST PUSH2 0x749 JUMPI PUSH1 0x40 MLOAD PUSH3 0x461BCD PUSH1 0xE5 SHL DUP2 MSTORE PUSH1 0x4 ADD PUSH2 0x4A7 SWAP1 PUSH2 0x1BB8 JUMP JUMPDEST POP POP POP POP POP JUMP JUMPDEST PUSH0 PUSH2 0x759 PUSH2 0x14EE JUMP JUMPDEST SWAP1 POP SWAP1 JUMP JUMPDEST PUSH0 DUP2 GT PUSH2 0x79A JUMPI PUSH1 0x40 MLOAD PUSH3 0x461BCD PUSH1 0xE5 SHL DUP2 MSTORE PUSH1 0x20 PUSH1 0x4 DUP3 ADD MSTORE PUSH1 0xA PUSH1 0x24 DUP3 ADD MSTORE PUSH10 0x5A45524F5F5245504159 PUSH1 0xB0 SHL PUSH1 0x44 DUP3 ADD MSTORE PUSH1 0x64 ADD PUSH2 0x4A7 JUMP JUMPDEST PUSH2 0x7A3 CALLER PUSH2 0x1576 JUMP JUMPDEST CALLER PUSH0 SWAP1 DUP2 MSTORE PUSH1 0x4 PUSH1 0x20 MSTORE PUSH1 0x40 DUP2 KECCAK256 SLOAD PUSH2 0x7BD SWAP1 DUP4 SWAP1 PUSH2 0x1708 JUMP JUMPDEST SWAP1 POP PUSH0 DUP2 GT PUSH2 0x801 JUMPI PUSH1 0x40 MLOAD PUSH3 0x461BCD PUSH1 0xE5 SHL DUP2 MSTORE PUSH1 0x20 PUSH1 0x4 DUP3 ADD MSTORE PUSH1 0x10 PUSH1 0x24 DUP3 ADD MSTORE PUSH16 0x4E4F5448494E475F544F5F5245504159 PUSH1 0x80 SHL PUSH1 0x44 DUP3 ADD MSTORE PUSH1 0x64 ADD PUSH2 0x4A7 JUMP JUMPDEST PUSH0 SLOAD PUSH1 0x40 MLOAD PUSH4 0x23B872DD PUSH1 0xE0 SHL DUP2 MSTORE CALLER PUSH1 0x4 DUP3 ADD MSTORE ADDRESS PUSH1 0x24 DUP3 ADD MSTORE PUSH1 0x44 DUP2 ADD DUP4 SWAP1 MSTORE PUSH1 0x1 PUSH1 0x1 PUSH1 0xA0 SHL SUB SWAP1 SWAP2 AND SWAP1 PUSH4 0x23B872DD SWAP1 PUSH1 0x64 ADD PUSH1 0x20 PUSH1 0x40 MLOAD DUP1 DUP4 SUB DUP2 PUSH0 DUP8 GAS CALL ISZERO DUP1 ISZERO PUSH2 0x854 JUMPI RETURNDATASIZE PUSH0 PUSH0 RETURNDATACOPY RETURNDATASIZE PUSH0 REVERT JUMPDEST POP POP POP POP PUSH1 0x40 MLOAD RETURNDATASIZE PUSH1 0x1F NOT PUSH1 0x1F DUP3 ADD AND DUP3 ADD DUP1 PUSH1 0x40 MSTORE POP DUP2 ADD SWAP1 PUSH2 0x878 SWAP2 SWAP1 PUSH2 0x1B99 JUMP JUMPDEST PUSH2 0x894 JUMPI PUSH1 0x40 MLOAD PUSH3 0x461BCD PUSH1 0xE5 SHL DUP2 MSTORE PUSH1 0x4 ADD PUSH2 0x4A7 SWAP1 PUSH2 0x1BB8 JUMP JUMPDEST CALLER PUSH0 SWAP1 DUP2 MSTORE PUSH1 0x4 PUSH1 0x20 MSTORE PUSH1 0x40 DUP2 KECCAK256 DUP1 SLOAD DUP4 SWAP3 SWAP1 PUSH2 0x8B2 SWAP1 DUP5 SWAP1 PUSH2 0x1B86 JUMP JUMPDEST SWAP3 POP POP DUP2 SWAP1 SSTORE POP DUP1 PUSH1 0x6 PUSH0 DUP3 DUP3 SLOAD PUSH2 0x8CA SWAP2 SWAP1 PUSH2 0x1B86 JUMP JUMPDEST SWAP1 SWAP2 SSTORE POP POP POP POP JUMP JUMPDEST PUSH0 PUSH2 0x759 PUSH2 0x8DF PUSH2 0x171F JUMP JUMPDEST PUSH2 0x174A JUMP JUMPDEST PUSH0 DUP2 GT PUSH2 0x903 JUMPI PUSH1 0x40 MLOAD PUSH3 0x461BCD PUSH1 0xE5 SHL DUP2 MSTORE PUSH1 0x4 ADD PUSH2 0x4A7 SWAP1 PUSH2 0x1B00 JUMP JUMPDEST CALLER PUSH0 SWAP1 DUP2 MSTORE PUSH1 0x3 PUSH1 0x20 MSTORE PUSH1 0x40 SWAP1 KECCAK256 SLOAD DUP2 GT ISZERO PUSH2 0x961 JUMPI PUSH1 0x40 MLOAD PUSH3 0x461BCD PUSH1 0xE5 SHL DUP2 MSTORE PUSH1 0x20 PUSH1 0x4 DUP3 ADD MSTORE PUSH1 0x17 PUSH1 0x24 DUP3 ADD MSTORE PUSH32 0x494E53554646494349454E545F434F4C4C41544552414C000000000000000000 PUSH1 0x44 DUP3 ADD MSTORE PUSH1 0x64 ADD PUSH2 0x4A7 JUMP JUMPDEST PUSH2 0x96A CALLER PUSH2 0x1576 JUMP JUMPDEST CALLER PUSH0 SWAP1 DUP2 MSTORE PUSH1 0x3 PUSH1 0x20 MSTORE PUSH1 0x40 DUP2 KECCAK256 SLOAD PUSH2 0x984 SWAP1 DUP4 SWAP1 PUSH2 0x1B86 JUMP JUMPDEST CALLER PUSH0 SWAP1 DUP2 MSTORE PUSH1 0x4 PUSH1 0x20 MSTORE PUSH1 0x40 SWAP1 KECCAK256 SLOAD SWAP1 SWAP2 POP PUSH8 0xDE0B6B3A7640000 PUSH2 0x9A9 DUP4 DUP4 PUSH2 0x17C7 JUMP JUMPDEST LT ISZERO PUSH2 0x9E6 JUMPI PUSH1 0x40 MLOAD PUSH3 0x461BCD PUSH1 0xE5 SHL DUP2 MSTORE PUSH1 0x20 PUSH1 0x4 DUP3 ADD MSTORE PUSH1 0xC PUSH1 0x24 DUP3 ADD MSTORE PUSH12 0x48465F42454C4F575F4F4E45 PUSH1 0xA0 SHL PUSH1 0x44 DUP3 ADD MSTORE PUSH1 0x64 ADD PUSH2 0x4A7 JUMP JUMPDEST CALLER PUSH0 DUP2 DUP2 MSTORE PUSH1 0x3 PUSH1 0x20 MSTORE PUSH1 0x40 DUP1 DUP3 KECCAK256 DUP6 SWAP1 SSTORE MLOAD SWAP1 SWAP2 SWAP1 DUP6 SWAP1 DUP4 DUP2 DUP2 DUP2 DUP6 DUP8 GAS CALL SWAP3 POP POP POP RETURNDATASIZE DUP1 PUSH0 DUP2 EQ PUSH2 0xA34 JUMPI PUSH1 0x40 MLOAD SWAP2 POP PUSH1 0x1F NOT PUSH1 0x3F RETURNDATASIZE ADD AND DUP3 ADD PUSH1 0x40 MSTORE RETURNDATASIZE DUP3 MSTORE RETURNDATASIZE PUSH0 PUSH1 0x20 DUP5 ADD RETURNDATACOPY PUSH2 0xA39 JUMP JUMPDEST PUSH1 0x60 SWAP2 POP JUMPDEST POP POP SWAP1 POP DUP1 PUSH2 0xA80 JUMPI PUSH1 0x40 MLOAD PUSH3 0x461BCD PUSH1 0xE5 SHL DUP2 MSTORE PUSH1 0x20 PUSH1 0x4 DUP3 ADD MSTORE PUSH1 0x13 PUSH1 0x24 DUP3 ADD MSTORE PUSH19 0x11551217D514905394D1915497D19052531151 PUSH1 0x6A SHL PUSH1 0x44 DUP3 ADD MSTORE PUSH1 0x64 ADD PUSH2 0x4A7 JUMP JUMPDEST POP POP POP POP JUMP JUMPDEST PUSH0 CALLVALUE GT PUSH2 0xAC7 JUMPI PUSH1 0x40 MLOAD PUSH3 0x461BCD PUSH1 0xE5 SHL DUP2 MSTORE PUSH1 0x20 PUSH1 0x4 DUP3 ADD MSTORE PUSH1 0xF PUSH1 0x24 DUP3 ADD MSTORE PUSH15 0x16915493D7D0D3D313105511549053 PUSH1 0x8A SHL PUSH1 0x44 DUP3 ADD MSTORE PUSH1 0x64 ADD PUSH2 0x4A7 JUMP JUMPDEST CALLER PUSH0 SWAP1 DUP2 MSTORE PUSH1 0x3 PUSH1 0x20 MSTORE PUSH1 0x40 DUP2 KECCAK256 DUP1 SLOAD CALLVALUE SWAP3 SWAP1 PUSH2 0xAE5 SWAP1 DUP5 SWAP1 PUSH2 0x1BE1 JUMP JUMPDEST SWAP1 SWAP2 SSTORE POP POP JUMP JUMPDEST PUSH0 DUP2 GT PUSH2 0xB0B JUMPI PUSH1 0x40 MLOAD PUSH3 0x461BCD PUSH1 0xE5 SHL DUP2 MSTORE PUSH1 0x4 ADD PUSH2 0x4A7 SWAP1 PUSH2 0x1B00 JUMP JUMPDEST PUSH0 PUSH2 0xB14 PUSH2 0x14EE JUMP JUMPDEST SWAP1 POP PUSH0 PUSH1 0x2 PUSH0 SWAP1 SLOAD SWAP1 PUSH2 0x100 EXP SWAP1 DIV PUSH1 0x1 PUSH1 0x1 PUSH1 0xA0 SHL SUB AND PUSH1 0x1 PUSH1 0x1 PUSH1 0xA0 SHL SUB AND PUSH4 0x18160DDD PUSH1 0x40 MLOAD DUP2 PUSH4 0xFFFFFFFF AND PUSH1 0xE0 SHL DUP2 MSTORE PUSH1 0x4 ADD PUSH1 0x20 PUSH1 0x40 MLOAD DUP1 DUP4 SUB DUP2 DUP7 GAS STATICCALL ISZERO DUP1 ISZERO PUSH2 0xB67 JUMPI RETURNDATASIZE PUSH0 PUSH0 RETURNDATACOPY RETURNDATASIZE PUSH0 REVERT JUMPDEST POP POP POP POP PUSH1 0x40 MLOAD RETURNDATASIZE PUSH1 0x1F NOT PUSH1 0x1F DUP3 ADD AND DUP3 ADD DUP1 PUSH1 0x40 MSTORE POP DUP2 ADD SWAP1 PUSH2 0xB8B SWAP2 SWAP1 PUSH2 0x1B25 JUMP JUMPDEST SWAP1 POP PUSH0 DUP2 PUSH0 SUB PUSH2 0xB9C JUMPI POP DUP3 PUSH2 0xBF5 JUMP JUMPDEST PUSH0 DUP4 GT PUSH2 0xBDD JUMPI PUSH1 0x40 MLOAD PUSH3 0x461BCD PUSH1 0xE5 SHL DUP2 MSTORE PUSH1 0x20 PUSH1 0x4 DUP3 ADD MSTORE PUSH1 0xF PUSH1 0x24 DUP3 ADD MSTORE PUSH15 0x5A45524F5F504F4F4C5F56414C5545 PUSH1 0x88 SHL PUSH1 0x44 DUP3 ADD MSTORE PUSH1 0x64 ADD PUSH2 0x4A7 JUMP JUMPDEST DUP3 PUSH2 0xBE8 DUP4 DUP7 PUSH2 0x1B50 JUMP JUMPDEST PUSH2 0xBF2 SWAP2 SWAP1 PUSH2 0x1B67 JUMP JUMPDEST SWAP1 POP JUMPDEST PUSH0 SLOAD PUSH1 0x40 MLOAD PUSH4 0x23B872DD PUSH1 0xE0 SHL DUP2 MSTORE CALLER PUSH1 0x4 DUP3 ADD MSTORE ADDRESS PUSH1 0x24 DUP3 ADD MSTORE PUSH1 0x44 DUP2 ADD DUP7 SWAP1 MSTORE PUSH1 0x1 PUSH1 0x1 PUSH1 0xA0 SHL SUB SWAP1 SWAP2 AND SWAP1 PUSH4 0x23B872DD SWAP1 PUSH1 0x64 ADD PUSH1 0x20 PUSH1 0x40 MLOAD DUP1 DUP4 SUB DUP2 PUSH0 DUP8 GAS CALL ISZERO DUP1 ISZERO PUSH2 0xC48 JUMPI RETURNDATASIZE PUSH0 PUSH0 RETURNDATACOPY RETURNDATASIZE PUSH0 REVERT JUMPDEST POP POP POP POP PUSH1 0x40 MLOAD RETURNDATASIZE PUSH1 0x1F NOT PUSH1 0x1F DUP3 ADD AND DUP3 ADD DUP1 PUSH1 0x40 MSTORE POP DUP2 ADD SWAP1 PUSH2 0xC6C SWAP2 SWAP1 PUSH2 0x1B99 JUMP JUMPDEST PUSH2 0xC88 JUMPI PUSH1 0x40 MLOAD PUSH3 0x461BCD PUSH1 0xE5 SHL DUP2 MSTORE PUSH1 0x4 ADD PUSH2 0x4A7 SWAP1 PUSH2 0x1BB8 JUMP JUMPDEST PUSH1 0x2 SLOAD PUSH1 0x40 MLOAD PUSH4 0x40C10F19 PUSH1 0xE0 SHL DUP2 MSTORE CALLER PUSH1 0x4 DUP3 ADD MSTORE PUSH1 0x24 DUP2 ADD DUP4 SWAP1 MSTORE PUSH1 0x1 PUSH1 0x1 PUSH1 0xA0 SHL SUB SWAP1 SWAP2 AND SWAP1 PUSH4 0x40C10F19 SWAP1 PUSH1 0x44 ADD PUSH0 PUSH1 0x40 MLOAD DUP1 DUP4 SUB DUP2 PUSH0 DUP8 DUP1 EXTCODESIZE ISZERO DUP1 ISZERO PUSH2 0xCD1 JUMPI PUSH0 PUSH0 REVERT JUMPDEST POP GAS CALL ISZERO DUP1 ISZERO PUSH2 0xCE3 JUMPI RETURNDATASIZE PUSH0 PUSH0 RETURNDATACOPY RETURNDATASIZE PUSH0 REVERT JUMPDEST POP POP POP POP DUP4 PUSH1 0x8 PUSH0 DUP3 DUP3 SLOAD PUSH2 0xCF8 SWAP2 SWAP1 PUSH2 0x1BE1 JUMP JUMPDEST SWAP1 SWAP2 SSTORE POP POP POP POP POP POP JUMP JUMPDEST PUSH0 PUSH2 0x759 PUSH2 0x171F JUMP JUMPDEST PUSH0 PUSH2 0xD16 DUP3 PUSH2 0x18A7 JUMP JUMPDEST SWAP3 SWAP2 POP POP JUMP JUMPDEST PUSH0 DUP1 SLOAD PUSH1 0x40 MLOAD PUSH4 0x70A08231 PUSH1 0xE0 SHL DUP2 MSTORE ADDRESS PUSH1 0x4 DUP3 ADD MSTORE PUSH1 0x1 PUSH1 0x1 PUSH1 0xA0 SHL SUB SWAP1 SWAP2 AND SWAP1 PUSH4 0x70A08231 SWAP1 PUSH1 0x24 ADD PUSH1 0x20 PUSH1 0x40 MLOAD DUP1 DUP4 SUB DUP2 DUP7 GAS STATICCALL ISZERO DUP1 ISZERO PUSH2 0xD62 JUMPI RETURNDATASIZE PUSH0 PUSH0 RETURNDATACOPY RETURNDATASIZE PUSH0 REVERT JUMPDEST POP POP POP POP PUSH1 0x40 MLOAD RETURNDATASIZE PUSH1 0x1F NOT PUSH1 0x1F DUP3 ADD AND DUP3 ADD DUP1 PUSH1 0x40 MSTORE POP DUP2 ADD SWAP1 PUSH2 0x759 SWAP2 SWAP1 PUSH2 0x1B25 JUMP JUMPDEST PUSH0 PUSH0 PUSH2 0xD90 PUSH2 0x171F JUMP JUMPDEST SWAP1 POP PUSH0 PUSH2 0xD9C DUP3 PUSH2 0x174A JUMP JUMPDEST SWAP1 POP PUSH2 0x2710 DUP1 PUSH2 0xDAE PUSH2 0x3E8 DUP3 PUSH2 0x1B86 JUMP JUMPDEST PUSH2 0xDB8 DUP6 DUP6 PUSH2 0x1B50 JUMP JUMPDEST PUSH2 0xDC2 SWAP2 SWAP1 PUSH2 0x1B50 JUMP JUMPDEST PUSH2 0xDCC SWAP2 SWAP1 PUSH2 0x1B67 JUMP JUMPDEST PUSH2 0xDD6 SWAP2 SWAP1 PUSH2 0x1B67 JUMP JUMPDEST SWAP3 POP POP POP SWAP1 JUMP JUMPDEST PUSH0 DUP2 GT PUSH2 0xE19 JUMPI PUSH1 0x40 MLOAD PUSH3 0x461BCD PUSH1 0xE5 SHL DUP2 MSTORE PUSH1 0x20 PUSH1 0x4 DUP3 ADD MSTORE PUSH1 0xA PUSH1 0x24 DUP3 ADD MSTORE PUSH10 0x5A45524F5F5245504159 PUSH1 0xB0 SHL PUSH1 0x44 DUP3 ADD MSTORE PUSH1 0x64 ADD PUSH2 0x4A7 JUMP JUMPDEST PUSH1 0x1 SLOAD PUSH1 0x40 DUP1 MLOAD PUSH4 0x4C6AFEE5 PUSH1 0xE1 SHL DUP2 MSTORE SWAP1 MLOAD PUSH0 SWAP3 PUSH1 0x1 PUSH1 0x1 PUSH1 0xA0 SHL SUB AND SWAP2 PUSH4 0x98D5FDCA SWAP2 PUSH1 0x4 DUP1 DUP4 ADD SWAP3 PUSH1 0x20 SWAP3 SWAP2 SWAP1 DUP3 SWAP1 SUB ADD DUP2 DUP7 GAS STATICCALL ISZERO DUP1 ISZERO PUSH2 0xE60 JUMPI RETURNDATASIZE PUSH0 PUSH0 RETURNDATACOPY RETURNDATASIZE PUSH0 REVERT JUMPDEST POP POP POP POP PUSH1 0x40 MLOAD RETURNDATASIZE PUSH1 0x1F NOT PUSH1 0x1F DUP3 ADD AND DUP3 ADD DUP1 PUSH1 0x40 MSTORE POP DUP2 ADD SWAP1 PUSH2 0xE84 SWAP2 SWAP1 PUSH2 0x1B25 JUMP JUMPDEST SWAP1 POP PUSH0 DUP2 GT PUSH2 0xEC5 JUMPI PUSH1 0x40 MLOAD PUSH3 0x461BCD PUSH1 0xE5 SHL DUP2 MSTORE PUSH1 0x20 PUSH1 0x4 DUP3 ADD MSTORE PUSH1 0xD PUSH1 0x24 DUP3 ADD MSTORE PUSH13 0x14149250D157D393D517D4D155 PUSH1 0x9A SHL PUSH1 0x44 DUP3 ADD MSTORE PUSH1 0x64 ADD PUSH2 0x4A7 JUMP JUMPDEST PUSH2 0xECE DUP4 PUSH2 0x1576 JUMP JUMPDEST PUSH1 0x1 PUSH1 0x1 PUSH1 0xA0 SHL SUB DUP4 AND PUSH0 SWAP1 DUP2 MSTORE PUSH1 0x3 PUSH1 0x20 SWAP1 DUP2 MSTORE PUSH1 0x40 DUP1 DUP4 KECCAK256 SLOAD PUSH1 0x4 SWAP1 SWAP3 MSTORE SWAP1 SWAP2 KECCAK256 SLOAD PUSH8 0xDE0B6B3A7640000 SWAP2 PUSH2 0xF05 SWAP2 PUSH2 0x17C7 JUMP JUMPDEST LT PUSH2 0xF41 JUMPI PUSH1 0x40 MLOAD PUSH3 0x461BCD PUSH1 0xE5 SHL DUP2 MSTORE PUSH1 0x20 PUSH1 0x4 DUP3 ADD MSTORE PUSH1 0xC PUSH1 0x24 DUP3 ADD MSTORE PUSH12 0x48465F41424F56455F4F4E45 PUSH1 0xA0 SHL PUSH1 0x44 DUP3 ADD MSTORE PUSH1 0x64 ADD PUSH2 0x4A7 JUMP JUMPDEST PUSH1 0x1 PUSH1 0x1 PUSH1 0xA0 SHL SUB DUP4 AND PUSH0 SWAP1 DUP2 MSTORE PUSH1 0x4 PUSH1 0x20 MSTORE PUSH1 0x40 DUP2 KECCAK256 SLOAD PUSH2 0xF64 SWAP1 DUP5 SWAP1 PUSH2 0x1708 JUMP JUMPDEST SWAP1 POP PUSH0 DUP2 GT PUSH2 0xFAC JUMPI PUSH1 0x40 MLOAD PUSH3 0x461BCD PUSH1 0xE5 SHL DUP2 MSTORE PUSH1 0x20 PUSH1 0x4 DUP3 ADD MSTORE PUSH1 0x14 PUSH1 0x24 DUP3 ADD MSTORE PUSH20 0x4E4F5448494E475F544F5F4C4951554944415445 PUSH1 0x60 SHL PUSH1 0x44 DUP3 ADD MSTORE PUSH1 0x64 ADD PUSH2 0x4A7 JUMP JUMPDEST PUSH0 PUSH2 0xFB9 DUP4 PUSH2 0x2710 PUSH2 0x1B50 JUMP JUMPDEST PUSH2 0xFC7 PUSH2 0x1F4 PUSH2 0x2710 PUSH2 0x1BE1 JUMP JUMPDEST PUSH2 0xFD1 SWAP1 DUP5 PUSH2 0x1B50 JUMP JUMPDEST PUSH2 0xFE3 SWAP1 PUSH8 0xDE0B6B3A7640000 PUSH2 0x1B50 JUMP JUMPDEST PUSH2 0xFED SWAP2 SWAP1 PUSH2 0x1B67 JUMP JUMPDEST PUSH1 0x1 PUSH1 0x1 PUSH1 0xA0 SHL SUB DUP7 AND PUSH0 SWAP1 DUP2 MSTORE PUSH1 0x3 PUSH1 0x20 MSTORE PUSH1 0x40 DUP2 KECCAK256 SLOAD SWAP2 SWAP3 POP SWAP1 PUSH2 0x1014 SWAP1 DUP4 SWAP1 PUSH2 0x1708 JUMP JUMPDEST PUSH0 SLOAD PUSH1 0x40 MLOAD PUSH4 0x23B872DD PUSH1 0xE0 SHL DUP2 MSTORE CALLER PUSH1 0x4 DUP3 ADD MSTORE ADDRESS PUSH1 0x24 DUP3 ADD MSTORE PUSH1 0x44 DUP2 ADD DUP7 SWAP1 MSTORE SWAP2 SWAP3 POP PUSH1 0x1 PUSH1 0x1 PUSH1 0xA0 SHL SUB AND SWAP1 PUSH4 0x23B872DD SWAP1 PUSH1 0x64 ADD PUSH1 0x20 PUSH1 0x40 MLOAD DUP1 DUP4 SUB DUP2 PUSH0 DUP8 GAS CALL ISZERO DUP1 ISZERO PUSH2 0x1068 JUMPI RETURNDATASIZE PUSH0 PUSH0 RETURNDATACOPY RETURNDATASIZE PUSH0 REVERT JUMPDEST POP POP POP POP PUSH1 0x40 MLOAD RETURNDATASIZE PUSH1 0x1F NOT PUSH1 0x1F DUP3 ADD AND DUP3 ADD DUP1 PUSH1 0x40 MSTORE POP DUP2 ADD SWAP1 PUSH2 0x108C SWAP2 SWAP1 PUSH2 0x1B99 JUMP JUMPDEST PUSH2 0x10A8 JUMPI PUSH1 0x40 MLOAD PUSH3 0x461BCD PUSH1 0xE5 SHL DUP2 MSTORE PUSH1 0x4 ADD PUSH2 0x4A7 SWAP1 PUSH2 0x1BB8 JUMP JUMPDEST PUSH1 0x1 PUSH1 0x1 PUSH1 0xA0 SHL SUB DUP7 AND PUSH0 SWAP1 DUP2 MSTORE PUSH1 0x4 PUSH1 0x20 MSTORE PUSH1 0x40 DUP2 KECCAK256 DUP1 SLOAD DUP6 SWAP3 SWAP1 PUSH2 0x10CF SWAP1 DUP5 SWAP1 PUSH2 0x1B86 JUMP JUMPDEST SWAP3 POP POP DUP2 SWAP1 SSTORE POP DUP3 PUSH1 0x6 PUSH0 DUP3 DUP3 SLOAD PUSH2 0x10E7 SWAP2 SWAP1 PUSH2 0x1B86 JUMP JUMPDEST SWAP1 SWAP2 SSTORE POP POP PUSH1 0x1 PUSH1 0x1 PUSH1 0xA0 SHL SUB DUP7 AND PUSH0 SWAP1 DUP2 MSTORE PUSH1 0x3 PUSH1 0x20 MSTORE PUSH1 0x40 DUP2 KECCAK256 DUP1 SLOAD DUP4 SWAP3 SWAP1 PUSH2 0x1113 SWAP1 DUP5 SWAP1 PUSH2 0x1B86 JUMP JUMPDEST SWAP1 SWAP2 SSTORE POP POP PUSH1 0x40 MLOAD PUSH0 SWAP1 CALLER SWAP1 DUP4 SWAP1 DUP4 DUP2 DUP2 DUP2 DUP6 DUP8 GAS CALL SWAP3 POP POP POP RETURNDATASIZE DUP1 PUSH0 DUP2 EQ PUSH2 0x1157 JUMPI PUSH1 0x40 MLOAD SWAP2 POP PUSH1 0x1F NOT PUSH1 0x3F RETURNDATASIZE ADD AND DUP3 ADD PUSH1 0x40 MSTORE RETURNDATASIZE DUP3 MSTORE RETURNDATASIZE PUSH0 PUSH1 0x20 DUP5 ADD RETURNDATACOPY PUSH2 0x115C JUMP JUMPDEST PUSH1 0x60 SWAP2 POP JUMPDEST POP POP SWAP1 POP DUP1 PUSH2 0x11A3 JUMPI PUSH1 0x40 MLOAD PUSH3 0x461BCD PUSH1 0xE5 SHL DUP2 MSTORE PUSH1 0x20 PUSH1 0x4 DUP3 ADD MSTORE PUSH1 0x13 PUSH1 0x24 DUP3 ADD MSTORE PUSH19 0x11551217D514905394D1915497D19052531151 PUSH1 0x6A SHL PUSH1 0x44 DUP3 ADD MSTORE PUSH1 0x64 ADD PUSH2 0x4A7 JUMP JUMPDEST POP POP POP POP POP POP POP JUMP JUMPDEST PUSH0 DUP2 GT PUSH2 0x11E9 JUMPI PUSH1 0x40 MLOAD PUSH3 0x461BCD PUSH1 0xE5 SHL DUP2 MSTORE PUSH1 0x20 PUSH1 0x4 DUP3 ADD MSTORE PUSH1 0xB PUSH1 0x24 DUP3 ADD MSTORE PUSH11 0x5A45524F5F424F52524F57 PUSH1 0xA8 SHL PUSH1 0x44 DUP3 ADD MSTORE PUSH1 0x64 ADD PUSH2 0x4A7 JUMP JUMPDEST PUSH1 0x1 SLOAD PUSH1 0x40 DUP1 MLOAD PUSH4 0x4C6AFEE5 PUSH1 0xE1 SHL DUP2 MSTORE SWAP1 MLOAD PUSH0 SWAP3 PUSH1 0x1 PUSH1 0x1 PUSH1 0xA0 SHL SUB AND SWAP2 PUSH4 0x98D5FDCA SWAP2 PUSH1 0x4 DUP1 DUP4 ADD SWAP3 PUSH1 0x20 SWAP3 SWAP2 SWAP1 DUP3 SWAP1 SUB ADD DUP2 DUP7 GAS STATICCALL ISZERO DUP1 ISZERO PUSH2 0x1230 JUMPI RETURNDATASIZE PUSH0 PUSH0 RETURNDATACOPY RETURNDATASIZE PUSH0 REVERT JUMPDEST POP POP POP POP PUSH1 0x40 MLOAD RETURNDATASIZE PUSH1 0x1F NOT PUSH1 0x1F DUP3 ADD AND DUP3 ADD DUP1 PUSH1 0x40 MSTORE POP DUP2 ADD SWAP1 PUSH2 0x1254 SWAP2 SWAP1 PUSH2 0x1B25 JUMP JUMPDEST GT PUSH2 0x1291 JUMPI PUSH1 0x40 MLOAD PUSH3 0x461BCD PUSH1 0xE5 SHL DUP2 MSTORE PUSH1 0x20 PUSH1 0x4 DUP3 ADD MSTORE PUSH1 0xD PUSH1 0x24 DUP3 ADD MSTORE PUSH13 0x14149250D157D393D517D4D155 PUSH1 0x9A SHL PUSH1 0x44 DUP3 ADD MSTORE PUSH1 0x64 ADD PUSH2 0x4A7 JUMP JUMPDEST PUSH2 0x129A CALLER PUSH2 0x1576 JUMP JUMPDEST CALLER PUSH0 SWAP1 DUP2 MSTORE PUSH1 0x3 PUSH1 0x20 MSTORE PUSH1 0x40 SWAP1 KECCAK256 SLOAD PUSH2 0x12E5 JUMPI PUSH1 0x40 MLOAD PUSH3 0x461BCD PUSH1 0xE5 SHL DUP2 MSTORE PUSH1 0x20 PUSH1 0x4 DUP3 ADD MSTORE PUSH1 0xD PUSH1 0x24 DUP3 ADD MSTORE PUSH13 0x1393D7D0D3D313105511549053 PUSH1 0x9A SHL PUSH1 0x44 DUP3 ADD MSTORE PUSH1 0x64 ADD PUSH2 0x4A7 JUMP JUMPDEST CALLER PUSH0 DUP2 DUP2 MSTORE PUSH1 0x4 PUSH1 0x20 MSTORE PUSH1 0x40 DUP2 KECCAK256 SLOAD SWAP2 PUSH2 0x2710 SWAP1 PUSH2 0x1B58 SWAP1 PUSH2 0x1306 SWAP1 PUSH2 0x18A7 JUMP JUMPDEST PUSH2 0x1310 SWAP2 SWAP1 PUSH2 0x1B50 JUMP JUMPDEST PUSH2 0x131A SWAP2 SWAP1 PUSH2 0x1B67 JUMP JUMPDEST SWAP1 POP PUSH0 PUSH2 0x1327 DUP5 DUP5 PUSH2 0x1BE1 JUMP JUMPDEST SWAP1 POP DUP2 DUP2 GT ISZERO PUSH2 0x136F JUMPI PUSH1 0x40 MLOAD PUSH3 0x461BCD PUSH1 0xE5 SHL DUP2 MSTORE PUSH1 0x20 PUSH1 0x4 DUP3 ADD MSTORE PUSH1 0x13 PUSH1 0x24 DUP3 ADD MSTORE PUSH19 0x13505617D093D49493D5D7D15610D151511151 PUSH1 0x6A SHL PUSH1 0x44 DUP3 ADD MSTORE PUSH1 0x64 ADD PUSH2 0x4A7 JUMP JUMPDEST PUSH0 SLOAD PUSH1 0x40 MLOAD PUSH4 0x70A08231 PUSH1 0xE0 SHL DUP2 MSTORE ADDRESS PUSH1 0x4 DUP3 ADD MSTORE PUSH1 0x1 PUSH1 0x1 PUSH1 0xA0 SHL SUB SWAP1 SWAP2 AND SWAP1 PUSH4 0x70A08231 SWAP1 PUSH1 0x24 ADD PUSH1 0x20 PUSH1 0x40 MLOAD DUP1 DUP4 SUB DUP2 DUP7 GAS STATICCALL ISZERO DUP1 ISZERO PUSH2 0x13B4 JUMPI RETURNDATASIZE PUSH0 PUSH0 RETURNDATACOPY RETURNDATASIZE PUSH0 REVERT JUMPDEST POP POP POP POP PUSH1 0x40 MLOAD RETURNDATASIZE PUSH1 0x1F NOT PUSH1 0x1F DUP3 ADD AND DUP3 ADD DUP1 PUSH1 0x40 MSTORE POP DUP2 ADD SWAP1 PUSH2 0x13D8 SWAP2 SWAP1 PUSH2 0x1B25 JUMP JUMPDEST DUP5 GT ISZERO PUSH2 0x1420 JUMPI PUSH1 0x40 MLOAD PUSH3 0x461BCD PUSH1 0xE5 SHL DUP2 MSTORE PUSH1 0x20 PUSH1 0x4 DUP3 ADD MSTORE PUSH1 0x16 PUSH1 0x24 DUP3 ADD MSTORE PUSH22 0x494E53554646494349454E545F4C4951554944495459 PUSH1 0x50 SHL PUSH1 0x44 DUP3 ADD MSTORE PUSH1 0x64 ADD PUSH2 0x4A7 JUMP JUMPDEST PUSH0 SLOAD PUSH1 0x40 MLOAD PUSH4 0xA9059CBB PUSH1 0xE0 SHL DUP2 MSTORE CALLER PUSH1 0x4 DUP3 ADD MSTORE PUSH1 0x24 DUP2 ADD DUP7 SWAP1 MSTORE PUSH1 0x1 PUSH1 0x1 PUSH1 0xA0 SHL SUB SWAP1 SWAP2 AND SWAP1 PUSH4 0xA9059CBB SWAP1 PUSH1 0x44 ADD PUSH1 0x20 PUSH1 0x40 MLOAD DUP1 DUP4 SUB DUP2 PUSH0 DUP8 GAS CALL ISZERO DUP1 ISZERO PUSH2 0x146D JUMPI RETURNDATASIZE PUSH0 PUSH0 RETURNDATACOPY RETURNDATASIZE PUSH0 REVERT JUMPDEST POP POP POP POP PUSH1 0x40 MLOAD RETURNDATASIZE PUSH1 0x1F NOT PUSH1 0x1F DUP3 ADD AND DUP3 ADD DUP1 PUSH1 0x40 MSTORE POP DUP2 ADD SWAP1 PUSH2 0x1491 SWAP2 SWAP1 PUSH2 0x1B99 JUMP JUMPDEST PUSH2 0x14AD JUMPI PUSH1 0x40 MLOAD PUSH3 0x461BCD PUSH1 0xE5 SHL DUP2 MSTORE PUSH1 0x4 ADD PUSH2 0x4A7 SWAP1 PUSH2 0x1BB8 JUMP JUMPDEST CALLER PUSH0 SWAP1 DUP2 MSTORE PUSH1 0x4 PUSH1 0x20 MSTORE PUSH1 0x40 DUP2 KECCAK256 DUP3 SWAP1 SSTORE PUSH1 0x6 DUP1 SLOAD DUP7 SWAP3 SWAP1 PUSH2 0xCF8 SWAP1 DUP5 SWAP1 PUSH2 0x1BE1 JUMP JUMPDEST PUSH0 PUSH2 0xD16 DUP3 PUSH2 0x1951 JUMP JUMPDEST PUSH0 PUSH2 0xD16 DUP3 PUSH2 0x195B JUMP JUMPDEST PUSH0 PUSH2 0xD16 DUP3 PUSH2 0x19A8 JUMP JUMPDEST PUSH1 0x7 SLOAD PUSH1 0x6 SLOAD PUSH0 DUP1 SLOAD PUSH1 0x40 MLOAD PUSH4 0x70A08231 PUSH1 0xE0 SHL DUP2 MSTORE ADDRESS PUSH1 0x4 DUP3 ADD MSTORE SWAP2 SWAP4 SWAP3 SWAP2 PUSH1 0x1 PUSH1 0x1 PUSH1 0xA0 SHL SUB SWAP1 SWAP2 AND SWAP1 PUSH4 0x70A08231 SWAP1 PUSH1 0x24 ADD PUSH1 0x20 PUSH1 0x40 MLOAD DUP1 DUP4 SUB DUP2 DUP7 GAS STATICCALL ISZERO DUP1 ISZERO PUSH2 0x153E JUMPI RETURNDATASIZE PUSH0 PUSH0 RETURNDATACOPY RETURNDATASIZE PUSH0 REVERT JUMPDEST POP POP POP POP PUSH1 0x40 MLOAD RETURNDATASIZE PUSH1 0x1F NOT PUSH1 0x1F DUP3 ADD AND DUP3 ADD DUP1 PUSH1 0x40 MSTORE POP DUP2 ADD SWAP1 PUSH2 0x1562 SWAP2 SWAP1 PUSH2 0x1B25 JUMP JUMPDEST PUSH2 0x156C SWAP2 SWAP1 PUSH2 0x1BE1 JUMP JUMPDEST PUSH2 0x759 SWAP2 SWAP1 PUSH2 0x1B86 JUMP JUMPDEST PUSH1 0x1 PUSH1 0x1 PUSH1 0xA0 SHL SUB DUP2 AND PUSH0 SWAP1 DUP2 MSTORE PUSH1 0x4 PUSH1 0x20 SWAP1 DUP2 MSTORE PUSH1 0x40 DUP1 DUP4 KECCAK256 SLOAD PUSH1 0x5 SWAP1 SWAP3 MSTORE DUP3 KECCAK256 SLOAD SWAP1 SWAP2 SUB PUSH2 0x15BC JUMPI POP PUSH1 0x1 PUSH1 0x1 PUSH1 0xA0 SHL SUB AND PUSH0 SWAP1 DUP2 MSTORE PUSH1 0x5 PUSH1 0x20 MSTORE PUSH1 0x40 SWAP1 KECCAK256 TIMESTAMP SWAP1 SSTORE JUMP JUMPDEST PUSH1 0x1 PUSH1 0x1 PUSH1 0xA0 SHL SUB DUP3 AND PUSH0 SWAP1 DUP2 MSTORE PUSH1 0x5 PUSH1 0x20 MSTORE PUSH1 0x40 DUP2 KECCAK256 SLOAD PUSH2 0x15DE SWAP1 TIMESTAMP PUSH2 0x1B86 JUMP JUMPDEST SWAP1 POP DUP1 ISZERO DUP1 PUSH2 0x15EB JUMPI POP DUP2 ISZERO JUMPDEST ISZERO PUSH2 0x160D JUMPI POP POP PUSH1 0x1 PUSH1 0x1 PUSH1 0xA0 SHL SUB AND PUSH0 SWAP1 DUP2 MSTORE PUSH1 0x5 PUSH1 0x20 MSTORE PUSH1 0x40 SWAP1 KECCAK256 TIMESTAMP SWAP1 SSTORE JUMP JUMPDEST PUSH0 PUSH2 0x1616 PUSH2 0x171F JUMP JUMPDEST SWAP1 POP PUSH0 PUSH2 0x1622 DUP3 PUSH2 0x174A JUMP JUMPDEST SWAP1 POP PUSH0 PUSH5 0x496CEBB800 DUP5 PUSH2 0x1636 DUP5 DUP9 PUSH2 0x1B50 JUMP JUMPDEST PUSH2 0x1640 SWAP2 SWAP1 PUSH2 0x1B50 JUMP JUMPDEST PUSH2 0x164A SWAP2 SWAP1 PUSH2 0x1B67 JUMP JUMPDEST SWAP1 POP DUP1 PUSH0 SUB PUSH2 0x1675 JUMPI POP POP POP PUSH1 0x1 PUSH1 0x1 PUSH1 0xA0 SHL SUB SWAP1 SWAP3 AND PUSH0 SWAP1 DUP2 MSTORE PUSH1 0x5 PUSH1 0x20 MSTORE PUSH1 0x40 SWAP1 KECCAK256 TIMESTAMP SWAP1 SSTORE POP POP JUMP JUMPDEST PUSH0 PUSH2 0x2710 PUSH2 0x1685 PUSH2 0x3E8 DUP5 PUSH2 0x1B50 JUMP JUMPDEST PUSH2 0x168F SWAP2 SWAP1 PUSH2 0x1B67 JUMP JUMPDEST SWAP1 POP PUSH2 0x169B DUP3 DUP8 PUSH2 0x1BE1 JUMP JUMPDEST PUSH1 0x1 PUSH1 0x1 PUSH1 0xA0 SHL SUB DUP9 AND PUSH0 SWAP1 DUP2 MSTORE PUSH1 0x4 PUSH1 0x20 MSTORE PUSH1 0x40 DUP2 KECCAK256 SWAP2 SWAP1 SWAP2 SSTORE PUSH1 0x6 DUP1 SLOAD DUP5 SWAP3 SWAP1 PUSH2 0x16C8 SWAP1 DUP5 SWAP1 PUSH2 0x1BE1 JUMP JUMPDEST SWAP3 POP POP DUP2 SWAP1 SSTORE POP DUP1 PUSH1 0x7 PUSH0 DUP3 DUP3 SLOAD PUSH2 0x16E0 SWAP2 SWAP1 PUSH2 0x1BE1 JUMP JUMPDEST SWAP1 SWAP2 SSTORE POP POP POP PUSH1 0x1 PUSH1 0x1 PUSH1 0xA0 SHL SUB SWAP1 SWAP6 AND PUSH0 SWAP1 DUP2 MSTORE PUSH1 0x5 PUSH1 0x20 MSTORE PUSH1 0x40 SWAP1 KECCAK256 TIMESTAMP SWAP1 SSTORE POP POP POP POP POP JUMP JUMPDEST PUSH0 DUP2 DUP4 LT PUSH2 0x1716 JUMPI DUP2 PUSH2 0x1718 JUMP JUMPDEST DUP3 JUMPDEST SWAP4 SWAP3 POP POP POP JUMP JUMPDEST PUSH0 PUSH1 0x8 SLOAD PUSH0 SUB PUSH2 0x172E JUMPI POP PUSH0 SWAP1 JUMP JUMPDEST PUSH1 0x8 SLOAD PUSH1 0x6 SLOAD PUSH2 0x1740 SWAP1 PUSH2 0x2710 PUSH2 0x1B50 JUMP JUMPDEST PUSH2 0x759 SWAP2 SWAP1 PUSH2 0x1B67 JUMP JUMPDEST PUSH0 PUSH2 0x1F40 DUP3 GT PUSH2 0x1778 JUMPI PUSH2 0x1F40 PUSH2 0x1763 PUSH2 0x3E8 DUP5 PUSH2 0x1B50 JUMP JUMPDEST PUSH2 0x176D SWAP2 SWAP1 PUSH2 0x1B67 JUMP JUMPDEST PUSH2 0xD16 SWAP1 PUSH1 0xC8 PUSH2 0x1BE1 JUMP JUMPDEST PUSH0 PUSH2 0x1785 PUSH2 0x1F40 DUP5 PUSH2 0x1B86 JUMP JUMPDEST SWAP1 POP PUSH2 0x1795 PUSH2 0x1F40 PUSH2 0x2710 PUSH2 0x1B86 JUMP JUMPDEST PUSH2 0x17A1 PUSH2 0xFA0 DUP4 PUSH2 0x1B50 JUMP JUMPDEST PUSH2 0x17AB SWAP2 SWAP1 PUSH2 0x1B67 JUMP JUMPDEST PUSH2 0x17B8 PUSH2 0x3E8 PUSH1 0xC8 PUSH2 0x1BE1 JUMP JUMPDEST PUSH2 0x1718 SWAP2 SWAP1 PUSH2 0x1BE1 JUMP JUMPDEST SWAP2 SWAP1 POP JUMP JUMPDEST PUSH0 DUP2 PUSH0 SUB PUSH2 0x17D7 JUMPI POP PUSH0 NOT PUSH2 0xD16 JUMP JUMPDEST PUSH0 PUSH8 0xDE0B6B3A7640000 PUSH1 0x1 PUSH0 SWAP1 SLOAD SWAP1 PUSH2 0x100 EXP SWAP1 DIV PUSH1 0x1 PUSH1 0x1 PUSH1 0xA0 SHL SUB AND PUSH1 0x1 PUSH1 0x1 PUSH1 0xA0 SHL SUB AND PUSH4 0x98D5FDCA PUSH1 0x40 MLOAD DUP2 PUSH4 0xFFFFFFFF AND PUSH1 0xE0 SHL DUP2 MSTORE PUSH1 0x4 ADD PUSH1 0x20 PUSH1 0x40 MLOAD DUP1 DUP4 SUB DUP2 DUP7 GAS STATICCALL ISZERO DUP1 ISZERO PUSH2 0x1831 JUMPI RETURNDATASIZE PUSH0 PUSH0 RETURNDATACOPY RETURNDATASIZE PUSH0 REVERT JUMPDEST POP POP POP POP PUSH1 0x40 MLOAD RETURNDATASIZE PUSH1 0x1F NOT PUSH1 0x1F DUP3 ADD AND DUP3 ADD DUP1 PUSH1 0x40 MSTORE POP DUP2 ADD SWAP1 PUSH2 0x1855 SWAP2 SWAP1 PUSH2 0x1B25 JUMP JUMPDEST PUSH2 0x185F SWAP1 DUP7 PUSH2 0x1B50 JUMP JUMPDEST PUSH2 0x1869 SWAP2 SWAP1 PUSH2 0x1B67 JUMP JUMPDEST SWAP1 POP PUSH2 0x1877 DUP4 PUSH2 0x2710 PUSH2 0x1B50 JUMP JUMPDEST PUSH2 0x1883 PUSH2 0x1F40 DUP4 PUSH2 0x1B50 JUMP JUMPDEST PUSH2 0x1895 SWAP1 PUSH8 0xDE0B6B3A7640000 PUSH2 0x1B50 JUMP JUMPDEST PUSH2 0x189F SWAP2 SWAP1 PUSH2 0x1B67 JUMP JUMPDEST SWAP5 SWAP4 POP POP POP POP JUMP JUMPDEST PUSH0 PUSH8 0xDE0B6B3A7640000 PUSH1 0x1 PUSH0 SWAP1 SLOAD SWAP1 PUSH2 0x100 EXP SWAP1 DIV PUSH1 0x1 PUSH1 0x1 PUSH1 0xA0 SHL SUB AND PUSH1 0x1 PUSH1 0x1 PUSH1 0xA0 SHL SUB AND PUSH4 0x98D5FDCA PUSH1 0x40 MLOAD DUP2 PUSH4 0xFFFFFFFF AND PUSH1 0xE0 SHL DUP2 MSTORE PUSH1 0x4 ADD PUSH1 0x20 PUSH1 0x40 MLOAD DUP1 DUP4 SUB DUP2 DUP7 GAS STATICCALL ISZERO DUP1 ISZERO PUSH2 0x1901 JUMPI RETURNDATASIZE PUSH0 PUSH0 RETURNDATACOPY RETURNDATASIZE PUSH0 REVERT JUMPDEST POP POP POP POP PUSH1 0x40 MLOAD RETURNDATASIZE PUSH1 0x1F NOT PUSH1 0x1F DUP3 ADD AND DUP3 ADD DUP1 PUSH1 0x40 MSTORE POP DUP2 ADD SWAP1 PUSH2 0x1925 SWAP2 SWAP1 PUSH2 0x1B25 JUMP JUMPDEST PUSH1 0x1 PUSH1 0x1 PUSH1 0xA0 SHL SUB DUP5 AND PUSH0 SWAP1 DUP2 MSTORE PUSH1 0x3 PUSH1 0x20 MSTORE PUSH1 0x40 SWAP1 KECCAK256 SLOAD PUSH2 0x1947 SWAP2 SWAP1 PUSH2 0x1B50 JUMP JUMPDEST PUSH2 0xD16 SWAP2 SWAP1 PUSH2 0x1B67 JUMP JUMPDEST PUSH0 PUSH2 0xD16 DUP3 PUSH2 0x19D2 JUMP JUMPDEST PUSH0 PUSH0 PUSH2 0x2710 PUSH2 0x1B58 PUSH2 0x196C DUP6 PUSH2 0x18A7 JUMP JUMPDEST PUSH2 0x1976 SWAP2 SWAP1 PUSH2 0x1B50 JUMP JUMPDEST PUSH2 0x1980 SWAP2 SWAP1 PUSH2 0x1B67 JUMP JUMPDEST SWAP1 POP PUSH0 PUSH2 0x198C DUP5 PUSH2 0x1951 JUMP JUMPDEST SWAP1 POP DUP1 DUP3 GT PUSH2 0x199E JUMPI POP PUSH0 SWAP4 SWAP3 POP POP POP JUMP JUMPDEST PUSH2 0x189F DUP2 DUP4 PUSH2 0x1B86 JUMP JUMPDEST PUSH1 0x1 PUSH1 0x1 PUSH1 0xA0 SHL SUB DUP2 AND PUSH0 SWAP1 DUP2 MSTORE PUSH1 0x3 PUSH1 0x20 MSTORE PUSH1 0x40 DUP2 KECCAK256 SLOAD PUSH2 0xD16 SWAP1 PUSH2 0x19CD DUP5 PUSH2 0x1951 JUMP JUMPDEST PUSH2 0x17C7 JUMP JUMPDEST PUSH1 0x1 PUSH1 0x1 PUSH1 0xA0 SHL SUB DUP2 AND PUSH0 SWAP1 DUP2 MSTORE PUSH1 0x4 PUSH1 0x20 SWAP1 DUP2 MSTORE PUSH1 0x40 DUP1 DUP4 KECCAK256 SLOAD PUSH1 0x5 SWAP1 SWAP3 MSTORE DUP3 KECCAK256 SLOAD DUP3 SUB PUSH2 0x1A03 JUMPI POP PUSH0 SWAP3 SWAP2 POP POP JUMP JUMPDEST PUSH1 0x1 PUSH1 0x1 PUSH1 0xA0 SHL SUB DUP4 AND PUSH0 SWAP1 DUP2 MSTORE PUSH1 0x5 PUSH1 0x20 MSTORE PUSH1 0x40 DUP2 KECCAK256 SLOAD PUSH2 0x1A25 SWAP1 TIMESTAMP PUSH2 0x1B86 JUMP JUMPDEST SWAP1 POP DUP1 ISZERO DUP1 PUSH2 0x1A32 JUMPI POP DUP2 ISZERO JUMPDEST ISZERO PUSH2 0x1A3E JUMPI POP SWAP3 SWAP2 POP POP JUMP JUMPDEST PUSH0 PUSH2 0x1A47 PUSH2 0x171F JUMP JUMPDEST SWAP1 POP PUSH0 PUSH2 0x1A53 DUP3 PUSH2 0x174A JUMP JUMPDEST SWAP1 POP PUSH0 PUSH5 0x496CEBB800 DUP5 PUSH2 0x1A67 DUP5 DUP9 PUSH2 0x1B50 JUMP JUMPDEST PUSH2 0x1A71 SWAP2 SWAP1 PUSH2 0x1B50 JUMP JUMPDEST PUSH2 0x1A7B SWAP2 SWAP1 PUSH2 0x1B67 JUMP JUMPDEST SWAP1 POP PUSH2 0x1A87 DUP2 DUP7 PUSH2 0x1BE1 JUMP JUMPDEST SWAP8 SWAP7 POP POP POP POP POP POP POP JUMP JUMPDEST PUSH0 PUSH1 0x20 DUP3 DUP5 SUB SLT ISZERO PUSH2 0x1AA2 JUMPI PUSH0 PUSH0 REVERT JUMPDEST POP CALLDATALOAD SWAP2 SWAP1 POP JUMP JUMPDEST DUP1 CALLDATALOAD PUSH1 0x1 PUSH1 0x1 PUSH1 0xA0 SHL SUB DUP2 AND DUP2 EQ PUSH2 0x17C2 JUMPI PUSH0 PUSH0 REVERT JUMPDEST PUSH0 PUSH1 0x20 DUP3 DUP5 SUB SLT ISZERO PUSH2 0x1ACF JUMPI PUSH0 PUSH0 REVERT JUMPDEST PUSH2 0x1718 DUP3 PUSH2 0x1AA9 JUMP JUMPDEST PUSH0 PUSH0 PUSH1 0x40 DUP4 DUP6 SUB SLT ISZERO PUSH2 0x1AE9 JUMPI PUSH0 PUSH0 REVERT JUMPDEST PUSH2 0x1AF2 DUP4 PUSH2 0x1AA9 JUMP JUMPDEST SWAP5 PUSH1 0x20 SWAP4 SWAP1 SWAP4 ADD CALLDATALOAD SWAP4 POP POP POP JUMP JUMPDEST PUSH1 0x20 DUP1 DUP3 MSTORE PUSH1 0xB SWAP1 DUP3 ADD MSTORE PUSH11 0x16915493D7D05353D55395 PUSH1 0xAA SHL PUSH1 0x40 DUP3 ADD MSTORE PUSH1 0x60 ADD SWAP1 JUMP JUMPDEST PUSH0 PUSH1 0x20 DUP3 DUP5 SUB SLT ISZERO PUSH2 0x1B35 JUMPI PUSH0 PUSH0 REVERT JUMPDEST POP MLOAD SWAP2 SWAP1 POP JUMP JUMPDEST PUSH4 0x4E487B71 PUSH1 0xE0 SHL PUSH0 MSTORE PUSH1 0x11 PUSH1 0x4 MSTORE PUSH1 0x24 PUSH0 REVERT JUMPDEST DUP1 DUP3 MUL DUP2 ISZERO DUP3 DUP3 DIV DUP5 EQ OR PUSH2 0xD16 JUMPI PUSH2 0xD16 PUSH2 0x1B3C JUMP JUMPDEST PUSH0 DUP3 PUSH2 0x1B81 JUMPI PUSH4 0x4E487B71 PUSH1 0xE0 SHL PUSH0 MSTORE PUSH1 0x12 PUSH1 0x4 MSTORE PUSH1 0x24 PUSH0 REVERT JUMPDEST POP DIV SWAP1 JUMP JUMPDEST DUP2 DUP2 SUB DUP2 DUP2 GT ISZERO PUSH2 0xD16 JUMPI PUSH2 0xD16 PUSH2 0x1B3C JUMP JUMPDEST PUSH0 PUSH1 0x20 DUP3 DUP5 SUB SLT ISZERO PUSH2 0x1BA9 JUMPI PUSH0 PUSH0 REVERT JUMPDEST DUP2 MLOAD DUP1 ISZERO ISZERO DUP2 EQ PUSH2 0x1718 JUMPI PUSH0 PUSH0 REVERT JUMPDEST PUSH1 0x20 DUP1 DUP3 MSTORE PUSH1 0xF SWAP1 DUP3 ADD MSTORE PUSH15 0x1514905394D1915497D19052531151 PUSH1 0x8A SHL PUSH1 0x40 DUP3 ADD MSTORE PUSH1 0x60 ADD SWAP1 JUMP JUMPDEST DUP1 DUP3 ADD DUP1 DUP3 GT ISZERO PUSH2 0xD16 JUMPI PUSH2 0xD16 PUSH2 0x1B3C JUMP INVALID LOG2 PUSH5 0x6970667358 0x22 SLT KECCAK256 DUP14 KECCAK256 0xD7 SWAP5 MSTORE8 NUMBER PUSH8 0x3168015A9E30AC9C 0xC 0xF8 SWAP13 EQ 0x4B 0xB5 SELFBALANCE ISZERO 0xE5 SWAP1 CODESIZE 0xEF ADDMOD 0xEC SWAP2 SSTORE SWAP5 PUSH5 0x736F6C6343 STOP ADDMOD SHR STOP CALLER "},"methodIdentifiers":{"borrow(uint256)":"c5ebeaec","collateralETH(address)":"6ad3d82b","debtUSDT(address)":"99b49130","depositCollateral()":"6f758140","depositLiquidity(uint256)":"76d58e1a","frToken()":"a5310e7d","getAvailableLiquidity()":"9b745aec","getBorrowAPY()":"503d37ea","getCollateralValue(address)":"97904e42","getDebtValue(address)":"ebf5a908","getHealthFactor(address)":"fe6bcd7c","getMaxBorrow(address)":"fd1c317a","getPoolValue()":"1ba2f531","getSupplyAPY()":"9f560dd5","getTotalSupplied()":"d9de24d7","getUtilization()":"7eb71131","lastAccrualTimestamp(address)":"16851b36","liquidate(address,uint256)":"bcbaf487","oracle()":"7dc0d1d0","repay(uint256)":"371fd8e6","totalBorrowedUSDT()":"bbe413f2","totalReservesUSDT()":"62ac48f3","totalSuppliedUSDT()":"f0a7fad8","usdt()":"2f48ab7d","withdrawCollateral(uint256)":"6112fe2e","withdrawLiquidity(uint256)":"0a861f2a"}}}}}