{"project/contracts/LendingPool.sol":{"LendingPool":{"abi":[{"inputs":[{"internalType":"address","name":"usdt_","type":"address"},{"internalType":"address","name":"oracle_","type":"address"},{"internalType":"address","name":"frToken_","type":"address"}],"stateMutability":"nonpayable","type":"constructor"},{"inputs":[],"name":"availableLiquidity","outputs":[{"internalType":"uint256","name":"","type":"uint256"}],"stateMutability":"view","type":"function"},{"inputs":[{"internalType":"uint256","name":"borrowAmount","type":"uint256"}],"name":"borrow","outputs":[],"stateMutability":"nonpayable","type":"function"},{"inputs":[],"name":"borrowAPY","outputs":[{"internalType":"uint256","name":"","type":"uint256"}],"stateMutability":"view","type":"function"},{"inputs":[{"internalType":"address","name":"","type":"address"}],"name":"collateralETH","outputs":[{"internalType":"uint256","name":"","type":"uint256"}],"stateMutability":"view","type":"function"},{"inputs":[{"internalType":"address","name":"borrower","type":"address"}],"name":"collateralValue","outputs":[{"internalType":"uint256","name":"","type":"uint256"}],"stateMutability":"view","type":"function"},{"inputs":[{"internalType":"address","name":"","type":"address"}],"name":"debtUSDT","outputs":[{"internalType":"uint256","name":"","type":"uint256"}],"stateMutability":"view","type":"function"},{"inputs":[{"internalType":"address","name":"borrower","type":"address"}],"name":"debtValue","outputs":[{"internalType":"uint256","name":"","type":"uint256"}],"stateMutability":"view","type":"function"},{"inputs":[],"name":"depositCollateral","outputs":[],"stateMutability":"payable","type":"function"},{"inputs":[{"internalType":"uint256","name":"amount","type":"uint256"}],"name":"depositLiquidity","outputs":[],"stateMutability":"nonpayable","type":"function"},{"inputs":[],"name":"frToken","outputs":[{"internalType":"contract IFRTokenLike","name":"","type":"address"}],"stateMutability":"view","type":"function"},{"inputs":[],"name":"getAvailableLiquidity","outputs":[{"internalType":"uint256","name":"","type":"uint256"}],"stateMutability":"view","type":"function"},{"inputs":[{"internalType":"address","name":"borrower","type":"address"}],"name":"healthFactor","outputs":[{"internalType":"uint256","name":"","type":"uint256"}],"stateMutability":"view","type":"function"},{"inputs":[{"internalType":"address","name":"","type":"address"}],"name":"lastAccrualTimestamp","outputs":[{"internalType":"uint256","name":"","type":"uint256"}],"stateMutability":"view","type":"function"},{"inputs":[{"internalType":"address","name":"borrower","type":"address"},{"internalType":"uint256","name":"repayAmount","type":"uint256"}],"name":"liquidate","outputs":[],"stateMutability":"nonpayable","type":"function"},{"inputs":[{"internalType":"address","name":"borrower","type":"address"}],"name":"maxBorrow","outputs":[{"internalType":"uint256","name":"","type":"uint256"}],"stateMutability":"view","type":"function"},{"inputs":[],"name":"oracle","outputs":[{"internalType":"contract IPriceOracleLike","name":"","type":"address"}],"stateMutability":"view","type":"function"},{"inputs":[{"internalType":"uint256","name":"repayAmount","type":"uint256"}],"name":"repay","outputs":[],"stateMutability":"nonpayable","type":"function"},{"inputs":[],"name":"supplyAPY","outputs":[{"internalType":"uint256","name":"","type":"uint256"}],"stateMutability":"view","type":"function"},{"inputs":[],"name":"totalBorrowedUSDT","outputs":[{"internalType":"uint256","name":"","type":"uint256"}],"stateMutability":"view","type":"function"},{"inputs":[],"name":"totalReservesUSDT","outputs":[{"internalType":"uint256","name":"","type":"uint256"}],"stateMutability":"view","type":"function"},{"inputs":[],"name":"usdt","outputs":[{"internalType":"contract IERC20Like","name":"","type":"address"}],"stateMutability":"view","type":"function"},{"inputs":[],"name":"utilization","outputs":[{"internalType":"uint256","name":"","type":"uint256"}],"stateMutability":"view","type":"function"},{"inputs":[{"internalType":"uint256","name":"collateralAmount","type":"uint256"}],"name":"withdrawCollateral","outputs":[],"stateMutability":"nonpayable","type":"function"},{"inputs":[{"internalType":"uint256","name":"frAmount","type":"uint256"}],"name":"withdrawLiquidity","outputs":[],"stateMutability":"nonpayable","type":"function"}],"evm":{"bytecode":{"linkReferences":{},"object":"6080604052348015600e575f5ffd5b50604051610561380380610561833981016040819052602b916085565b5f80546001600160a01b039485166001600160a01b03199182161790915560018054938516938216939093179092556002805491909316911617905560be565b80516001600160a01b03811681146080575f5ffd5b919050565b5f5f5f606084860312156096575f5ffd5b609d84606b565b925060a960208501606b565b915060b560408501606b565b90509250925092565b610496806100cb5f395ff3fe608060405260043610610147575f3560e01c806376d58e1a116100b3578063b9637e491161006d578063b9637e4914610232578063bbe413f2146102ea578063bcbaf487146102ff578063c5ebeaec1461014b578063cabca643146101e0578063ea21cd92146101e0575f5ffd5b806376d58e1a1461014b5780637dc0d1d01461026d57806397a9d4571461023257806399b491301461028c5780639b745aec146102b7578063a5310e7d146102cb575f5ffd5b806362ac48f31161010457806362ac48f3146101f25780636ad3d82b146102075780636ad9f9df146102325780636f7581401461025157806374375359146102595780637544aa4414610232575f5ffd5b80630a861f2a1461014b57806316851b361461016c5780632f48ab7d146101aa578063371fd8e61461014b5780635733d948146101e05780636112fe2e1461014b575b5f5ffd5b348015610156575f5ffd5b5061016a6101653660046103cf565b610319565b005b348015610177575f5ffd5b50610197610186366004610401565b60056020525f908152604090205481565b6040519081526020015b60405180910390f35b3480156101b5575f5ffd5b505f546101c8906001600160a01b031681565b6040516001600160a01b0390911681526020016101a1565b3480156101eb575f5ffd5b505f610197565b3480156101fd575f5ffd5b5061019760075481565b348015610212575f5ffd5b50610197610221366004610401565b60036020525f908152604090205481565b34801561023d575f5ffd5b5061019761024c366004610401565b505f90565b61016a610319565b348015610264575f5ffd5b50610197610357565b348015610278575f5ffd5b506001546101c8906001600160a01b031681565b348015610297575f5ffd5b506101976102a6366004610401565b60046020525f908152604090205481565b3480156102c2575f5ffd5b50610197610365565b3480156102d6575f5ffd5b506002546101c8906001600160a01b031681565b3480156102f5575f5ffd5b5061019760065481565b34801561030a575f5ffd5b5061016a610165366004610421565b60405162461bcd60e51b815260206004820152600f60248201526e1393d517d253541311535153951151608a1b604482015260640160405180910390fd5b5f610360610365565b905090565b5f80546040516370a0823160e01b81523060048201526001600160a01b03909116906370a0823190602401602060405180830381865afa1580156103ab573d5f5f3e3d5ffd5b505050506040513d601f19601f820116820180604052508101906103609190610449565b5f602082840312156103df575f5ffd5b5035919050565b80356001600160a01b03811681146103fc575f5ffd5b919050565b5f60208284031215610411575f5ffd5b61041a826103e6565b9392505050565b5f5f60408385031215610432575f5ffd5b61043b836103e6565b946020939093013593505050565b5f60208284031215610459575f5ffd5b505191905056fea264697066735822122068ec7671ed404c1dca4c0cd9ebf98c68ee582fe6632f4b20dd58c001f990b57564736f6c634300081c0033","opcodes":"PUSH1 0x80 PUSH1 0x40 MSTORE CALLVALUE DUP1 ISZERO PUSH1 0xE JUMPI PUSH0 PUSH0 REVERT JUMPDEST POP PUSH1 0x40 MLOAD PUSH2 0x561 CODESIZE SUB DUP1 PUSH2 0x561 DUP4 CODECOPY DUP2 ADD PUSH1 0x40 DUP2 SWAP1 MSTORE PUSH1 0x2B SWAP2 PUSH1 0x85 JUMP JUMPDEST PUSH0 DUP1 SLOAD PUSH1 0x1 PUSH1 0x1 PUSH1 0xA0 SHL SUB SWAP5 DUP6 AND PUSH1 0x1 PUSH1 0x1 PUSH1 0xA0 SHL SUB NOT SWAP2 DUP3 AND OR SWAP1 SWAP2 SSTORE PUSH1 0x1 DUP1 SLOAD SWAP4 DUP6 AND SWAP4 DUP3 AND SWAP4 SWAP1 SWAP4 OR SWAP1 SWAP3 SSTORE PUSH1 0x2 DUP1 SLOAD SWAP2 SWAP1 SWAP4 AND SWAP2 AND OR SWAP1 SSTORE PUSH1 0xBE JUMP JUMPDEST DUP1 MLOAD PUSH1 0x1 PUSH1 0x1 PUSH1 0xA0 SHL SUB DUP2 AND DUP2 EQ PUSH1 0x80 JUMPI PUSH0 PUSH0 REVERT JUMPDEST SWAP2 SWAP1 POP JUMP JUMPDEST PUSH0 PUSH0 PUSH0 PUSH1 0x60 DUP5 DUP7 SUB SLT ISZERO PUSH1 0x96 JUMPI PUSH0 PUSH0 REVERT JUMPDEST PUSH1 0x9D DUP5 PUSH1 0x6B JUMP JUMPDEST SWAP3 POP PUSH1 0xA9 PUSH1 0x20 DUP6 ADD PUSH1 0x6B JUMP JUMPDEST SWAP2 POP PUSH1 0xB5 PUSH1 0x40 DUP6 ADD PUSH1 0x6B JUMP JUMPDEST SWAP1 POP SWAP3 POP SWAP3 POP SWAP3 JUMP JUMPDEST PUSH2 0x496 DUP1 PUSH2 0xCB PUSH0 CODECOPY PUSH0 RETURN INVALID PUSH1 0x80 PUSH1 0x40 MSTORE PUSH1 0x4 CALLDATASIZE LT PUSH2 0x147 JUMPI PUSH0 CALLDATALOAD PUSH1 0xE0 SHR DUP1 PUSH4 0x76D58E1A GT PUSH2 0xB3 JUMPI DUP1 PUSH4 0xB9637E49 GT PUSH2 0x6D JUMPI DUP1 PUSH4 0xB9637E49 EQ PUSH2 0x232 JUMPI DUP1 PUSH4 0xBBE413F2 EQ PUSH2 0x2EA JUMPI DUP1 PUSH4 0xBCBAF487 EQ PUSH2 0x2FF JUMPI DUP1 PUSH4 0xC5EBEAEC EQ PUSH2 0x14B JUMPI DUP1 PUSH4 0xCABCA643 EQ PUSH2 0x1E0 JUMPI DUP1 PUSH4 0xEA21CD92 EQ PUSH2 0x1E0 JUMPI PUSH0 PUSH0 REVERT JUMPDEST DUP1 PUSH4 0x76D58E1A EQ PUSH2 0x14B JUMPI DUP1 PUSH4 0x7DC0D1D0 EQ PUSH2 0x26D JUMPI DUP1 PUSH4 0x97A9D457 EQ PUSH2 0x232 JUMPI DUP1 PUSH4 0x99B49130 EQ PUSH2 0x28C JUMPI DUP1 PUSH4 0x9B745AEC EQ PUSH2 0x2B7 JUMPI DUP1 PUSH4 0xA5310E7D EQ PUSH2 0x2CB JUMPI PUSH0 PUSH0 REVERT JUMPDEST DUP1 PUSH4 0x62AC48F3 GT PUSH2 0x104 JUMPI DUP1 PUSH4 0x62AC48F3 EQ PUSH2 0x1F2 JUMPI DUP1 PUSH4 0x6AD3D82B EQ PUSH2 0x207 JUMPI DUP1 PUSH4 0x6AD9F9DF EQ PUSH2 0x232 JUMPI DUP1 PUSH4 0x6F758140 EQ PUSH2 0x251 JUMPI DUP1 PUSH4 0x74375359 EQ PUSH2 0x259 JUMPI DUP1 PUSH4 0x7544AA44 EQ PUSH2 0x232 JUMPI PUSH0 PUSH0 REVERT JUMPDEST DUP1 PUSH4 0xA861F2A EQ PUSH2 0x14B JUMPI DUP1 PUSH4 0x16851B36 EQ PUSH2 0x16C JUMPI DUP1 PUSH4 0x2F48AB7D EQ PUSH2 0x1AA JUMPI DUP1 PUSH4 0x371FD8E6 EQ PUSH2 0x14B JUMPI DUP1 PUSH4 0x5733D948 EQ PUSH2 0x1E0 JUMPI DUP1 PUSH4 0x6112FE2E EQ PUSH2 0x14B JUMPI JUMPDEST PUSH0 PUSH0 REVERT JUMPDEST CALLVALUE DUP1 ISZERO PUSH2 0x156 JUMPI PUSH0 PUSH0 REVERT JUMPDEST POP PUSH2 0x16A PUSH2 0x165 CALLDATASIZE PUSH1 0x4 PUSH2 0x3CF JUMP JUMPDEST PUSH2 0x319 JUMP JUMPDEST STOP JUMPDEST CALLVALUE DUP1 ISZERO PUSH2 0x177 JUMPI PUSH0 PUSH0 REVERT JUMPDEST POP PUSH2 0x197 PUSH2 0x186 CALLDATASIZE PUSH1 0x4 PUSH2 0x401 JUMP JUMPDEST PUSH1 0x5 PUSH1 0x20 MSTORE PUSH0 SWAP1 DUP2 MSTORE PUSH1 0x40 SWAP1 KECCAK256 SLOAD DUP2 JUMP JUMPDEST PUSH1 0x40 MLOAD SWAP1 DUP2 MSTORE PUSH1 0x20 ADD JUMPDEST PUSH1 0x40 MLOAD DUP1 SWAP2 SUB SWAP1 RETURN JUMPDEST CALLVALUE DUP1 ISZERO PUSH2 0x1B5 JUMPI PUSH0 PUSH0 REVERT JUMPDEST POP PUSH0 SLOAD PUSH2 0x1C8 SWAP1 PUSH1 0x1 PUSH1 0x1 PUSH1 0xA0 SHL SUB AND DUP2 JUMP JUMPDEST PUSH1 0x40 MLOAD PUSH1 0x1 PUSH1 0x1 PUSH1 0xA0 SHL SUB SWAP1 SWAP2 AND DUP2 MSTORE PUSH1 0x20 ADD PUSH2 0x1A1 JUMP JUMPDEST CALLVALUE DUP1 ISZERO PUSH2 0x1EB JUMPI PUSH0 PUSH0 REVERT JUMPDEST POP PUSH0 PUSH2 0x197 JUMP JUMPDEST CALLVALUE DUP1 ISZERO PUSH2 0x1FD JUMPI PUSH0 PUSH0 REVERT JUMPDEST POP PUSH2 0x197 PUSH1 0x7 SLOAD DUP2 JUMP JUMPDEST CALLVALUE DUP1 ISZERO PUSH2 0x212 JUMPI PUSH0 PUSH0 REVERT JUMPDEST POP PUSH2 0x197 PUSH2 0x221 CALLDATASIZE PUSH1 0x4 PUSH2 0x401 JUMP JUMPDEST PUSH1 0x3 PUSH1 0x20 MSTORE PUSH0 SWAP1 DUP2 MSTORE PUSH1 0x40 SWAP1 KECCAK256 SLOAD DUP2 JUMP JUMPDEST CALLVALUE DUP1 ISZERO PUSH2 0x23D JUMPI PUSH0 PUSH0 REVERT JUMPDEST POP PUSH2 0x197 PUSH2 0x24C CALLDATASIZE PUSH1 0x4 PUSH2 0x401 JUMP JUMPDEST POP PUSH0 SWAP1 JUMP JUMPDEST PUSH2 0x16A PUSH2 0x319 JUMP JUMPDEST CALLVALUE DUP1 ISZERO PUSH2 0x264 JUMPI PUSH0 PUSH0 REVERT JUMPDEST POP PUSH2 0x197 PUSH2 0x357 JUMP JUMPDEST CALLVALUE DUP1 ISZERO PUSH2 0x278 JUMPI PUSH0 PUSH0 REVERT JUMPDEST POP PUSH1 0x1 SLOAD PUSH2 0x1C8 SWAP1 PUSH1 0x1 PUSH1 0x1 PUSH1 0xA0 SHL SUB AND DUP2 JUMP JUMPDEST CALLVALUE DUP1 ISZERO PUSH2 0x297 JUMPI PUSH0 PUSH0 REVERT JUMPDEST POP PUSH2 0x197 PUSH2 0x2A6 CALLDATASIZE PUSH1 0x4 PUSH2 0x401 JUMP JUMPDEST PUSH1 0x4 PUSH1 0x20 MSTORE PUSH0 SWAP1 DUP2 MSTORE PUSH1 0x40 SWAP1 KECCAK256 SLOAD DUP2 JUMP JUMPDEST CALLVALUE DUP1 ISZERO PUSH2 0x2C2 JUMPI PUSH0 PUSH0 REVERT JUMPDEST POP PUSH2 0x197 PUSH2 0x365 JUMP JUMPDEST CALLVALUE DUP1 ISZERO PUSH2 0x2D6 JUMPI PUSH0 PUSH0 REVERT JUMPDEST POP PUSH1 0x2 SLOAD PUSH2 0x1C8 SWAP1 PUSH1 0x1 PUSH1 0x1 PUSH1 0xA0 SHL SUB AND DUP2 JUMP JUMPDEST CALLVALUE DUP1 ISZERO PUSH2 0x2F5 JUMPI PUSH0 PUSH0 REVERT JUMPDEST POP PUSH2 0x197 PUSH1 0x6 SLOAD DUP2 JUMP JUMPDEST CALLVALUE DUP1 ISZERO PUSH2 0x30A JUMPI PUSH0 PUSH0 REVERT JUMPDEST POP PUSH2 0x16A PUSH2 0x165 CALLDATASIZE PUSH1 0x4 PUSH2 0x421 JUMP JUMPDEST PUSH1 0x40 MLOAD PUSH3 0x461BCD PUSH1 0xE5 SHL DUP2 MSTORE PUSH1 0x20 PUSH1 0x4 DUP3 ADD MSTORE PUSH1 0xF PUSH1 0x24 DUP3 ADD MSTORE PUSH15 0x1393D517D253541311535153951151 PUSH1 0x8A SHL PUSH1 0x44 DUP3 ADD MSTORE PUSH1 0x64 ADD PUSH1 0x40 MLOAD DUP1 SWAP2 SUB SWAP1 REVERT JUMPDEST PUSH0 PUSH2 0x360 PUSH2 0x365 JUMP JUMPDEST SWAP1 POP SWAP1 JUMP JUMPDEST PUSH0 DUP1 SLOAD PUSH1 0x40 MLOAD PUSH4 0x70A08231 PUSH1 0xE0 SHL DUP2 MSTORE ADDRESS PUSH1 0x4 DUP3 ADD MSTORE PUSH1 0x1 PUSH1 0x1 PUSH1 0xA0 SHL SUB SWAP1 SWAP2 AND SWAP1 PUSH4 0x70A08231 SWAP1 PUSH1 0x24 ADD PUSH1 0x20 PUSH1 0x40 MLOAD DUP1 DUP4 SUB DUP2 DUP7 GAS STATICCALL ISZERO DUP1 ISZERO PUSH2 0x3AB JUMPI RETURNDATASIZE PUSH0 PUSH0 RETURNDATACOPY RETURNDATASIZE PUSH0 REVERT JUMPDEST POP POP POP POP PUSH1 0x40 MLOAD RETURNDATASIZE PUSH1 0x1F NOT PUSH1 0x1F DUP3 ADD AND DUP3 ADD DUP1 PUSH1 0x40 MSTORE POP DUP2 ADD SWAP1 PUSH2 0x360 SWAP2 SWAP1 PUSH2 0x449 JUMP JUMPDEST PUSH0 PUSH1 0x20 DUP3 DUP5 SUB SLT ISZERO PUSH2 0x3DF JUMPI PUSH0 PUSH0 REVERT JUMPDEST POP CALLDATALOAD SWAP2 SWAP1 POP JUMP JUMPDEST DUP1 CALLDATALOAD PUSH1 0x1 PUSH1 0x1 PUSH1 0xA0 SHL SUB DUP2 AND DUP2 EQ PUSH2 0x3FC JUMPI PUSH0 PUSH0 REVERT JUMPDEST SWAP2 SWAP1 POP JUMP JUMPDEST PUSH0 PUSH1 0x20 DUP3 DUP5 SUB SLT ISZERO PUSH2 0x411 JUMPI PUSH0 PUSH0 REVERT JUMPDEST PUSH2 0x41A DUP3 PUSH2 0x3E6 JUMP JUMPDEST SWAP4 SWAP3 POP POP POP JUMP JUMPDEST PUSH0 PUSH0 PUSH1 0x40 DUP4 DUP6 SUB SLT ISZERO PUSH2 0x432 JUMPI PUSH0 PUSH0 REVERT JUMPDEST PUSH2 0x43B DUP4 PUSH2 0x3E6 JUMP JUMPDEST SWAP5 PUSH1 0x20 SWAP4 SWAP1 SWAP4 ADD CALLDATALOAD SWAP4 POP POP POP JUMP JUMPDEST PUSH0 PUSH1 0x20 DUP3 DUP5 SUB SLT ISZERO PUSH2 0x459 JUMPI PUSH0 PUSH0 REVERT JUMPDEST POP MLOAD SWAP2 SWAP1 POP JUMP INVALID LOG2 PUSH5 0x6970667358 0x22 SLT KECCAK256 PUSH9 0xEC7671ED404C1DCA4C 0xC 0xD9 0xEB 0xF9 DUP13 PUSH9 0xEE582FE6632F4B20DD PC 0xC0 ADD 0xF9 SWAP1 0xB5 PUSH22 0x64736F6C634300081C00330000000000000000000000 "},"methodIdentifiers":{"availableLiquidity()":"74375359","borrow(uint256)":"c5ebeaec","borrowAPY()":"cabca643","collateralETH(address)":"6ad3d82b","collateralValue(address)":"7544aa44","debtUSDT(address)":"99b49130","debtValue(address)":"b9637e49","depositCollateral()":"6f758140","depositLiquidity(uint256)":"76d58e1a","frToken()":"a5310e7d","getAvailableLiquidity()":"9b745aec","healthFactor(address)":"6ad9f9df","lastAccrualTimestamp(address)":"16851b36","liquidate(address,uint256)":"bcbaf487","maxBorrow(address)":"97a9d457","oracle()":"7dc0d1d0","repay(uint256)":"371fd8e6","supplyAPY()":"5733d948","totalBorrowedUSDT()":"bbe413f2","totalReservesUSDT()":"62ac48f3","usdt()":"2f48ab7d","utilization()":"ea21cd92","withdrawCollateral(uint256)":"6112fe2e","withdrawLiquidity(uint256)":"0a861f2a"}}}}}