{"project/contracts/LendingPool.sol":{"LendingPool":{"abi":[{"inputs":[{"internalType":"address","name":"usdt_","type":"address"},{"internalType":"address","name":"oracle_","type":"address"},{"internalType":"address","name":"frToken_","type":"address"}],"stateMutability":"nonpayable","type":"constructor"},{"anonymous":false,"inputs":[{"indexed":true,"internalType":"address","name":"borrower","type":"address"},{"indexed":false,"internalType":"uint256","name":"amountUSDT","type":"uint256"}],"name":"Borrow","type":"event"},{"anonymous":false,"inputs":[{"indexed":true,"internalType":"address","name":"user","type":"address"},{"indexed":false,"internalType":"uint256","name":"amountETH","type":"uint256"}],"name":"DepositCollateral","type":"event"},{"anonymous":false,"inputs":[{"indexed":true,"internalType":"address","name":"user","type":"address"},{"indexed":false,"internalType":"uint256","name":"amountUSDT","type":"uint256"}],"name":"DepositLiquidity","type":"event"},{"anonymous":false,"inputs":[{"indexed":true,"internalType":"address","name":"borrower","type":"address"},{"indexed":true,"internalType":"address","name":"liquidator","type":"address"},{"indexed":false,"internalType":"uint256","name":"repayUSDT","type":"uint256"},{"indexed":false,"internalType":"uint256","name":"collateralTakenETH","type":"uint256"}],"name":"Liquidate","type":"event"},{"anonymous":false,"inputs":[{"indexed":true,"internalType":"address","name":"borrower","type":"address"},{"indexed":false,"internalType":"uint256","name":"amountUSDT","type":"uint256"}],"name":"Repay","type":"event"},{"anonymous":false,"inputs":[{"indexed":true,"internalType":"address","name":"user","type":"address"},{"indexed":false,"internalType":"uint256","name":"amountETH","type":"uint256"}],"name":"WithdrawCollateral","type":"event"},{"anonymous":false,"inputs":[{"indexed":true,"internalType":"address","name":"user","type":"address"},{"indexed":false,"internalType":"uint256","name":"frAmount","type":"uint256"},{"indexed":false,"internalType":"uint256","name":"amountUSDT","type":"uint256"}],"name":"WithdrawLiquidity","type":"event"},{"inputs":[{"internalType":"uint256","name":"borrowAmount","type":"uint256"}],"name":"borrow","outputs":[],"stateMutability":"nonpayable","type":"function"},{"inputs":[{"internalType":"address","name":"","type":"address"}],"name":"collateralETH","outputs":[{"internalType":"uint256","name":"","type":"uint256"}],"stateMutability":"view","type":"function"},{"inputs":[{"internalType":"address","name":"","type":"address"}],"name":"debtUSDT","outputs":[{"internalType":"uint256","name":"","type":"uint256"}],"stateMutability":"view","type":"function"},{"inputs":[],"name":"depositCollateral","outputs":[],"stateMutability":"payable","type":"function"},{"inputs":[{"internalType":"uint256","name":"amount","type":"uint256"}],"name":"depositLiquidity","outputs":[],"stateMutability":"nonpayable","type":"function"},{"inputs":[],"name":"frToken","outputs":[{"internalType":"contract IFRTokenLike","name":"","type":"address"}],"stateMutability":"view","type":"function"},{"inputs":[],"name":"getAvailableLiquidity","outputs":[{"internalType":"uint256","name":"","type":"uint256"}],"stateMutability":"view","type":"function"},{"inputs":[],"name":"getBorrowAPY","outputs":[{"internalType":"uint256","name":"","type":"uint256"}],"stateMutability":"view","type":"function"},{"inputs":[{"internalType":"address","name":"borrower","type":"address"}],"name":"getCollateralValue","outputs":[{"internalType":"uint256","name":"","type":"uint256"}],"stateMutability":"view","type":"function"},{"inputs":[{"internalType":"address","name":"borrower","type":"address"}],"name":"getDebtValue","outputs":[{"internalType":"uint256","name":"","type":"uint256"}],"stateMutability":"view","type":"function"},{"inputs":[{"internalType":"address","name":"borrower","type":"address"}],"name":"getHealthFactor","outputs":[{"internalType":"uint256","name":"","type":"uint256"}],"stateMutability":"view","type":"function"},{"inputs":[{"internalType":"address","name":"borrower","type":"address"}],"name":"getMaxBorrow","outputs":[{"internalType":"uint256","name":"","type":"uint256"}],"stateMutability":"view","type":"function"},{"inputs":[],"name":"getPoolValue","outputs":[{"internalType":"uint256","name":"","type":"uint256"}],"stateMutability":"view","type":"function"},{"inputs":[],"name":"getSupplyAPY","outputs":[{"internalType":"uint256","name":"","type":"uint256"}],"stateMutability":"view","type":"function"},{"inputs":[],"name":"getTotalSupplied","outputs":[{"internalType":"uint256","name":"","type":"uint256"}],"stateMutability":"view","type":"function"},{"inputs":[],"name":"getUtilization","outputs":[{"internalType":"uint256","name":"","type":"uint256"}],"stateMutability":"view","type":"function"},{"inputs":[{"internalType":"address","name":"","type":"address"}],"name":"lastAccrualTimestamp","outputs":[{"internalType":"uint256","name":"","type":"uint256"}],"stateMutability":"view","type":"function"},{"inputs":[{"internalType":"address","name":"borrower","type":"address"},{"internalType":"uint256","name":"repayAmount","type":"uint256"}],"name":"liquidate","outputs":[],"stateMutability":"nonpayable","type":"function"},{"inputs":[],"name":"oracle","outputs":[{"internalType":"contract IPriceOracleLike","name":"","type":"address"}],"stateMutability":"view","type":"function"},{"inputs":[{"internalType":"uint256","name":"repayAmount","type":"uint256"}],"name":"repay","outputs":[],"stateMutability":"nonpayable","type":"function"},{"inputs":[],"name":"totalBorrowedUSDT","outputs":[{"internalType":"uint256","name":"","type":"uint256"}],"stateMutability":"view","type":"function"},{"inputs":[],"name":"totalCollateralETH","outputs":[{"internalType":"uint256","name":"","type":"uint256"}],"stateMutability":"view","type":"function"},{"inputs":[],"name":"totalReservesUSDT","outputs":[{"internalType":"uint256","name":"","type":"uint256"}],"stateMutability":"view","type":"function"},{"inputs":[],"name":"totalSuppliedUSDT","outputs":[{"internalType":"uint256","name":"","type":"uint256"}],"stateMutability":"view","type":"function"},{"inputs":[],"name":"usdt","outputs":[{"internalType":"contract IERC20Like","name":"","type":"address"}],"stateMutability":"view","type":"function"},{"inputs":[{"internalType":"uint256","name":"ethAmount","type":"uint256"}],"name":"withdrawCollateral","outputs":[],"stateMutability":"nonpayable","type":"function"},{"inputs":[{"internalType":"uint256","name":"frAmount","type":"uint256"}],"name":"withdrawLiquidity","outputs":[],"stateMutability":"nonpayable","type":"function"},{"stateMutability":"payable","type":"receive"}],"evm":{"bytecode":{"linkReferences":{},"object":"608060405234801561000f575f5ffd5b50604051611fcd380380611fcd83398101604081905261002e9161015a565b6001600160a01b0383166100755760405162461bcd60e51b815260206004820152600960248201526816915493d7d554d11560ba1b60448201526064015b60405180910390fd5b6001600160a01b0382166100b95760405162461bcd60e51b815260206004820152600b60248201526a5a45524f5f4f5241434c4560a81b604482015260640161006c565b6001600160a01b0381166100fe5760405162461bcd60e51b815260206004820152600c60248201526b2d22a927afa3292a27a5a2a760a11b604482015260640161006c565b5f80546001600160a01b039485166001600160a01b03199182161790915560018054938516938216939093179092556002805491909316911617905561019a565b80516001600160a01b0381168114610155575f5ffd5b919050565b5f5f5f6060848603121561016c575f5ffd5b6101758461013f565b92506101836020850161013f565b91506101916040850161013f565b90509250925092565b611e26806101a75f395ff3fe608060405260043610610198575f3560e01c80637eb71131116100e7578063bcbaf48711610087578063ebf5a90811610062578063ebf5a90814610445578063f0a7fad814610464578063fd1c317a14610479578063fe6bcd7c14610498575f5ffd5b8063bcbaf487146103f3578063c5ebeaec14610412578063d9de24d714610431575f5ffd5b80639b745aec116100c25780639b745aec146103975780639f560dd5146103ab578063a5310e7d146103bf578063bbe413f2146103de575f5ffd5b80637eb711311461033957806397904e421461034d57806399b491301461036c575f5ffd5b80636112fe2e116101525780636f7581401161012d5780636f758140146102de57806374175cd4146102e657806376d58e1a146102fb5780637dc0d1d01461031a575f5ffd5b80636112fe2e1461027f57806362ac48f31461029e5780636ad3d82b146102b3575f5ffd5b80630a861f2a146101a357806316851b36146101c45780631ba2f531146102025780632f48ab7d14610216578063371fd8e61461024c578063503d37ea1461026b575f5ffd5b3661019f57005b5f5ffd5b3480156101ae575f5ffd5b506101c26101bd366004611c8e565b6104b7565b005b3480156101cf575f5ffd5b506101ef6101de366004611cbb565b60056020525f908152604090205481565b6040519081526020015b60405180910390f35b34801561020d575f5ffd5b506101ef6107ba565b348015610221575f5ffd5b505f54610234906001600160a01b031681565b6040516001600160a01b0390911681526020016101f9565b348015610257575f5ffd5b506101c2610266366004611c8e565b6107c8565b348015610276575f5ffd5b506101ef610972565b34801561028a575f5ffd5b506101c2610299366004611c8e565b610983565b3480156102a9575f5ffd5b506101ef60075481565b3480156102be575f5ffd5b506101ef6102cd366004611cbb565b60036020525f908152604090205481565b6101c2610b74565b3480156102f1575f5ffd5b506101ef60085481565b348015610306575f5ffd5b506101c2610315366004611c8e565b610c27565b348015610325575f5ffd5b50600154610234906001600160a01b031681565b348015610344575f5ffd5b506101ef610e6a565b348015610358575f5ffd5b506101ef610367366004611cbb565b610e73565b348015610377575f5ffd5b506101ef610386366004611cbb565b60046020525f908152604090205481565b3480156103a2575f5ffd5b506101ef610e83565b3480156103b6575f5ffd5b506101ef610eed565b3480156103ca575f5ffd5b50600254610234906001600160a01b031681565b3480156103e9575f5ffd5b506101ef60065481565b3480156103fe575f5ffd5b506101c261040d366004611cd4565b610f44565b34801561041d575f5ffd5b506101c261042c366004611c8e565b611371565b34801561043c575f5ffd5b506009546101ef565b348015610450575f5ffd5b506101ef61045f366004611cbb565b6116cc565b34801561046f575f5ffd5b506101ef60095481565b348015610484575f5ffd5b506101ef610493366004611cbb565b6116d6565b3480156104a3575f5ffd5b506101ef6104b2366004611cbb565b6116e0565b5f81116104df5760405162461bcd60e51b81526004016104d690611cfc565b60405180910390fd5b600254604080516318160ddd60e01b815290515f926001600160a01b0316916318160ddd9160048083019260209291908290030181865afa158015610526573d5f5f3e3d5ffd5b505050506040513d601f19601f8201168201806040525081019061054a9190611d21565b90505f81116105875760405162461bcd60e51b81526020600482015260096024820152684e4f5f53484152455360b81b60448201526064016104d6565b5f6105906116ea565b90505f8261059e8386611d4c565b6105a89190611d63565b5f546040516370a0823160e01b81523060048201529192506001600160a01b0316906370a0823190602401602060405180830381865afa1580156105ee573d5f5f3e3d5ffd5b505050506040513d601f19601f820116820180604052508101906106129190611d21565b81111561065a5760405162461bcd60e51b8152602060048201526016602482015275494e53554646494349454e545f4c495155494449545960501b60448201526064016104d6565b600254604051632770a7eb60e21b8152336004820152602481018690526001600160a01b0390911690639dc29fac906044015f604051808303815f87803b1580156106a3575f5ffd5b505af11580156106b5573d5f5f3e3d5ffd5b505050505f83600954866106c99190611d4c565b6106d39190611d63565b90508060095f8282546106e69190611d82565b90915550505f5460405163a9059cbb60e01b8152336004820152602481018490526001600160a01b039091169063a9059cbb906044016020604051808303815f875af1158015610738573d5f5f3e3d5ffd5b505050506040513d601f19601f8201168201806040525081019061075c9190611d95565b6107785760405162461bcd60e51b81526004016104d690611db4565b604080518681526020810184905233917fac927268ea9ae2e55027e6ab727fc2db8e3ea48c56c658223a1074567e4298c0910160405180910390a25050505050565b5f6107c36116ea565b905090565b5f81116108045760405162461bcd60e51b815260206004820152600a6024820152695a45524f5f524550415960b01b60448201526064016104d6565b61080d33611772565b335f90815260046020526040812054610827908390611904565b90505f811161086b5760405162461bcd60e51b815260206004820152601060248201526f4e4f5448494e475f544f5f524550415960801b60448201526064016104d6565b5f546040516323b872dd60e01b8152336004820152306024820152604481018390526001600160a01b03909116906323b872dd906064016020604051808303815f875af11580156108be573d5f5f3e3d5ffd5b505050506040513d601f19601f820116820180604052508101906108e29190611d95565b6108fe5760405162461bcd60e51b81526004016104d690611db4565b335f908152600460205260408120805483929061091c908490611d82565b925050819055508060065f8282546109349190611d82565b909155505060405181815233907f5c16de4f8b59bd9caf0f49a545f25819a895ed223294290b408242e72a5942319060200160405180910390a25050565b5f6107c361097e61191b565b611946565b5f81116109a25760405162461bcd60e51b81526004016104d690611cfc565b335f90815260036020526040902054811115610a005760405162461bcd60e51b815260206004820152601760248201527f494e53554646494349454e545f434f4c4c41544552414c00000000000000000060448201526064016104d6565b610a0933611772565b335f90815260036020526040812054610a23908390611d82565b335f90815260046020526040902054909150670de0b6b3a7640000610a4883836119c3565b1015610a855760405162461bcd60e51b815260206004820152600c60248201526b48465f42454c4f575f4f4e4560a01b60448201526064016104d6565b335f90815260036020526040812083905560088054859290610aa8908490611d82565b90915550506040515f90339085908381818185875af1925050503d805f8114610aec576040519150601f19603f3d011682016040523d82523d5f602084013e610af1565b606091505b5050905080610b385760405162461bcd60e51b815260206004820152601360248201527211551217d514905394d1915497d19052531151606a1b60448201526064016104d6565b60405184815233907fa8e76b822fc682be77f3b1c822ea81f6bda5aed92ba82e6873bfd889f328d1d2906020015b60405180910390a250505050565b5f3411610bb55760405162461bcd60e51b815260206004820152600f60248201526e16915493d7d0d3d313105511549053608a1b60448201526064016104d6565b335f9081526003602052604081208054349290610bd3908490611ddd565b925050819055503460085f828254610beb9190611ddd565b909155505060405134815233907f8c66c9368f6312eb21bf56acbd3a20448f7d1589d024c30482c3d0a33125523e9060200160405180910390a2565b5f8111610c465760405162461bcd60e51b81526004016104d690611cfc565b5f610c4f6116ea565b90505f60025f9054906101000a90046001600160a01b03166001600160a01b03166318160ddd6040518163ffffffff1660e01b8152600401602060405180830381865afa158015610ca2573d5f5f3e3d5ffd5b505050506040513d601f19601f82011682018060405250810190610cc69190611d21565b90505f815f03610cd7575082610d30565b5f8311610d185760405162461bcd60e51b815260206004820152600f60248201526e5a45524f5f504f4f4c5f56414c554560881b60448201526064016104d6565b82610d238386611d4c565b610d2d9190611d63565b90505b5f546040516323b872dd60e01b8152336004820152306024820152604481018690526001600160a01b03909116906323b872dd906064016020604051808303815f875af1158015610d83573d5f5f3e3d5ffd5b505050506040513d601f19601f82011682018060405250810190610da79190611d95565b610dc35760405162461bcd60e51b81526004016104d690611db4565b6002546040516340c10f1960e01b8152336004820152602481018390526001600160a01b03909116906340c10f19906044015f604051808303815f87803b158015610e0c575f5ffd5b505af1158015610e1e573d5f5f3e3d5ffd5b505050508360095f828254610e339190611ddd565b909155505060405184815233907f3bdb4d376f46aac1bdcda94b03200364052b278ed93865d759bf61452bfabdba90602001610b66565b5f6107c361191b565b5f610e7d82611aa3565b92915050565b5f80546040516370a0823160e01b81523060048201526001600160a01b03909116906370a0823190602401602060405180830381865afa158015610ec9573d5f5f3e3d5ffd5b505050506040513d601f19601f820116820180604052508101906107c39190611d21565b5f5f610ef761191b565b90505f610f0382611946565b905061271080610f156103e882611d82565b610f1f8585611d4c565b610f299190611d4c565b610f339190611d63565b610f3d9190611d63565b9250505090565b5f8111610f805760405162461bcd60e51b815260206004820152600a6024820152695a45524f5f524550415960b01b60448201526064016104d6565b60015460408051634c6afee560e11b815290515f926001600160a01b0316916398d5fdca9160048083019260209291908290030181865afa158015610fc7573d5f5f3e3d5ffd5b505050506040513d601f19601f82011682018060405250810190610feb9190611d21565b90505f811161102c5760405162461bcd60e51b815260206004820152600d60248201526c14149250d157d393d517d4d155609a1b60448201526064016104d6565b61103583611772565b6001600160a01b0383165f90815260036020908152604080832054600490925290912054670de0b6b3a76400009161106c916119c3565b106110a85760405162461bcd60e51b815260206004820152600c60248201526b48465f41424f56455f4f4e4560a01b60448201526064016104d6565b6001600160a01b0383165f908152600460205260408120546110cb908490611904565b90505f81116111135760405162461bcd60e51b81526020600482015260146024820152734e4f5448494e475f544f5f4c495155494441544560601b60448201526064016104d6565b5f61112083612710611d4c565b61112e6101f4612710611ddd565b6111389084611d4c565b61114a90670de0b6b3a7640000611d4c565b6111549190611d63565b6001600160a01b0386165f908152600360205260408120549192509061117b908390611904565b5f546040516323b872dd60e01b8152336004820152306024820152604481018690529192506001600160a01b0316906323b872dd906064016020604051808303815f875af11580156111cf573d5f5f3e3d5ffd5b505050506040513d601f19601f820116820180604052508101906111f39190611d95565b61120f5760405162461bcd60e51b81526004016104d690611db4565b6001600160a01b0386165f9081526004602052604081208054859290611236908490611d82565b925050819055508260065f82825461124e9190611d82565b90915550506001600160a01b0386165f908152600360205260408120805483929061127a908490611d82565b925050819055508060085f8282546112929190611d82565b90915550506040515f90339083908381818185875af1925050503d805f81146112d6576040519150601f19603f3d011682016040523d82523d5f602084013e6112db565b606091505b50509050806113225760405162461bcd60e51b815260206004820152601360248201527211551217d514905394d1915497d19052531151606a1b60448201526064016104d6565b604080518581526020810184905233916001600160a01b038a16917ff3fa0eaee8f258c23b013654df25d1527f98a5c7ccd5e951dd77caca400ef972910160405180910390a350505050505050565b5f81116113ae5760405162461bcd60e51b815260206004820152600b60248201526a5a45524f5f424f52524f5760a81b60448201526064016104d6565b60015460408051634c6afee560e11b815290515f926001600160a01b0316916398d5fdca9160048083019260209291908290030181865afa1580156113f5573d5f5f3e3d5ffd5b505050506040513d601f19601f820116820180604052508101906114199190611d21565b116114565760405162461bcd60e51b815260206004820152600d60248201526c14149250d157d393d517d4d155609a1b60448201526064016104d6565b61145f33611772565b335f908152600360205260409020546114aa5760405162461bcd60e51b815260206004820152600d60248201526c1393d7d0d3d313105511549053609a1b60448201526064016104d6565b335f818152600460205260408120549161271090611b58906114cb90611aa3565b6114d59190611d4c565b6114df9190611d63565b90505f6114ec8484611ddd565b9050818111156115345760405162461bcd60e51b815260206004820152601360248201527213505617d093d49493d5d7d15610d151511151606a1b60448201526064016104d6565b5f546040516370a0823160e01b81523060048201526001600160a01b03909116906370a0823190602401602060405180830381865afa158015611579573d5f5f3e3d5ffd5b505050506040513d601f19601f8201168201806040525081019061159d9190611d21565b8411156115e55760405162461bcd60e51b8152602060048201526016602482015275494e53554646494349454e545f4c495155494449545960501b60448201526064016104d6565b5f5460405163a9059cbb60e01b8152336004820152602481018690526001600160a01b039091169063a9059cbb906044016020604051808303815f875af1158015611632573d5f5f3e3d5ffd5b505050506040513d601f19601f820116820180604052508101906116569190611d95565b6116725760405162461bcd60e51b81526004016104d690611db4565b335f90815260046020526040812082905560068054869290611695908490611ddd565b909155505060405184815233907fcbc04eca7e9da35cb1393a6135a199ca52e450d5e9251cbd99f7847d33a3675090602001610b66565b5f610e7d82611b4d565b5f610e7d82611b57565b5f610e7d82611ba4565b6007546006545f80546040516370a0823160e01b8152306004820152919392916001600160a01b03909116906370a0823190602401602060405180830381865afa15801561173a573d5f5f3e3d5ffd5b505050506040513d601f19601f8201168201806040525081019061175e9190611d21565b6117689190611ddd565b6107c39190611d82565b6001600160a01b0381165f9081526004602090815260408083205460059092528220549091036117b857506001600160a01b03165f908152600560205260409020429055565b6001600160a01b0382165f908152600560205260408120546117da9042611d82565b90508015806117e7575081155b156118095750506001600160a01b03165f908152600560205260409020429055565b5f61181261191b565b90505f61181e82611946565b90505f64496cebb800846118328488611d4c565b61183c9190611d4c565b6118469190611d63565b9050805f03611871575050506001600160a01b039092165f9081526005602052604090204290555050565b5f6127106118816103e884611d4c565b61188b9190611d63565b90506118978287611ddd565b6001600160a01b0388165f90815260046020526040812091909155600680548492906118c4908490611ddd565b925050819055508060075f8282546118dc9190611ddd565b9091555050506001600160a01b039095165f9081526005602052604090204290555050505050565b5f8183106119125781611914565b825b9392505050565b5f6009545f0361192a57505f90565b60095460065461193c90612710611d4c565b6107c39190611d63565b5f611f40821161197457611f4061195f6103e884611d4c565b6119699190611d63565b610e7d9060c8611ddd565b5f611981611f4084611d82565b9050611991611f40612710611d82565b61199d610fa083611d4c565b6119a79190611d63565b6119b46103e860c8611ddd565b6119149190611ddd565b919050565b5f815f036119d357505f19610e7d565b5f670de0b6b3a764000060015f9054906101000a90046001600160a01b03166001600160a01b03166398d5fdca6040518163ffffffff1660e01b8152600401602060405180830381865afa158015611a2d573d5f5f3e3d5ffd5b505050506040513d601f19601f82011682018060405250810190611a519190611d21565b611a5b9086611d4c565b611a659190611d63565b9050611a7383612710611d4c565b611a7f611f4083611d4c565b611a9190670de0b6b3a7640000611d4c565b611a9b9190611d63565b949350505050565b5f670de0b6b3a764000060015f9054906101000a90046001600160a01b03166001600160a01b03166398d5fdca6040518163ffffffff1660e01b8152600401602060405180830381865afa158015611afd573d5f5f3e3d5ffd5b505050506040513d601f19601f82011682018060405250810190611b219190611d21565b6001600160a01b0384165f90815260036020526040902054611b439190611d4c565b610e7d9190611d63565b5f610e7d82611bce565b5f5f612710611b58611b6885611aa3565b611b729190611d4c565b611b7c9190611d63565b90505f611b8884611b4d565b9050808211611b9a57505f9392505050565b611a9b8183611d82565b6001600160a01b0381165f90815260036020526040812054610e7d90611bc984611b4d565b6119c3565b6001600160a01b0381165f9081526004602090815260408083205460059092528220548203611bff57505f92915050565b6001600160a01b0383165f90815260056020526040812054611c219042611d82565b9050801580611c2e575081155b15611c3a575092915050565b5f611c4361191b565b90505f611c4f82611946565b90505f64496cebb80084611c638488611d4c565b611c6d9190611d4c565b611c779190611d63565b9050611c838186611ddd565b979650505050505050565b5f60208284031215611c9e575f5ffd5b5035919050565b80356001600160a01b03811681146119be575f5ffd5b5f60208284031215611ccb575f5ffd5b61191482611ca5565b5f5f60408385031215611ce5575f5ffd5b611cee83611ca5565b946020939093013593505050565b6020808252600b908201526a16915493d7d05353d5539560aa1b604082015260600190565b5f60208284031215611d31575f5ffd5b5051919050565b634e487b7160e01b5f52601160045260245ffd5b8082028115828204841417610e7d57610e7d611d38565b5f82611d7d57634e487b7160e01b5f52601260045260245ffd5b500490565b81810381811115610e7d57610e7d611d38565b5f60208284031215611da5575f5ffd5b81518015158114611914575f5ffd5b6020808252600f908201526e1514905394d1915497d19052531151608a1b604082015260600190565b80820180821115610e7d57610e7d611d3856fea264697066735822122092fc8f80056dcbcde793ccf884651135405a4a7881298284b4db7570465063b964736f6c634300081c0033","opcodes":"PUSH1 0x80 PUSH1 0x40 MSTORE CALLVALUE DUP1 ISZERO PUSH2 0xF JUMPI PUSH0 PUSH0 REVERT JUMPDEST POP PUSH1 0x40 MLOAD PUSH2 0x1FCD CODESIZE SUB DUP1 PUSH2 0x1FCD DUP4 CODECOPY DUP2 ADD PUSH1 0x40 DUP2 SWAP1 MSTORE PUSH2 0x2E SWAP2 PUSH2 0x15A JUMP JUMPDEST PUSH1 0x1 PUSH1 0x1 PUSH1 0xA0 SHL SUB DUP4 AND PUSH2 0x75 JUMPI PUSH1 0x40 MLOAD PUSH3 0x461BCD PUSH1 0xE5 SHL DUP2 MSTORE PUSH1 0x20 PUSH1 0x4 DUP3 ADD MSTORE PUSH1 0x9 PUSH1 0x24 DUP3 ADD MSTORE PUSH9 0x16915493D7D554D115 PUSH1 0xBA SHL PUSH1 0x44 DUP3 ADD MSTORE PUSH1 0x64 ADD JUMPDEST PUSH1 0x40 MLOAD DUP1 SWAP2 SUB SWAP1 REVERT JUMPDEST PUSH1 0x1 PUSH1 0x1 PUSH1 0xA0 SHL SUB DUP3 AND PUSH2 0xB9 JUMPI PUSH1 0x40 MLOAD PUSH3 0x461BCD PUSH1 0xE5 SHL DUP2 MSTORE PUSH1 0x20 PUSH1 0x4 DUP3 ADD MSTORE PUSH1 0xB PUSH1 0x24 DUP3 ADD MSTORE PUSH11 0x5A45524F5F4F5241434C45 PUSH1 0xA8 SHL PUSH1 0x44 DUP3 ADD MSTORE PUSH1 0x64 ADD PUSH2 0x6C JUMP JUMPDEST PUSH1 0x1 PUSH1 0x1 PUSH1 0xA0 SHL SUB DUP2 AND PUSH2 0xFE JUMPI PUSH1 0x40 MLOAD PUSH3 0x461BCD PUSH1 0xE5 SHL DUP2 MSTORE PUSH1 0x20 PUSH1 0x4 DUP3 ADD MSTORE PUSH1 0xC PUSH1 0x24 DUP3 ADD MSTORE PUSH12 0x2D22A927AFA3292A27A5A2A7 PUSH1 0xA1 SHL PUSH1 0x44 DUP3 ADD MSTORE PUSH1 0x64 ADD PUSH2 0x6C JUMP JUMPDEST PUSH0 DUP1 SLOAD PUSH1 0x1 PUSH1 0x1 PUSH1 0xA0 SHL SUB SWAP5 DUP6 AND PUSH1 0x1 PUSH1 0x1 PUSH1 0xA0 SHL SUB NOT SWAP2 DUP3 AND OR SWAP1 SWAP2 SSTORE PUSH1 0x1 DUP1 SLOAD SWAP4 DUP6 AND SWAP4 DUP3 AND SWAP4 SWAP1 SWAP4 OR SWAP1 SWAP3 SSTORE PUSH1 0x2 DUP1 SLOAD SWAP2 SWAP1 SWAP4 AND SWAP2 AND OR SWAP1 SSTORE PUSH2 0x19A JUMP JUMPDEST DUP1 MLOAD PUSH1 0x1 PUSH1 0x1 PUSH1 0xA0 SHL SUB DUP2 AND DUP2 EQ PUSH2 0x155 JUMPI PUSH0 PUSH0 REVERT JUMPDEST SWAP2 SWAP1 POP JUMP JUMPDEST PUSH0 PUSH0 PUSH0 PUSH1 0x60 DUP5 DUP7 SUB SLT ISZERO PUSH2 0x16C JUMPI PUSH0 PUSH0 REVERT JUMPDEST PUSH2 0x175 DUP5 PUSH2 0x13F JUMP JUMPDEST SWAP3 POP PUSH2 0x183 PUSH1 0x20 DUP6 ADD PUSH2 0x13F JUMP JUMPDEST SWAP2 POP PUSH2 0x191 PUSH1 0x40 DUP6 ADD PUSH2 0x13F JUMP JUMPDEST SWAP1 POP SWAP3 POP SWAP3 POP SWAP3 JUMP JUMPDEST PUSH2 0x1E26 DUP1 PUSH2 0x1A7 PUSH0 CODECOPY PUSH0 RETURN INVALID PUSH1 0x80 PUSH1 0x40 MSTORE PUSH1 0x4 CALLDATASIZE LT PUSH2 0x198 JUMPI PUSH0 CALLDATALOAD PUSH1 0xE0 SHR DUP1 PUSH4 0x7EB71131 GT PUSH2 0xE7 JUMPI DUP1 PUSH4 0xBCBAF487 GT PUSH2 0x87 JUMPI DUP1 PUSH4 0xEBF5A908 GT PUSH2 0x62 JUMPI DUP1 PUSH4 0xEBF5A908 EQ PUSH2 0x445 JUMPI DUP1 PUSH4 0xF0A7FAD8 EQ PUSH2 0x464 JUMPI DUP1 PUSH4 0xFD1C317A EQ PUSH2 0x479 JUMPI DUP1 PUSH4 0xFE6BCD7C EQ PUSH2 0x498 JUMPI PUSH0 PUSH0 REVERT JUMPDEST DUP1 PUSH4 0xBCBAF487 EQ PUSH2 0x3F3 JUMPI DUP1 PUSH4 0xC5EBEAEC EQ PUSH2 0x412 JUMPI DUP1 PUSH4 0xD9DE24D7 EQ PUSH2 0x431 JUMPI PUSH0 PUSH0 REVERT JUMPDEST DUP1 PUSH4 0x9B745AEC GT PUSH2 0xC2 JUMPI DUP1 PUSH4 0x9B745AEC EQ PUSH2 0x397 JUMPI DUP1 PUSH4 0x9F560DD5 EQ PUSH2 0x3AB JUMPI DUP1 PUSH4 0xA5310E7D EQ PUSH2 0x3BF JUMPI DUP1 PUSH4 0xBBE413F2 EQ PUSH2 0x3DE JUMPI PUSH0 PUSH0 REVERT JUMPDEST DUP1 PUSH4 0x7EB71131 EQ PUSH2 0x339 JUMPI DUP1 PUSH4 0x97904E42 EQ PUSH2 0x34D JUMPI DUP1 PUSH4 0x99B49130 EQ PUSH2 0x36C JUMPI PUSH0 PUSH0 REVERT JUMPDEST DUP1 PUSH4 0x6112FE2E GT PUSH2 0x152 JUMPI DUP1 PUSH4 0x6F758140 GT PUSH2 0x12D JUMPI DUP1 PUSH4 0x6F758140 EQ PUSH2 0x2DE JUMPI DUP1 PUSH4 0x74175CD4 EQ PUSH2 0x2E6 JUMPI DUP1 PUSH4 0x76D58E1A EQ PUSH2 0x2FB JUMPI DUP1 PUSH4 0x7DC0D1D0 EQ PUSH2 0x31A JUMPI PUSH0 PUSH0 REVERT JUMPDEST DUP1 PUSH4 0x6112FE2E EQ PUSH2 0x27F JUMPI DUP1 PUSH4 0x62AC48F3 EQ PUSH2 0x29E JUMPI DUP1 PUSH4 0x6AD3D82B EQ PUSH2 0x2B3 JUMPI PUSH0 PUSH0 REVERT JUMPDEST DUP1 PUSH4 0xA861F2A EQ PUSH2 0x1A3 JUMPI DUP1 PUSH4 0x16851B36 EQ PUSH2 0x1C4 JUMPI DUP1 PUSH4 0x1BA2F531 EQ PUSH2 0x202 JUMPI DUP1 PUSH4 0x2F48AB7D EQ PUSH2 0x216 JUMPI DUP1 PUSH4 0x371FD8E6 EQ PUSH2 0x24C JUMPI DUP1 PUSH4 0x503D37EA EQ PUSH2 0x26B JUMPI PUSH0 PUSH0 REVERT JUMPDEST CALLDATASIZE PUSH2 0x19F JUMPI STOP JUMPDEST PUSH0 PUSH0 REVERT JUMPDEST CALLVALUE DUP1 ISZERO PUSH2 0x1AE JUMPI PUSH0 PUSH0 REVERT JUMPDEST POP PUSH2 0x1C2 PUSH2 0x1BD CALLDATASIZE PUSH1 0x4 PUSH2 0x1C8E JUMP JUMPDEST PUSH2 0x4B7 JUMP JUMPDEST STOP JUMPDEST CALLVALUE DUP1 ISZERO PUSH2 0x1CF JUMPI PUSH0 PUSH0 REVERT JUMPDEST POP PUSH2 0x1EF PUSH2 0x1DE CALLDATASIZE PUSH1 0x4 PUSH2 0x1CBB JUMP JUMPDEST PUSH1 0x5 PUSH1 0x20 MSTORE PUSH0 SWAP1 DUP2 MSTORE PUSH1 0x40 SWAP1 KECCAK256 SLOAD DUP2 JUMP JUMPDEST PUSH1 0x40 MLOAD SWAP1 DUP2 MSTORE PUSH1 0x20 ADD JUMPDEST PUSH1 0x40 MLOAD DUP1 SWAP2 SUB SWAP1 RETURN JUMPDEST CALLVALUE DUP1 ISZERO PUSH2 0x20D JUMPI PUSH0 PUSH0 REVERT JUMPDEST POP PUSH2 0x1EF PUSH2 0x7BA JUMP JUMPDEST CALLVALUE DUP1 ISZERO PUSH2 0x221 JUMPI PUSH0 PUSH0 REVERT JUMPDEST POP PUSH0 SLOAD PUSH2 0x234 SWAP1 PUSH1 0x1 PUSH1 0x1 PUSH1 0xA0 SHL SUB AND DUP2 JUMP JUMPDEST PUSH1 0x40 MLOAD PUSH1 0x1 PUSH1 0x1 PUSH1 0xA0 SHL SUB SWAP1 SWAP2 AND DUP2 MSTORE PUSH1 0x20 ADD PUSH2 0x1F9 JUMP JUMPDEST CALLVALUE DUP1 ISZERO PUSH2 0x257 JUMPI PUSH0 PUSH0 REVERT JUMPDEST POP PUSH2 0x1C2 PUSH2 0x266 CALLDATASIZE PUSH1 0x4 PUSH2 0x1C8E JUMP JUMPDEST PUSH2 0x7C8 JUMP JUMPDEST CALLVALUE DUP1 ISZERO PUSH2 0x276 JUMPI PUSH0 PUSH0 REVERT JUMPDEST POP PUSH2 0x1EF PUSH2 0x972 JUMP JUMPDEST CALLVALUE DUP1 ISZERO PUSH2 0x28A JUMPI PUSH0 PUSH0 REVERT JUMPDEST POP PUSH2 0x1C2 PUSH2 0x299 CALLDATASIZE PUSH1 0x4 PUSH2 0x1C8E JUMP JUMPDEST PUSH2 0x983 JUMP JUMPDEST CALLVALUE DUP1 ISZERO PUSH2 0x2A9 JUMPI PUSH0 PUSH0 REVERT JUMPDEST POP PUSH2 0x1EF PUSH1 0x7 SLOAD DUP2 JUMP JUMPDEST CALLVALUE DUP1 ISZERO PUSH2 0x2BE JUMPI PUSH0 PUSH0 REVERT JUMPDEST POP PUSH2 0x1EF PUSH2 0x2CD CALLDATASIZE PUSH1 0x4 PUSH2 0x1CBB JUMP JUMPDEST PUSH1 0x3 PUSH1 0x20 MSTORE PUSH0 SWAP1 DUP2 MSTORE PUSH1 0x40 SWAP1 KECCAK256 SLOAD DUP2 JUMP JUMPDEST PUSH2 0x1C2 PUSH2 0xB74 JUMP JUMPDEST CALLVALUE DUP1 ISZERO PUSH2 0x2F1 JUMPI PUSH0 PUSH0 REVERT JUMPDEST POP PUSH2 0x1EF PUSH1 0x8 SLOAD DUP2 JUMP JUMPDEST CALLVALUE DUP1 ISZERO PUSH2 0x306 JUMPI PUSH0 PUSH0 REVERT JUMPDEST POP PUSH2 0x1C2 PUSH2 0x315 CALLDATASIZE PUSH1 0x4 PUSH2 0x1C8E JUMP JUMPDEST PUSH2 0xC27 JUMP JUMPDEST CALLVALUE DUP1 ISZERO PUSH2 0x325 JUMPI PUSH0 PUSH0 REVERT JUMPDEST POP PUSH1 0x1 SLOAD PUSH2 0x234 SWAP1 PUSH1 0x1 PUSH1 0x1 PUSH1 0xA0 SHL SUB AND DUP2 JUMP JUMPDEST CALLVALUE DUP1 ISZERO PUSH2 0x344 JUMPI PUSH0 PUSH0 REVERT JUMPDEST POP PUSH2 0x1EF PUSH2 0xE6A JUMP JUMPDEST CALLVALUE DUP1 ISZERO PUSH2 0x358 JUMPI PUSH0 PUSH0 REVERT JUMPDEST POP PUSH2 0x1EF PUSH2 0x367 CALLDATASIZE PUSH1 0x4 PUSH2 0x1CBB JUMP JUMPDEST PUSH2 0xE73 JUMP JUMPDEST CALLVALUE DUP1 ISZERO PUSH2 0x377 JUMPI PUSH0 PUSH0 REVERT JUMPDEST POP PUSH2 0x1EF PUSH2 0x386 CALLDATASIZE PUSH1 0x4 PUSH2 0x1CBB JUMP JUMPDEST PUSH1 0x4 PUSH1 0x20 MSTORE PUSH0 SWAP1 DUP2 MSTORE PUSH1 0x40 SWAP1 KECCAK256 SLOAD DUP2 JUMP JUMPDEST CALLVALUE DUP1 ISZERO PUSH2 0x3A2 JUMPI PUSH0 PUSH0 REVERT JUMPDEST POP PUSH2 0x1EF PUSH2 0xE83 JUMP JUMPDEST CALLVALUE DUP1 ISZERO PUSH2 0x3B6 JUMPI PUSH0 PUSH0 REVERT JUMPDEST POP PUSH2 0x1EF PUSH2 0xEED JUMP JUMPDEST CALLVALUE DUP1 ISZERO PUSH2 0x3CA JUMPI PUSH0 PUSH0 REVERT JUMPDEST POP PUSH1 0x2 SLOAD PUSH2 0x234 SWAP1 PUSH1 0x1 PUSH1 0x1 PUSH1 0xA0 SHL SUB AND DUP2 JUMP JUMPDEST CALLVALUE DUP1 ISZERO PUSH2 0x3E9 JUMPI PUSH0 PUSH0 REVERT JUMPDEST POP PUSH2 0x1EF PUSH1 0x6 SLOAD DUP2 JUMP JUMPDEST CALLVALUE DUP1 ISZERO PUSH2 0x3FE JUMPI PUSH0 PUSH0 REVERT JUMPDEST POP PUSH2 0x1C2 PUSH2 0x40D CALLDATASIZE PUSH1 0x4 PUSH2 0x1CD4 JUMP JUMPDEST PUSH2 0xF44 JUMP JUMPDEST CALLVALUE DUP1 ISZERO PUSH2 0x41D JUMPI PUSH0 PUSH0 REVERT JUMPDEST POP PUSH2 0x1C2 PUSH2 0x42C CALLDATASIZE PUSH1 0x4 PUSH2 0x1C8E JUMP JUMPDEST PUSH2 0x1371 JUMP JUMPDEST CALLVALUE DUP1 ISZERO PUSH2 0x43C JUMPI PUSH0 PUSH0 REVERT JUMPDEST POP PUSH1 0x9 SLOAD PUSH2 0x1EF JUMP JUMPDEST CALLVALUE DUP1 ISZERO PUSH2 0x450 JUMPI PUSH0 PUSH0 REVERT JUMPDEST POP PUSH2 0x1EF PUSH2 0x45F CALLDATASIZE PUSH1 0x4 PUSH2 0x1CBB JUMP JUMPDEST PUSH2 0x16CC JUMP JUMPDEST CALLVALUE DUP1 ISZERO PUSH2 0x46F JUMPI PUSH0 PUSH0 REVERT JUMPDEST POP PUSH2 0x1EF PUSH1 0x9 SLOAD DUP2 JUMP JUMPDEST CALLVALUE DUP1 ISZERO PUSH2 0x484 JUMPI PUSH0 PUSH0 REVERT JUMPDEST POP PUSH2 0x1EF PUSH2 0x493 CALLDATASIZE PUSH1 0x4 PUSH2 0x1CBB JUMP JUMPDEST PUSH2 0x16D6 JUMP JUMPDEST CALLVALUE DUP1 ISZERO PUSH2 0x4A3 JUMPI PUSH0 PUSH0 REVERT JUMPDEST POP PUSH2 0x1EF PUSH2 0x4B2 CALLDATASIZE PUSH1 0x4 PUSH2 0x1CBB JUMP JUMPDEST PUSH2 0x16E0 JUMP JUMPDEST PUSH0 DUP2 GT PUSH2 0x4DF JUMPI PUSH1 0x40 MLOAD PUSH3 0x461BCD PUSH1 0xE5 SHL DUP2 MSTORE PUSH1 0x4 ADD PUSH2 0x4D6 SWAP1 PUSH2 0x1CFC JUMP JUMPDEST PUSH1 0x40 MLOAD DUP1 SWAP2 SUB SWAP1 REVERT JUMPDEST PUSH1 0x2 SLOAD PUSH1 0x40 DUP1 MLOAD PUSH4 0x18160DDD PUSH1 0xE0 SHL DUP2 MSTORE SWAP1 MLOAD PUSH0 SWAP3 PUSH1 0x1 PUSH1 0x1 PUSH1 0xA0 SHL SUB AND SWAP2 PUSH4 0x18160DDD SWAP2 PUSH1 0x4 DUP1 DUP4 ADD SWAP3 PUSH1 0x20 SWAP3 SWAP2 SWAP1 DUP3 SWAP1 SUB ADD DUP2 DUP7 GAS STATICCALL ISZERO DUP1 ISZERO PUSH2 0x526 JUMPI RETURNDATASIZE PUSH0 PUSH0 RETURNDATACOPY RETURNDATASIZE PUSH0 REVERT JUMPDEST POP POP POP POP PUSH1 0x40 MLOAD RETURNDATASIZE PUSH1 0x1F NOT PUSH1 0x1F DUP3 ADD AND DUP3 ADD DUP1 PUSH1 0x40 MSTORE POP DUP2 ADD SWAP1 PUSH2 0x54A SWAP2 SWAP1 PUSH2 0x1D21 JUMP JUMPDEST SWAP1 POP PUSH0 DUP2 GT PUSH2 0x587 JUMPI PUSH1 0x40 MLOAD PUSH3 0x461BCD PUSH1 0xE5 SHL DUP2 MSTORE PUSH1 0x20 PUSH1 0x4 DUP3 ADD MSTORE PUSH1 0x9 PUSH1 0x24 DUP3 ADD MSTORE PUSH9 0x4E4F5F534841524553 PUSH1 0xB8 SHL PUSH1 0x44 DUP3 ADD MSTORE PUSH1 0x64 ADD PUSH2 0x4D6 JUMP JUMPDEST PUSH0 PUSH2 0x590 PUSH2 0x16EA JUMP JUMPDEST SWAP1 POP PUSH0 DUP3 PUSH2 0x59E DUP4 DUP7 PUSH2 0x1D4C JUMP JUMPDEST PUSH2 0x5A8 SWAP2 SWAP1 PUSH2 0x1D63 JUMP JUMPDEST PUSH0 SLOAD PUSH1 0x40 MLOAD PUSH4 0x70A08231 PUSH1 0xE0 SHL DUP2 MSTORE ADDRESS PUSH1 0x4 DUP3 ADD MSTORE SWAP2 SWAP3 POP PUSH1 0x1 PUSH1 0x1 PUSH1 0xA0 SHL SUB AND SWAP1 PUSH4 0x70A08231 SWAP1 PUSH1 0x24 ADD PUSH1 0x20 PUSH1 0x40 MLOAD DUP1 DUP4 SUB DUP2 DUP7 GAS STATICCALL ISZERO DUP1 ISZERO PUSH2 0x5EE JUMPI RETURNDATASIZE PUSH0 PUSH0 RETURNDATACOPY RETURNDATASIZE PUSH0 REVERT JUMPDEST POP POP POP POP PUSH1 0x40 MLOAD RETURNDATASIZE PUSH1 0x1F NOT PUSH1 0x1F DUP3 ADD AND DUP3 ADD DUP1 PUSH1 0x40 MSTORE POP DUP2 ADD SWAP1 PUSH2 0x612 SWAP2 SWAP1 PUSH2 0x1D21 JUMP JUMPDEST DUP2 GT ISZERO PUSH2 0x65A JUMPI PUSH1 0x40 MLOAD PUSH3 0x461BCD PUSH1 0xE5 SHL DUP2 MSTORE PUSH1 0x20 PUSH1 0x4 DUP3 ADD MSTORE PUSH1 0x16 PUSH1 0x24 DUP3 ADD MSTORE PUSH22 0x494E53554646494349454E545F4C4951554944495459 PUSH1 0x50 SHL PUSH1 0x44 DUP3 ADD MSTORE PUSH1 0x64 ADD PUSH2 0x4D6 JUMP JUMPDEST PUSH1 0x2 SLOAD PUSH1 0x40 MLOAD PUSH4 0x2770A7EB PUSH1 0xE2 SHL DUP2 MSTORE CALLER PUSH1 0x4 DUP3 ADD MSTORE PUSH1 0x24 DUP2 ADD DUP7 SWAP1 MSTORE PUSH1 0x1 PUSH1 0x1 PUSH1 0xA0 SHL SUB SWAP1 SWAP2 AND SWAP1 PUSH4 0x9DC29FAC SWAP1 PUSH1 0x44 ADD PUSH0 PUSH1 0x40 MLOAD DUP1 DUP4 SUB DUP2 PUSH0 DUP8 DUP1 EXTCODESIZE ISZERO DUP1 ISZERO PUSH2 0x6A3 JUMPI PUSH0 PUSH0 REVERT JUMPDEST POP GAS CALL ISZERO DUP1 ISZERO PUSH2 0x6B5 JUMPI RETURNDATASIZE PUSH0 PUSH0 RETURNDATACOPY RETURNDATASIZE PUSH0 REVERT JUMPDEST POP POP POP POP PUSH0 DUP4 PUSH1 0x9 SLOAD DUP7 PUSH2 0x6C9 SWAP2 SWAP1 PUSH2 0x1D4C JUMP JUMPDEST PUSH2 0x6D3 SWAP2 SWAP1 PUSH2 0x1D63 JUMP JUMPDEST SWAP1 POP DUP1 PUSH1 0x9 PUSH0 DUP3 DUP3 SLOAD PUSH2 0x6E6 SWAP2 SWAP1 PUSH2 0x1D82 JUMP JUMPDEST SWAP1 SWAP2 SSTORE POP POP PUSH0 SLOAD PUSH1 0x40 MLOAD PUSH4 0xA9059CBB PUSH1 0xE0 SHL DUP2 MSTORE CALLER PUSH1 0x4 DUP3 ADD MSTORE PUSH1 0x24 DUP2 ADD DUP5 SWAP1 MSTORE PUSH1 0x1 PUSH1 0x1 PUSH1 0xA0 SHL SUB SWAP1 SWAP2 AND SWAP1 PUSH4 0xA9059CBB SWAP1 PUSH1 0x44 ADD PUSH1 0x20 PUSH1 0x40 MLOAD DUP1 DUP4 SUB DUP2 PUSH0 DUP8 GAS CALL ISZERO DUP1 ISZERO PUSH2 0x738 JUMPI RETURNDATASIZE PUSH0 PUSH0 RETURNDATACOPY RETURNDATASIZE PUSH0 REVERT JUMPDEST POP POP POP POP PUSH1 0x40 MLOAD RETURNDATASIZE PUSH1 0x1F NOT PUSH1 0x1F DUP3 ADD AND DUP3 ADD DUP1 PUSH1 0x40 MSTORE POP DUP2 ADD SWAP1 PUSH2 0x75C SWAP2 SWAP1 PUSH2 0x1D95 JUMP JUMPDEST PUSH2 0x778 JUMPI PUSH1 0x40 MLOAD PUSH3 0x461BCD PUSH1 0xE5 SHL DUP2 MSTORE PUSH1 0x4 ADD PUSH2 0x4D6 SWAP1 PUSH2 0x1DB4 JUMP JUMPDEST PUSH1 0x40 DUP1 MLOAD DUP7 DUP2 MSTORE PUSH1 0x20 DUP2 ADD DUP5 SWAP1 MSTORE CALLER SWAP2 PUSH32 0xAC927268EA9AE2E55027E6AB727FC2DB8E3EA48C56C658223A1074567E4298C0 SWAP2 ADD PUSH1 0x40 MLOAD DUP1 SWAP2 SUB SWAP1 LOG2 POP POP POP POP POP JUMP JUMPDEST PUSH0 PUSH2 0x7C3 PUSH2 0x16EA JUMP JUMPDEST SWAP1 POP SWAP1 JUMP JUMPDEST PUSH0 DUP2 GT PUSH2 0x804 JUMPI PUSH1 0x40 MLOAD PUSH3 0x461BCD PUSH1 0xE5 SHL DUP2 MSTORE PUSH1 0x20 PUSH1 0x4 DUP3 ADD MSTORE PUSH1 0xA PUSH1 0x24 DUP3 ADD MSTORE PUSH10 0x5A45524F5F5245504159 PUSH1 0xB0 SHL PUSH1 0x44 DUP3 ADD MSTORE PUSH1 0x64 ADD PUSH2 0x4D6 JUMP JUMPDEST PUSH2 0x80D CALLER PUSH2 0x1772 JUMP JUMPDEST CALLER PUSH0 SWAP1 DUP2 MSTORE PUSH1 0x4 PUSH1 0x20 MSTORE PUSH1 0x40 DUP2 KECCAK256 SLOAD PUSH2 0x827 SWAP1 DUP4 SWAP1 PUSH2 0x1904 JUMP JUMPDEST SWAP1 POP PUSH0 DUP2 GT PUSH2 0x86B JUMPI PUSH1 0x40 MLOAD PUSH3 0x461BCD PUSH1 0xE5 SHL DUP2 MSTORE PUSH1 0x20 PUSH1 0x4 DUP3 ADD MSTORE PUSH1 0x10 PUSH1 0x24 DUP3 ADD MSTORE PUSH16 0x4E4F5448494E475F544F5F5245504159 PUSH1 0x80 SHL PUSH1 0x44 DUP3 ADD MSTORE PUSH1 0x64 ADD PUSH2 0x4D6 JUMP JUMPDEST PUSH0 SLOAD PUSH1 0x40 MLOAD PUSH4 0x23B872DD PUSH1 0xE0 SHL DUP2 MSTORE CALLER PUSH1 0x4 DUP3 ADD MSTORE ADDRESS PUSH1 0x24 DUP3 ADD MSTORE PUSH1 0x44 DUP2 ADD DUP4 SWAP1 MSTORE PUSH1 0x1 PUSH1 0x1 PUSH1 0xA0 SHL SUB SWAP1 SWAP2 AND SWAP1 PUSH4 0x23B872DD SWAP1 PUSH1 0x64 ADD PUSH1 0x20 PUSH1 0x40 MLOAD DUP1 DUP4 SUB DUP2 PUSH0 DUP8 GAS CALL ISZERO DUP1 ISZERO PUSH2 0x8BE JUMPI RETURNDATASIZE PUSH0 PUSH0 RETURNDATACOPY RETURNDATASIZE PUSH0 REVERT JUMPDEST POP POP POP POP PUSH1 0x40 MLOAD RETURNDATASIZE PUSH1 0x1F NOT PUSH1 0x1F DUP3 ADD AND DUP3 ADD DUP1 PUSH1 0x40 MSTORE POP DUP2 ADD SWAP1 PUSH2 0x8E2 SWAP2 SWAP1 PUSH2 0x1D95 JUMP JUMPDEST PUSH2 0x8FE JUMPI PUSH1 0x40 MLOAD PUSH3 0x461BCD PUSH1 0xE5 SHL DUP2 MSTORE PUSH1 0x4 ADD PUSH2 0x4D6 SWAP1 PUSH2 0x1DB4 JUMP JUMPDEST CALLER PUSH0 SWAP1 DUP2 MSTORE PUSH1 0x4 PUSH1 0x20 MSTORE PUSH1 0x40 DUP2 KECCAK256 DUP1 SLOAD DUP4 SWAP3 SWAP1 PUSH2 0x91C SWAP1 DUP5 SWAP1 PUSH2 0x1D82 JUMP JUMPDEST SWAP3 POP POP DUP2 SWAP1 SSTORE POP DUP1 PUSH1 0x6 PUSH0 DUP3 DUP3 SLOAD PUSH2 0x934 SWAP2 SWAP1 PUSH2 0x1D82 JUMP JUMPDEST SWAP1 SWAP2 SSTORE POP POP PUSH1 0x40 MLOAD DUP2 DUP2 MSTORE CALLER SWAP1 PUSH32 0x5C16DE4F8B59BD9CAF0F49A545F25819A895ED223294290B408242E72A594231 SWAP1 PUSH1 0x20 ADD PUSH1 0x40 MLOAD DUP1 SWAP2 SUB SWAP1 LOG2 POP POP JUMP JUMPDEST PUSH0 PUSH2 0x7C3 PUSH2 0x97E PUSH2 0x191B JUMP JUMPDEST PUSH2 0x1946 JUMP JUMPDEST PUSH0 DUP2 GT PUSH2 0x9A2 JUMPI PUSH1 0x40 MLOAD PUSH3 0x461BCD PUSH1 0xE5 SHL DUP2 MSTORE PUSH1 0x4 ADD PUSH2 0x4D6 SWAP1 PUSH2 0x1CFC JUMP JUMPDEST CALLER PUSH0 SWAP1 DUP2 MSTORE PUSH1 0x3 PUSH1 0x20 MSTORE PUSH1 0x40 SWAP1 KECCAK256 SLOAD DUP2 GT ISZERO PUSH2 0xA00 JUMPI PUSH1 0x40 MLOAD PUSH3 0x461BCD PUSH1 0xE5 SHL DUP2 MSTORE PUSH1 0x20 PUSH1 0x4 DUP3 ADD MSTORE PUSH1 0x17 PUSH1 0x24 DUP3 ADD MSTORE PUSH32 0x494E53554646494349454E545F434F4C4C41544552414C000000000000000000 PUSH1 0x44 DUP3 ADD MSTORE PUSH1 0x64 ADD PUSH2 0x4D6 JUMP JUMPDEST PUSH2 0xA09 CALLER PUSH2 0x1772 JUMP JUMPDEST CALLER PUSH0 SWAP1 DUP2 MSTORE PUSH1 0x3 PUSH1 0x20 MSTORE PUSH1 0x40 DUP2 KECCAK256 SLOAD PUSH2 0xA23 SWAP1 DUP4 SWAP1 PUSH2 0x1D82 JUMP JUMPDEST CALLER PUSH0 SWAP1 DUP2 MSTORE PUSH1 0x4 PUSH1 0x20 MSTORE PUSH1 0x40 SWAP1 KECCAK256 SLOAD SWAP1 SWAP2 POP PUSH8 0xDE0B6B3A7640000 PUSH2 0xA48 DUP4 DUP4 PUSH2 0x19C3 JUMP JUMPDEST LT ISZERO PUSH2 0xA85 JUMPI PUSH1 0x40 MLOAD PUSH3 0x461BCD PUSH1 0xE5 SHL DUP2 MSTORE PUSH1 0x20 PUSH1 0x4 DUP3 ADD MSTORE PUSH1 0xC PUSH1 0x24 DUP3 ADD MSTORE PUSH12 0x48465F42454C4F575F4F4E45 PUSH1 0xA0 SHL PUSH1 0x44 DUP3 ADD MSTORE PUSH1 0x64 ADD PUSH2 0x4D6 JUMP JUMPDEST CALLER PUSH0 SWAP1 DUP2 MSTORE PUSH1 0x3 PUSH1 0x20 MSTORE PUSH1 0x40 DUP2 KECCAK256 DUP4 SWAP1 SSTORE PUSH1 0x8 DUP1 SLOAD DUP6 SWAP3 SWAP1 PUSH2 0xAA8 SWAP1 DUP5 SWAP1 PUSH2 0x1D82 JUMP JUMPDEST SWAP1 SWAP2 SSTORE POP POP PUSH1 0x40 MLOAD PUSH0 SWAP1 CALLER SWAP1 DUP6 SWAP1 DUP4 DUP2 DUP2 DUP2 DUP6 DUP8 GAS CALL SWAP3 POP POP POP RETURNDATASIZE DUP1 PUSH0 DUP2 EQ PUSH2 0xAEC JUMPI PUSH1 0x40 MLOAD SWAP2 POP PUSH1 0x1F NOT PUSH1 0x3F RETURNDATASIZE ADD AND DUP3 ADD PUSH1 0x40 MSTORE RETURNDATASIZE DUP3 MSTORE RETURNDATASIZE PUSH0 PUSH1 0x20 DUP5 ADD RETURNDATACOPY PUSH2 0xAF1 JUMP JUMPDEST PUSH1 0x60 SWAP2 POP JUMPDEST POP POP SWAP1 POP DUP1 PUSH2 0xB38 JUMPI PUSH1 0x40 MLOAD PUSH3 0x461BCD PUSH1 0xE5 SHL DUP2 MSTORE PUSH1 0x20 PUSH1 0x4 DUP3 ADD MSTORE PUSH1 0x13 PUSH1 0x24 DUP3 ADD MSTORE PUSH19 0x11551217D514905394D1915497D19052531151 PUSH1 0x6A SHL PUSH1 0x44 DUP3 ADD MSTORE PUSH1 0x64 ADD PUSH2 0x4D6 JUMP JUMPDEST PUSH1 0x40 MLOAD DUP5 DUP2 MSTORE CALLER SWAP1 PUSH32 0xA8E76B822FC682BE77F3B1C822EA81F6BDA5AED92BA82E6873BFD889F328D1D2 SWAP1 PUSH1 0x20 ADD JUMPDEST PUSH1 0x40 MLOAD DUP1 SWAP2 SUB SWAP1 LOG2 POP POP POP POP JUMP JUMPDEST PUSH0 CALLVALUE GT PUSH2 0xBB5 JUMPI PUSH1 0x40 MLOAD PUSH3 0x461BCD PUSH1 0xE5 SHL DUP2 MSTORE PUSH1 0x20 PUSH1 0x4 DUP3 ADD MSTORE PUSH1 0xF PUSH1 0x24 DUP3 ADD MSTORE PUSH15 0x16915493D7D0D3D313105511549053 PUSH1 0x8A SHL PUSH1 0x44 DUP3 ADD MSTORE PUSH1 0x64 ADD PUSH2 0x4D6 JUMP JUMPDEST CALLER PUSH0 SWAP1 DUP2 MSTORE PUSH1 0x3 PUSH1 0x20 MSTORE PUSH1 0x40 DUP2 KECCAK256 DUP1 SLOAD CALLVALUE SWAP3 SWAP1 PUSH2 0xBD3 SWAP1 DUP5 SWAP1 PUSH2 0x1DDD JUMP JUMPDEST SWAP3 POP POP DUP2 SWAP1 SSTORE POP CALLVALUE PUSH1 0x8 PUSH0 DUP3 DUP3 SLOAD PUSH2 0xBEB SWAP2 SWAP1 PUSH2 0x1DDD JUMP JUMPDEST SWAP1 SWAP2 SSTORE POP POP PUSH1 0x40 MLOAD CALLVALUE DUP2 MSTORE CALLER SWAP1 PUSH32 0x8C66C9368F6312EB21BF56ACBD3A20448F7D1589D024C30482C3D0A33125523E SWAP1 PUSH1 0x20 ADD PUSH1 0x40 MLOAD DUP1 SWAP2 SUB SWAP1 LOG2 JUMP JUMPDEST PUSH0 DUP2 GT PUSH2 0xC46 JUMPI PUSH1 0x40 MLOAD PUSH3 0x461BCD PUSH1 0xE5 SHL DUP2 MSTORE PUSH1 0x4 ADD PUSH2 0x4D6 SWAP1 PUSH2 0x1CFC JUMP JUMPDEST PUSH0 PUSH2 0xC4F PUSH2 0x16EA JUMP JUMPDEST SWAP1 POP PUSH0 PUSH1 0x2 PUSH0 SWAP1 SLOAD SWAP1 PUSH2 0x100 EXP SWAP1 DIV PUSH1 0x1 PUSH1 0x1 PUSH1 0xA0 SHL SUB AND PUSH1 0x1 PUSH1 0x1 PUSH1 0xA0 SHL SUB AND PUSH4 0x18160DDD PUSH1 0x40 MLOAD DUP2 PUSH4 0xFFFFFFFF AND PUSH1 0xE0 SHL DUP2 MSTORE PUSH1 0x4 ADD PUSH1 0x20 PUSH1 0x40 MLOAD DUP1 DUP4 SUB DUP2 DUP7 GAS STATICCALL ISZERO DUP1 ISZERO PUSH2 0xCA2 JUMPI RETURNDATASIZE PUSH0 PUSH0 RETURNDATACOPY RETURNDATASIZE PUSH0 REVERT JUMPDEST POP POP POP POP PUSH1 0x40 MLOAD RETURNDATASIZE PUSH1 0x1F NOT PUSH1 0x1F DUP3 ADD AND DUP3 ADD DUP1 PUSH1 0x40 MSTORE POP DUP2 ADD SWAP1 PUSH2 0xCC6 SWAP2 SWAP1 PUSH2 0x1D21 JUMP JUMPDEST SWAP1 POP PUSH0 DUP2 PUSH0 SUB PUSH2 0xCD7 JUMPI POP DUP3 PUSH2 0xD30 JUMP JUMPDEST PUSH0 DUP4 GT PUSH2 0xD18 JUMPI PUSH1 0x40 MLOAD PUSH3 0x461BCD PUSH1 0xE5 SHL DUP2 MSTORE PUSH1 0x20 PUSH1 0x4 DUP3 ADD MSTORE PUSH1 0xF PUSH1 0x24 DUP3 ADD MSTORE PUSH15 0x5A45524F5F504F4F4C5F56414C5545 PUSH1 0x88 SHL PUSH1 0x44 DUP3 ADD MSTORE PUSH1 0x64 ADD PUSH2 0x4D6 JUMP JUMPDEST DUP3 PUSH2 0xD23 DUP4 DUP7 PUSH2 0x1D4C JUMP JUMPDEST PUSH2 0xD2D SWAP2 SWAP1 PUSH2 0x1D63 JUMP JUMPDEST SWAP1 POP JUMPDEST PUSH0 SLOAD PUSH1 0x40 MLOAD PUSH4 0x23B872DD PUSH1 0xE0 SHL DUP2 MSTORE CALLER PUSH1 0x4 DUP3 ADD MSTORE ADDRESS PUSH1 0x24 DUP3 ADD MSTORE PUSH1 0x44 DUP2 ADD DUP7 SWAP1 MSTORE PUSH1 0x1 PUSH1 0x1 PUSH1 0xA0 SHL SUB SWAP1 SWAP2 AND SWAP1 PUSH4 0x23B872DD SWAP1 PUSH1 0x64 ADD PUSH1 0x20 PUSH1 0x40 MLOAD DUP1 DUP4 SUB DUP2 PUSH0 DUP8 GAS CALL ISZERO DUP1 ISZERO PUSH2 0xD83 JUMPI RETURNDATASIZE PUSH0 PUSH0 RETURNDATACOPY RETURNDATASIZE PUSH0 REVERT JUMPDEST POP POP POP POP PUSH1 0x40 MLOAD RETURNDATASIZE PUSH1 0x1F NOT PUSH1 0x1F DUP3 ADD AND DUP3 ADD DUP1 PUSH1 0x40 MSTORE POP DUP2 ADD SWAP1 PUSH2 0xDA7 SWAP2 SWAP1 PUSH2 0x1D95 JUMP JUMPDEST PUSH2 0xDC3 JUMPI PUSH1 0x40 MLOAD PUSH3 0x461BCD PUSH1 0xE5 SHL DUP2 MSTORE PUSH1 0x4 ADD PUSH2 0x4D6 SWAP1 PUSH2 0x1DB4 JUMP JUMPDEST PUSH1 0x2 SLOAD PUSH1 0x40 MLOAD PUSH4 0x40C10F19 PUSH1 0xE0 SHL DUP2 MSTORE CALLER PUSH1 0x4 DUP3 ADD MSTORE PUSH1 0x24 DUP2 ADD DUP4 SWAP1 MSTORE PUSH1 0x1 PUSH1 0x1 PUSH1 0xA0 SHL SUB SWAP1 SWAP2 AND SWAP1 PUSH4 0x40C10F19 SWAP1 PUSH1 0x44 ADD PUSH0 PUSH1 0x40 MLOAD DUP1 DUP4 SUB DUP2 PUSH0 DUP8 DUP1 EXTCODESIZE ISZERO DUP1 ISZERO PUSH2 0xE0C JUMPI PUSH0 PUSH0 REVERT JUMPDEST POP GAS CALL ISZERO DUP1 ISZERO PUSH2 0xE1E JUMPI RETURNDATASIZE PUSH0 PUSH0 RETURNDATACOPY RETURNDATASIZE PUSH0 REVERT JUMPDEST POP POP POP POP DUP4 PUSH1 0x9 PUSH0 DUP3 DUP3 SLOAD PUSH2 0xE33 SWAP2 SWAP1 PUSH2 0x1DDD JUMP JUMPDEST SWAP1 SWAP2 SSTORE POP POP PUSH1 0x40 MLOAD DUP5 DUP2 MSTORE CALLER SWAP1 PUSH32 0x3BDB4D376F46AAC1BDCDA94B03200364052B278ED93865D759BF61452BFABDBA SWAP1 PUSH1 0x20 ADD PUSH2 0xB66 JUMP JUMPDEST PUSH0 PUSH2 0x7C3 PUSH2 0x191B JUMP JUMPDEST PUSH0 PUSH2 0xE7D DUP3 PUSH2 0x1AA3 JUMP JUMPDEST SWAP3 SWAP2 POP POP JUMP JUMPDEST PUSH0 DUP1 SLOAD PUSH1 0x40 MLOAD PUSH4 0x70A08231 PUSH1 0xE0 SHL DUP2 MSTORE ADDRESS PUSH1 0x4 DUP3 ADD MSTORE PUSH1 0x1 PUSH1 0x1 PUSH1 0xA0 SHL SUB SWAP1 SWAP2 AND SWAP1 PUSH4 0x70A08231 SWAP1 PUSH1 0x24 ADD PUSH1 0x20 PUSH1 0x40 MLOAD DUP1 DUP4 SUB DUP2 DUP7 GAS STATICCALL ISZERO DUP1 ISZERO PUSH2 0xEC9 JUMPI RETURNDATASIZE PUSH0 PUSH0 RETURNDATACOPY RETURNDATASIZE PUSH0 REVERT JUMPDEST POP POP POP POP PUSH1 0x40 MLOAD RETURNDATASIZE PUSH1 0x1F NOT PUSH1 0x1F DUP3 ADD AND DUP3 ADD DUP1 PUSH1 0x40 MSTORE POP DUP2 ADD SWAP1 PUSH2 0x7C3 SWAP2 SWAP1 PUSH2 0x1D21 JUMP JUMPDEST PUSH0 PUSH0 PUSH2 0xEF7 PUSH2 0x191B JUMP JUMPDEST SWAP1 POP PUSH0 PUSH2 0xF03 DUP3 PUSH2 0x1946 JUMP JUMPDEST SWAP1 POP PUSH2 0x2710 DUP1 PUSH2 0xF15 PUSH2 0x3E8 DUP3 PUSH2 0x1D82 JUMP JUMPDEST PUSH2 0xF1F DUP6 DUP6 PUSH2 0x1D4C JUMP JUMPDEST PUSH2 0xF29 SWAP2 SWAP1 PUSH2 0x1D4C JUMP JUMPDEST PUSH2 0xF33 SWAP2 SWAP1 PUSH2 0x1D63 JUMP JUMPDEST PUSH2 0xF3D SWAP2 SWAP1 PUSH2 0x1D63 JUMP JUMPDEST SWAP3 POP POP POP SWAP1 JUMP JUMPDEST PUSH0 DUP2 GT PUSH2 0xF80 JUMPI PUSH1 0x40 MLOAD PUSH3 0x461BCD PUSH1 0xE5 SHL DUP2 MSTORE PUSH1 0x20 PUSH1 0x4 DUP3 ADD MSTORE PUSH1 0xA PUSH1 0x24 DUP3 ADD MSTORE PUSH10 0x5A45524F5F5245504159 PUSH1 0xB0 SHL PUSH1 0x44 DUP3 ADD MSTORE PUSH1 0x64 ADD PUSH2 0x4D6 JUMP JUMPDEST PUSH1 0x1 SLOAD PUSH1 0x40 DUP1 MLOAD PUSH4 0x4C6AFEE5 PUSH1 0xE1 SHL DUP2 MSTORE SWAP1 MLOAD PUSH0 SWAP3 PUSH1 0x1 PUSH1 0x1 PUSH1 0xA0 SHL SUB AND SWAP2 PUSH4 0x98D5FDCA SWAP2 PUSH1 0x4 DUP1 DUP4 ADD SWAP3 PUSH1 0x20 SWAP3 SWAP2 SWAP1 DUP3 SWAP1 SUB ADD DUP2 DUP7 GAS STATICCALL ISZERO DUP1 ISZERO PUSH2 0xFC7 JUMPI RETURNDATASIZE PUSH0 PUSH0 RETURNDATACOPY RETURNDATASIZE PUSH0 REVERT JUMPDEST POP POP POP POP PUSH1 0x40 MLOAD RETURNDATASIZE PUSH1 0x1F NOT PUSH1 0x1F DUP3 ADD AND DUP3 ADD DUP1 PUSH1 0x40 MSTORE POP DUP2 ADD SWAP1 PUSH2 0xFEB SWAP2 SWAP1 PUSH2 0x1D21 JUMP JUMPDEST SWAP1 POP PUSH0 DUP2 GT PUSH2 0x102C JUMPI PUSH1 0x40 MLOAD PUSH3 0x461BCD PUSH1 0xE5 SHL DUP2 MSTORE PUSH1 0x20 PUSH1 0x4 DUP3 ADD MSTORE PUSH1 0xD PUSH1 0x24 DUP3 ADD MSTORE PUSH13 0x14149250D157D393D517D4D155 PUSH1 0x9A SHL PUSH1 0x44 DUP3 ADD MSTORE PUSH1 0x64 ADD PUSH2 0x4D6 JUMP JUMPDEST PUSH2 0x1035 DUP4 PUSH2 0x1772 JUMP JUMPDEST PUSH1 0x1 PUSH1 0x1 PUSH1 0xA0 SHL SUB DUP4 AND PUSH0 SWAP1 DUP2 MSTORE PUSH1 0x3 PUSH1 0x20 SWAP1 DUP2 MSTORE PUSH1 0x40 DUP1 DUP4 KECCAK256 SLOAD PUSH1 0x4 SWAP1 SWAP3 MSTORE SWAP1 SWAP2 KECCAK256 SLOAD PUSH8 0xDE0B6B3A7640000 SWAP2 PUSH2 0x106C SWAP2 PUSH2 0x19C3 JUMP JUMPDEST LT PUSH2 0x10A8 JUMPI PUSH1 0x40 MLOAD PUSH3 0x461BCD PUSH1 0xE5 SHL DUP2 MSTORE PUSH1 0x20 PUSH1 0x4 DUP3 ADD MSTORE PUSH1 0xC PUSH1 0x24 DUP3 ADD MSTORE PUSH12 0x48465F41424F56455F4F4E45 PUSH1 0xA0 SHL PUSH1 0x44 DUP3 ADD MSTORE PUSH1 0x64 ADD PUSH2 0x4D6 JUMP JUMPDEST PUSH1 0x1 PUSH1 0x1 PUSH1 0xA0 SHL SUB DUP4 AND PUSH0 SWAP1 DUP2 MSTORE PUSH1 0x4 PUSH1 0x20 MSTORE PUSH1 0x40 DUP2 KECCAK256 SLOAD PUSH2 0x10CB SWAP1 DUP5 SWAP1 PUSH2 0x1904 JUMP JUMPDEST SWAP1 POP PUSH0 DUP2 GT PUSH2 0x1113 JUMPI PUSH1 0x40 MLOAD PUSH3 0x461BCD PUSH1 0xE5 SHL DUP2 MSTORE PUSH1 0x20 PUSH1 0x4 DUP3 ADD MSTORE PUSH1 0x14 PUSH1 0x24 DUP3 ADD MSTORE PUSH20 0x4E4F5448494E475F544F5F4C4951554944415445 PUSH1 0x60 SHL PUSH1 0x44 DUP3 ADD MSTORE PUSH1 0x64 ADD PUSH2 0x4D6 JUMP JUMPDEST PUSH0 PUSH2 0x1120 DUP4 PUSH2 0x2710 PUSH2 0x1D4C JUMP JUMPDEST PUSH2 0x112E PUSH2 0x1F4 PUSH2 0x2710 PUSH2 0x1DDD JUMP JUMPDEST PUSH2 0x1138 SWAP1 DUP5 PUSH2 0x1D4C JUMP JUMPDEST PUSH2 0x114A SWAP1 PUSH8 0xDE0B6B3A7640000 PUSH2 0x1D4C JUMP JUMPDEST PUSH2 0x1154 SWAP2 SWAP1 PUSH2 0x1D63 JUMP JUMPDEST PUSH1 0x1 PUSH1 0x1 PUSH1 0xA0 SHL SUB DUP7 AND PUSH0 SWAP1 DUP2 MSTORE PUSH1 0x3 PUSH1 0x20 MSTORE PUSH1 0x40 DUP2 KECCAK256 SLOAD SWAP2 SWAP3 POP SWAP1 PUSH2 0x117B SWAP1 DUP4 SWAP1 PUSH2 0x1904 JUMP JUMPDEST PUSH0 SLOAD PUSH1 0x40 MLOAD PUSH4 0x23B872DD PUSH1 0xE0 SHL DUP2 MSTORE CALLER PUSH1 0x4 DUP3 ADD MSTORE ADDRESS PUSH1 0x24 DUP3 ADD MSTORE PUSH1 0x44 DUP2 ADD DUP7 SWAP1 MSTORE SWAP2 SWAP3 POP PUSH1 0x1 PUSH1 0x1 PUSH1 0xA0 SHL SUB AND SWAP1 PUSH4 0x23B872DD SWAP1 PUSH1 0x64 ADD PUSH1 0x20 PUSH1 0x40 MLOAD DUP1 DUP4 SUB DUP2 PUSH0 DUP8 GAS CALL ISZERO DUP1 ISZERO PUSH2 0x11CF JUMPI RETURNDATASIZE PUSH0 PUSH0 RETURNDATACOPY RETURNDATASIZE PUSH0 REVERT JUMPDEST POP POP POP POP PUSH1 0x40 MLOAD RETURNDATASIZE PUSH1 0x1F NOT PUSH1 0x1F DUP3 ADD AND DUP3 ADD DUP1 PUSH1 0x40 MSTORE POP DUP2 ADD SWAP1 PUSH2 0x11F3 SWAP2 SWAP1 PUSH2 0x1D95 JUMP JUMPDEST PUSH2 0x120F JUMPI PUSH1 0x40 MLOAD PUSH3 0x461BCD PUSH1 0xE5 SHL DUP2 MSTORE PUSH1 0x4 ADD PUSH2 0x4D6 SWAP1 PUSH2 0x1DB4 JUMP JUMPDEST PUSH1 0x1 PUSH1 0x1 PUSH1 0xA0 SHL SUB DUP7 AND PUSH0 SWAP1 DUP2 MSTORE PUSH1 0x4 PUSH1 0x20 MSTORE PUSH1 0x40 DUP2 KECCAK256 DUP1 SLOAD DUP6 SWAP3 SWAP1 PUSH2 0x1236 SWAP1 DUP5 SWAP1 PUSH2 0x1D82 JUMP JUMPDEST SWAP3 POP POP DUP2 SWAP1 SSTORE POP DUP3 PUSH1 0x6 PUSH0 DUP3 DUP3 SLOAD PUSH2 0x124E SWAP2 SWAP1 PUSH2 0x1D82 JUMP JUMPDEST SWAP1 SWAP2 SSTORE POP POP PUSH1 0x1 PUSH1 0x1 PUSH1 0xA0 SHL SUB DUP7 AND PUSH0 SWAP1 DUP2 MSTORE PUSH1 0x3 PUSH1 0x20 MSTORE PUSH1 0x40 DUP2 KECCAK256 DUP1 SLOAD DUP4 SWAP3 SWAP1 PUSH2 0x127A SWAP1 DUP5 SWAP1 PUSH2 0x1D82 JUMP JUMPDEST SWAP3 POP POP DUP2 SWAP1 SSTORE POP DUP1 PUSH1 0x8 PUSH0 DUP3 DUP3 SLOAD PUSH2 0x1292 SWAP2 SWAP1 PUSH2 0x1D82 JUMP JUMPDEST SWAP1 SWAP2 SSTORE POP POP PUSH1 0x40 MLOAD PUSH0 SWAP1 CALLER SWAP1 DUP4 SWAP1 DUP4 DUP2 DUP2 DUP2 DUP6 DUP8 GAS CALL SWAP3 POP POP POP RETURNDATASIZE DUP1 PUSH0 DUP2 EQ PUSH2 0x12D6 JUMPI PUSH1 0x40 MLOAD SWAP2 POP PUSH1 0x1F NOT PUSH1 0x3F RETURNDATASIZE ADD AND DUP3 ADD PUSH1 0x40 MSTORE RETURNDATASIZE DUP3 MSTORE RETURNDATASIZE PUSH0 PUSH1 0x20 DUP5 ADD RETURNDATACOPY PUSH2 0x12DB JUMP JUMPDEST PUSH1 0x60 SWAP2 POP JUMPDEST POP POP SWAP1 POP DUP1 PUSH2 0x1322 JUMPI PUSH1 0x40 MLOAD PUSH3 0x461BCD PUSH1 0xE5 SHL DUP2 MSTORE PUSH1 0x20 PUSH1 0x4 DUP3 ADD MSTORE PUSH1 0x13 PUSH1 0x24 DUP3 ADD MSTORE PUSH19 0x11551217D514905394D1915497D19052531151 PUSH1 0x6A SHL PUSH1 0x44 DUP3 ADD MSTORE PUSH1 0x64 ADD PUSH2 0x4D6 JUMP JUMPDEST PUSH1 0x40 DUP1 MLOAD DUP6 DUP2 MSTORE PUSH1 0x20 DUP2 ADD DUP5 SWAP1 MSTORE CALLER SWAP2 PUSH1 0x1 PUSH1 0x1 PUSH1 0xA0 SHL SUB DUP11 AND SWAP2 PUSH32 0xF3FA0EAEE8F258C23B013654DF25D1527F98A5C7CCD5E951DD77CACA400EF972 SWAP2 ADD PUSH1 0x40 MLOAD DUP1 SWAP2 SUB SWAP1 LOG3 POP POP POP POP POP POP POP JUMP JUMPDEST PUSH0 DUP2 GT PUSH2 0x13AE JUMPI PUSH1 0x40 MLOAD PUSH3 0x461BCD PUSH1 0xE5 SHL DUP2 MSTORE PUSH1 0x20 PUSH1 0x4 DUP3 ADD MSTORE PUSH1 0xB PUSH1 0x24 DUP3 ADD MSTORE PUSH11 0x5A45524F5F424F52524F57 PUSH1 0xA8 SHL PUSH1 0x44 DUP3 ADD MSTORE PUSH1 0x64 ADD PUSH2 0x4D6 JUMP JUMPDEST PUSH1 0x1 SLOAD PUSH1 0x40 DUP1 MLOAD PUSH4 0x4C6AFEE5 PUSH1 0xE1 SHL DUP2 MSTORE SWAP1 MLOAD PUSH0 SWAP3 PUSH1 0x1 PUSH1 0x1 PUSH1 0xA0 SHL SUB AND SWAP2 PUSH4 0x98D5FDCA SWAP2 PUSH1 0x4 DUP1 DUP4 ADD SWAP3 PUSH1 0x20 SWAP3 SWAP2 SWAP1 DUP3 SWAP1 SUB ADD DUP2 DUP7 GAS STATICCALL ISZERO DUP1 ISZERO PUSH2 0x13F5 JUMPI RETURNDATASIZE PUSH0 PUSH0 RETURNDATACOPY RETURNDATASIZE PUSH0 REVERT JUMPDEST POP POP POP POP PUSH1 0x40 MLOAD RETURNDATASIZE PUSH1 0x1F NOT PUSH1 0x1F DUP3 ADD AND DUP3 ADD DUP1 PUSH1 0x40 MSTORE POP DUP2 ADD SWAP1 PUSH2 0x1419 SWAP2 SWAP1 PUSH2 0x1D21 JUMP JUMPDEST GT PUSH2 0x1456 JUMPI PUSH1 0x40 MLOAD PUSH3 0x461BCD PUSH1 0xE5 SHL DUP2 MSTORE PUSH1 0x20 PUSH1 0x4 DUP3 ADD MSTORE PUSH1 0xD PUSH1 0x24 DUP3 ADD MSTORE PUSH13 0x14149250D157D393D517D4D155 PUSH1 0x9A SHL PUSH1 0x44 DUP3 ADD MSTORE PUSH1 0x64 ADD PUSH2 0x4D6 JUMP JUMPDEST PUSH2 0x145F CALLER PUSH2 0x1772 JUMP JUMPDEST CALLER PUSH0 SWAP1 DUP2 MSTORE PUSH1 0x3 PUSH1 0x20 MSTORE PUSH1 0x40 SWAP1 KECCAK256 SLOAD PUSH2 0x14AA JUMPI PUSH1 0x40 MLOAD PUSH3 0x461BCD PUSH1 0xE5 SHL DUP2 MSTORE PUSH1 0x20 PUSH1 0x4 DUP3 ADD MSTORE PUSH1 0xD PUSH1 0x24 DUP3 ADD MSTORE PUSH13 0x1393D7D0D3D313105511549053 PUSH1 0x9A SHL PUSH1 0x44 DUP3 ADD MSTORE PUSH1 0x64 ADD PUSH2 0x4D6 JUMP JUMPDEST CALLER PUSH0 DUP2 DUP2 MSTORE PUSH1 0x4 PUSH1 0x20 MSTORE PUSH1 0x40 DUP2 KECCAK256 SLOAD SWAP2 PUSH2 0x2710 SWAP1 PUSH2 0x1B58 SWAP1 PUSH2 0x14CB SWAP1 PUSH2 0x1AA3 JUMP JUMPDEST PUSH2 0x14D5 SWAP2 SWAP1 PUSH2 0x1D4C JUMP JUMPDEST PUSH2 0x14DF SWAP2 SWAP1 PUSH2 0x1D63 JUMP JUMPDEST SWAP1 POP PUSH0 PUSH2 0x14EC DUP5 DUP5 PUSH2 0x1DDD JUMP JUMPDEST SWAP1 POP DUP2 DUP2 GT ISZERO PUSH2 0x1534 JUMPI PUSH1 0x40 MLOAD PUSH3 0x461BCD PUSH1 0xE5 SHL DUP2 MSTORE PUSH1 0x20 PUSH1 0x4 DUP3 ADD MSTORE PUSH1 0x13 PUSH1 0x24 DUP3 ADD MSTORE PUSH19 0x13505617D093D49493D5D7D15610D151511151 PUSH1 0x6A SHL PUSH1 0x44 DUP3 ADD MSTORE PUSH1 0x64 ADD PUSH2 0x4D6 JUMP JUMPDEST PUSH0 SLOAD PUSH1 0x40 MLOAD PUSH4 0x70A08231 PUSH1 0xE0 SHL DUP2 MSTORE ADDRESS PUSH1 0x4 DUP3 ADD MSTORE PUSH1 0x1 PUSH1 0x1 PUSH1 0xA0 SHL SUB SWAP1 SWAP2 AND SWAP1 PUSH4 0x70A08231 SWAP1 PUSH1 0x24 ADD PUSH1 0x20 PUSH1 0x40 MLOAD DUP1 DUP4 SUB DUP2 DUP7 GAS STATICCALL ISZERO DUP1 ISZERO PUSH2 0x1579 JUMPI RETURNDATASIZE PUSH0 PUSH0 RETURNDATACOPY RETURNDATASIZE PUSH0 REVERT JUMPDEST POP POP POP POP PUSH1 0x40 MLOAD RETURNDATASIZE PUSH1 0x1F NOT PUSH1 0x1F DUP3 ADD AND DUP3 ADD DUP1 PUSH1 0x40 MSTORE POP DUP2 ADD SWAP1 PUSH2 0x159D SWAP2 SWAP1 PUSH2 0x1D21 JUMP JUMPDEST DUP5 GT ISZERO PUSH2 0x15E5 JUMPI PUSH1 0x40 MLOAD PUSH3 0x461BCD PUSH1 0xE5 SHL DUP2 MSTORE PUSH1 0x20 PUSH1 0x4 DUP3 ADD MSTORE PUSH1 0x16 PUSH1 0x24 DUP3 ADD MSTORE PUSH22 0x494E53554646494349454E545F4C4951554944495459 PUSH1 0x50 SHL PUSH1 0x44 DUP3 ADD MSTORE PUSH1 0x64 ADD PUSH2 0x4D6 JUMP JUMPDEST PUSH0 SLOAD PUSH1 0x40 MLOAD PUSH4 0xA9059CBB PUSH1 0xE0 SHL DUP2 MSTORE CALLER PUSH1 0x4 DUP3 ADD MSTORE PUSH1 0x24 DUP2 ADD DUP7 SWAP1 MSTORE PUSH1 0x1 PUSH1 0x1 PUSH1 0xA0 SHL SUB SWAP1 SWAP2 AND SWAP1 PUSH4 0xA9059CBB SWAP1 PUSH1 0x44 ADD PUSH1 0x20 PUSH1 0x40 MLOAD DUP1 DUP4 SUB DUP2 PUSH0 DUP8 GAS CALL ISZERO DUP1 ISZERO PUSH2 0x1632 JUMPI RETURNDATASIZE PUSH0 PUSH0 RETURNDATACOPY RETURNDATASIZE PUSH0 REVERT JUMPDEST POP POP POP POP PUSH1 0x40 MLOAD RETURNDATASIZE PUSH1 0x1F NOT PUSH1 0x1F DUP3 ADD AND DUP3 ADD DUP1 PUSH1 0x40 MSTORE POP DUP2 ADD SWAP1 PUSH2 0x1656 SWAP2 SWAP1 PUSH2 0x1D95 JUMP JUMPDEST PUSH2 0x1672 JUMPI PUSH1 0x40 MLOAD PUSH3 0x461BCD PUSH1 0xE5 SHL DUP2 MSTORE PUSH1 0x4 ADD PUSH2 0x4D6 SWAP1 PUSH2 0x1DB4 JUMP JUMPDEST CALLER PUSH0 SWAP1 DUP2 MSTORE PUSH1 0x4 PUSH1 0x20 MSTORE PUSH1 0x40 DUP2 KECCAK256 DUP3 SWAP1 SSTORE PUSH1 0x6 DUP1 SLOAD DUP7 SWAP3 SWAP1 PUSH2 0x1695 SWAP1 DUP5 SWAP1 PUSH2 0x1DDD JUMP JUMPDEST SWAP1 SWAP2 SSTORE POP POP PUSH1 0x40 MLOAD DUP5 DUP2 MSTORE CALLER SWAP1 PUSH32 0xCBC04ECA7E9DA35CB1393A6135A199CA52E450D5E9251CBD99F7847D33A36750 SWAP1 PUSH1 0x20 ADD PUSH2 0xB66 JUMP JUMPDEST PUSH0 PUSH2 0xE7D DUP3 PUSH2 0x1B4D JUMP JUMPDEST PUSH0 PUSH2 0xE7D DUP3 PUSH2 0x1B57 JUMP JUMPDEST PUSH0 PUSH2 0xE7D DUP3 PUSH2 0x1BA4 JUMP JUMPDEST PUSH1 0x7 SLOAD PUSH1 0x6 SLOAD PUSH0 DUP1 SLOAD PUSH1 0x40 MLOAD PUSH4 0x70A08231 PUSH1 0xE0 SHL DUP2 MSTORE ADDRESS PUSH1 0x4 DUP3 ADD MSTORE SWAP2 SWAP4 SWAP3 SWAP2 PUSH1 0x1 PUSH1 0x1 PUSH1 0xA0 SHL SUB SWAP1 SWAP2 AND SWAP1 PUSH4 0x70A08231 SWAP1 PUSH1 0x24 ADD PUSH1 0x20 PUSH1 0x40 MLOAD DUP1 DUP4 SUB DUP2 DUP7 GAS STATICCALL ISZERO DUP1 ISZERO PUSH2 0x173A JUMPI RETURNDATASIZE PUSH0 PUSH0 RETURNDATACOPY RETURNDATASIZE PUSH0 REVERT JUMPDEST POP POP POP POP PUSH1 0x40 MLOAD RETURNDATASIZE PUSH1 0x1F NOT PUSH1 0x1F DUP3 ADD AND DUP3 ADD DUP1 PUSH1 0x40 MSTORE POP DUP2 ADD SWAP1 PUSH2 0x175E SWAP2 SWAP1 PUSH2 0x1D21 JUMP JUMPDEST PUSH2 0x1768 SWAP2 SWAP1 PUSH2 0x1DDD JUMP JUMPDEST PUSH2 0x7C3 SWAP2 SWAP1 PUSH2 0x1D82 JUMP JUMPDEST PUSH1 0x1 PUSH1 0x1 PUSH1 0xA0 SHL SUB DUP2 AND PUSH0 SWAP1 DUP2 MSTORE PUSH1 0x4 PUSH1 0x20 SWAP1 DUP2 MSTORE PUSH1 0x40 DUP1 DUP4 KECCAK256 SLOAD PUSH1 0x5 SWAP1 SWAP3 MSTORE DUP3 KECCAK256 SLOAD SWAP1 SWAP2 SUB PUSH2 0x17B8 JUMPI POP PUSH1 0x1 PUSH1 0x1 PUSH1 0xA0 SHL SUB AND PUSH0 SWAP1 DUP2 MSTORE PUSH1 0x5 PUSH1 0x20 MSTORE PUSH1 0x40 SWAP1 KECCAK256 TIMESTAMP SWAP1 SSTORE JUMP JUMPDEST PUSH1 0x1 PUSH1 0x1 PUSH1 0xA0 SHL SUB DUP3 AND PUSH0 SWAP1 DUP2 MSTORE PUSH1 0x5 PUSH1 0x20 MSTORE PUSH1 0x40 DUP2 KECCAK256 SLOAD PUSH2 0x17DA SWAP1 TIMESTAMP PUSH2 0x1D82 JUMP JUMPDEST SWAP1 POP DUP1 ISZERO DUP1 PUSH2 0x17E7 JUMPI POP DUP2 ISZERO JUMPDEST ISZERO PUSH2 0x1809 JUMPI POP POP PUSH1 0x1 PUSH1 0x1 PUSH1 0xA0 SHL SUB AND PUSH0 SWAP1 DUP2 MSTORE PUSH1 0x5 PUSH1 0x20 MSTORE PUSH1 0x40 SWAP1 KECCAK256 TIMESTAMP SWAP1 SSTORE JUMP JUMPDEST PUSH0 PUSH2 0x1812 PUSH2 0x191B JUMP JUMPDEST SWAP1 POP PUSH0 PUSH2 0x181E DUP3 PUSH2 0x1946 JUMP JUMPDEST SWAP1 POP PUSH0 PUSH5 0x496CEBB800 DUP5 PUSH2 0x1832 DUP5 DUP9 PUSH2 0x1D4C JUMP JUMPDEST PUSH2 0x183C SWAP2 SWAP1 PUSH2 0x1D4C JUMP JUMPDEST PUSH2 0x1846 SWAP2 SWAP1 PUSH2 0x1D63 JUMP JUMPDEST SWAP1 POP DUP1 PUSH0 SUB PUSH2 0x1871 JUMPI POP POP POP PUSH1 0x1 PUSH1 0x1 PUSH1 0xA0 SHL SUB SWAP1 SWAP3 AND PUSH0 SWAP1 DUP2 MSTORE PUSH1 0x5 PUSH1 0x20 MSTORE PUSH1 0x40 SWAP1 KECCAK256 TIMESTAMP SWAP1 SSTORE POP POP JUMP JUMPDEST PUSH0 PUSH2 0x2710 PUSH2 0x1881 PUSH2 0x3E8 DUP5 PUSH2 0x1D4C JUMP JUMPDEST PUSH2 0x188B SWAP2 SWAP1 PUSH2 0x1D63 JUMP JUMPDEST SWAP1 POP PUSH2 0x1897 DUP3 DUP8 PUSH2 0x1DDD JUMP JUMPDEST PUSH1 0x1 PUSH1 0x1 PUSH1 0xA0 SHL SUB DUP9 AND PUSH0 SWAP1 DUP2 MSTORE PUSH1 0x4 PUSH1 0x20 MSTORE PUSH1 0x40 DUP2 KECCAK256 SWAP2 SWAP1 SWAP2 SSTORE PUSH1 0x6 DUP1 SLOAD DUP5 SWAP3 SWAP1 PUSH2 0x18C4 SWAP1 DUP5 SWAP1 PUSH2 0x1DDD JUMP JUMPDEST SWAP3 POP POP DUP2 SWAP1 SSTORE POP DUP1 PUSH1 0x7 PUSH0 DUP3 DUP3 SLOAD PUSH2 0x18DC SWAP2 SWAP1 PUSH2 0x1DDD JUMP JUMPDEST SWAP1 SWAP2 SSTORE POP POP POP PUSH1 0x1 PUSH1 0x1 PUSH1 0xA0 SHL SUB SWAP1 SWAP6 AND PUSH0 SWAP1 DUP2 MSTORE PUSH1 0x5 PUSH1 0x20 MSTORE PUSH1 0x40 SWAP1 KECCAK256 TIMESTAMP SWAP1 SSTORE POP POP POP POP POP JUMP JUMPDEST PUSH0 DUP2 DUP4 LT PUSH2 0x1912 JUMPI DUP2 PUSH2 0x1914 JUMP JUMPDEST DUP3 JUMPDEST SWAP4 SWAP3 POP POP POP JUMP JUMPDEST PUSH0 PUSH1 0x9 SLOAD PUSH0 SUB PUSH2 0x192A JUMPI POP PUSH0 SWAP1 JUMP JUMPDEST PUSH1 0x9 SLOAD PUSH1 0x6 SLOAD PUSH2 0x193C SWAP1 PUSH2 0x2710 PUSH2 0x1D4C JUMP JUMPDEST PUSH2 0x7C3 SWAP2 SWAP1 PUSH2 0x1D63 JUMP JUMPDEST PUSH0 PUSH2 0x1F40 DUP3 GT PUSH2 0x1974 JUMPI PUSH2 0x1F40 PUSH2 0x195F PUSH2 0x3E8 DUP5 PUSH2 0x1D4C JUMP JUMPDEST PUSH2 0x1969 SWAP2 SWAP1 PUSH2 0x1D63 JUMP JUMPDEST PUSH2 0xE7D SWAP1 PUSH1 0xC8 PUSH2 0x1DDD JUMP JUMPDEST PUSH0 PUSH2 0x1981 PUSH2 0x1F40 DUP5 PUSH2 0x1D82 JUMP JUMPDEST SWAP1 POP PUSH2 0x1991 PUSH2 0x1F40 PUSH2 0x2710 PUSH2 0x1D82 JUMP JUMPDEST PUSH2 0x199D PUSH2 0xFA0 DUP4 PUSH2 0x1D4C JUMP JUMPDEST PUSH2 0x19A7 SWAP2 SWAP1 PUSH2 0x1D63 JUMP JUMPDEST PUSH2 0x19B4 PUSH2 0x3E8 PUSH1 0xC8 PUSH2 0x1DDD JUMP JUMPDEST PUSH2 0x1914 SWAP2 SWAP1 PUSH2 0x1DDD JUMP JUMPDEST SWAP2 SWAP1 POP JUMP JUMPDEST PUSH0 DUP2 PUSH0 SUB PUSH2 0x19D3 JUMPI POP PUSH0 NOT PUSH2 0xE7D JUMP JUMPDEST PUSH0 PUSH8 0xDE0B6B3A7640000 PUSH1 0x1 PUSH0 SWAP1 SLOAD SWAP1 PUSH2 0x100 EXP SWAP1 DIV PUSH1 0x1 PUSH1 0x1 PUSH1 0xA0 SHL SUB AND PUSH1 0x1 PUSH1 0x1 PUSH1 0xA0 SHL SUB AND PUSH4 0x98D5FDCA PUSH1 0x40 MLOAD DUP2 PUSH4 0xFFFFFFFF AND PUSH1 0xE0 SHL DUP2 MSTORE PUSH1 0x4 ADD PUSH1 0x20 PUSH1 0x40 MLOAD DUP1 DUP4 SUB DUP2 DUP7 GAS STATICCALL ISZERO DUP1 ISZERO PUSH2 0x1A2D JUMPI RETURNDATASIZE PUSH0 PUSH0 RETURNDATACOPY RETURNDATASIZE PUSH0 REVERT JUMPDEST POP POP POP POP PUSH1 0x40 MLOAD RETURNDATASIZE PUSH1 0x1F NOT PUSH1 0x1F DUP3 ADD AND DUP3 ADD DUP1 PUSH1 0x40 MSTORE POP DUP2 ADD SWAP1 PUSH2 0x1A51 SWAP2 SWAP1 PUSH2 0x1D21 JUMP JUMPDEST PUSH2 0x1A5B SWAP1 DUP7 PUSH2 0x1D4C JUMP JUMPDEST PUSH2 0x1A65 SWAP2 SWAP1 PUSH2 0x1D63 JUMP JUMPDEST SWAP1 POP PUSH2 0x1A73 DUP4 PUSH2 0x2710 PUSH2 0x1D4C JUMP JUMPDEST PUSH2 0x1A7F PUSH2 0x1F40 DUP4 PUSH2 0x1D4C JUMP JUMPDEST PUSH2 0x1A91 SWAP1 PUSH8 0xDE0B6B3A7640000 PUSH2 0x1D4C JUMP JUMPDEST PUSH2 0x1A9B SWAP2 SWAP1 PUSH2 0x1D63 JUMP JUMPDEST SWAP5 SWAP4 POP POP POP POP JUMP JUMPDEST PUSH0 PUSH8 0xDE0B6B3A7640000 PUSH1 0x1 PUSH0 SWAP1 SLOAD SWAP1 PUSH2 0x100 EXP SWAP1 DIV PUSH1 0x1 PUSH1 0x1 PUSH1 0xA0 SHL SUB AND PUSH1 0x1 PUSH1 0x1 PUSH1 0xA0 SHL SUB AND PUSH4 0x98D5FDCA PUSH1 0x40 MLOAD DUP2 PUSH4 0xFFFFFFFF AND PUSH1 0xE0 SHL DUP2 MSTORE PUSH1 0x4 ADD PUSH1 0x20 PUSH1 0x40 MLOAD DUP1 DUP4 SUB DUP2 DUP7 GAS STATICCALL ISZERO DUP1 ISZERO PUSH2 0x1AFD JUMPI RETURNDATASIZE PUSH0 PUSH0 RETURNDATACOPY RETURNDATASIZE PUSH0 REVERT JUMPDEST POP POP POP POP PUSH1 0x40 MLOAD RETURNDATASIZE PUSH1 0x1F NOT PUSH1 0x1F DUP3 ADD AND DUP3 ADD DUP1 PUSH1 0x40 MSTORE POP DUP2 ADD SWAP1 PUSH2 0x1B21 SWAP2 SWAP1 PUSH2 0x1D21 JUMP JUMPDEST PUSH1 0x1 PUSH1 0x1 PUSH1 0xA0 SHL SUB DUP5 AND PUSH0 SWAP1 DUP2 MSTORE PUSH1 0x3 PUSH1 0x20 MSTORE PUSH1 0x40 SWAP1 KECCAK256 SLOAD PUSH2 0x1B43 SWAP2 SWAP1 PUSH2 0x1D4C JUMP JUMPDEST PUSH2 0xE7D SWAP2 SWAP1 PUSH2 0x1D63 JUMP JUMPDEST PUSH0 PUSH2 0xE7D DUP3 PUSH2 0x1BCE JUMP JUMPDEST PUSH0 PUSH0 PUSH2 0x2710 PUSH2 0x1B58 PUSH2 0x1B68 DUP6 PUSH2 0x1AA3 JUMP JUMPDEST PUSH2 0x1B72 SWAP2 SWAP1 PUSH2 0x1D4C JUMP JUMPDEST PUSH2 0x1B7C SWAP2 SWAP1 PUSH2 0x1D63 JUMP JUMPDEST SWAP1 POP PUSH0 PUSH2 0x1B88 DUP5 PUSH2 0x1B4D JUMP JUMPDEST SWAP1 POP DUP1 DUP3 GT PUSH2 0x1B9A JUMPI POP PUSH0 SWAP4 SWAP3 POP POP POP JUMP JUMPDEST PUSH2 0x1A9B DUP2 DUP4 PUSH2 0x1D82 JUMP JUMPDEST PUSH1 0x1 PUSH1 0x1 PUSH1 0xA0 SHL SUB DUP2 AND PUSH0 SWAP1 DUP2 MSTORE PUSH1 0x3 PUSH1 0x20 MSTORE PUSH1 0x40 DUP2 KECCAK256 SLOAD PUSH2 0xE7D SWAP1 PUSH2 0x1BC9 DUP5 PUSH2 0x1B4D JUMP JUMPDEST PUSH2 0x19C3 JUMP JUMPDEST PUSH1 0x1 PUSH1 0x1 PUSH1 0xA0 SHL SUB DUP2 AND PUSH0 SWAP1 DUP2 MSTORE PUSH1 0x4 PUSH1 0x20 SWAP1 DUP2 MSTORE PUSH1 0x40 DUP1 DUP4 KECCAK256 SLOAD PUSH1 0x5 SWAP1 SWAP3 MSTORE DUP3 KECCAK256 SLOAD DUP3 SUB PUSH2 0x1BFF JUMPI POP PUSH0 SWAP3 SWAP2 POP POP JUMP JUMPDEST PUSH1 0x1 PUSH1 0x1 PUSH1 0xA0 SHL SUB DUP4 AND PUSH0 SWAP1 DUP2 MSTORE PUSH1 0x5 PUSH1 0x20 MSTORE PUSH1 0x40 DUP2 KECCAK256 SLOAD PUSH2 0x1C21 SWAP1 TIMESTAMP PUSH2 0x1D82 JUMP JUMPDEST SWAP1 POP DUP1 ISZERO DUP1 PUSH2 0x1C2E JUMPI POP DUP2 ISZERO JUMPDEST ISZERO PUSH2 0x1C3A JUMPI POP SWAP3 SWAP2 POP POP JUMP JUMPDEST PUSH0 PUSH2 0x1C43 PUSH2 0x191B JUMP JUMPDEST SWAP1 POP PUSH0 PUSH2 0x1C4F DUP3 PUSH2 0x1946 JUMP JUMPDEST SWAP1 POP PUSH0 PUSH5 0x496CEBB800 DUP5 PUSH2 0x1C63 DUP5 DUP9 PUSH2 0x1D4C JUMP JUMPDEST PUSH2 0x1C6D SWAP2 SWAP1 PUSH2 0x1D4C JUMP JUMPDEST PUSH2 0x1C77 SWAP2 SWAP1 PUSH2 0x1D63 JUMP JUMPDEST SWAP1 POP PUSH2 0x1C83 DUP2 DUP7 PUSH2 0x1DDD JUMP JUMPDEST SWAP8 SWAP7 POP POP POP POP POP POP POP JUMP JUMPDEST PUSH0 PUSH1 0x20 DUP3 DUP5 SUB SLT ISZERO PUSH2 0x1C9E JUMPI PUSH0 PUSH0 REVERT JUMPDEST POP CALLDATALOAD SWAP2 SWAP1 POP JUMP JUMPDEST DUP1 CALLDATALOAD PUSH1 0x1 PUSH1 0x1 PUSH1 0xA0 SHL SUB DUP2 AND DUP2 EQ PUSH2 0x19BE JUMPI PUSH0 PUSH0 REVERT JUMPDEST PUSH0 PUSH1 0x20 DUP3 DUP5 SUB SLT ISZERO PUSH2 0x1CCB JUMPI PUSH0 PUSH0 REVERT JUMPDEST PUSH2 0x1914 DUP3 PUSH2 0x1CA5 JUMP JUMPDEST PUSH0 PUSH0 PUSH1 0x40 DUP4 DUP6 SUB SLT ISZERO PUSH2 0x1CE5 JUMPI PUSH0 PUSH0 REVERT JUMPDEST PUSH2 0x1CEE DUP4 PUSH2 0x1CA5 JUMP JUMPDEST SWAP5 PUSH1 0x20 SWAP4 SWAP1 SWAP4 ADD CALLDATALOAD SWAP4 POP POP POP JUMP JUMPDEST PUSH1 0x20 DUP1 DUP3 MSTORE PUSH1 0xB SWAP1 DUP3 ADD MSTORE PUSH11 0x16915493D7D05353D55395 PUSH1 0xAA SHL PUSH1 0x40 DUP3 ADD MSTORE PUSH1 0x60 ADD SWAP1 JUMP JUMPDEST PUSH0 PUSH1 0x20 DUP3 DUP5 SUB SLT ISZERO PUSH2 0x1D31 JUMPI PUSH0 PUSH0 REVERT JUMPDEST POP MLOAD SWAP2 SWAP1 POP JUMP JUMPDEST PUSH4 0x4E487B71 PUSH1 0xE0 SHL PUSH0 MSTORE PUSH1 0x11 PUSH1 0x4 MSTORE PUSH1 0x24 PUSH0 REVERT JUMPDEST DUP1 DUP3 MUL DUP2 ISZERO DUP3 DUP3 DIV DUP5 EQ OR PUSH2 0xE7D JUMPI PUSH2 0xE7D PUSH2 0x1D38 JUMP JUMPDEST PUSH0 DUP3 PUSH2 0x1D7D JUMPI PUSH4 0x4E487B71 PUSH1 0xE0 SHL PUSH0 MSTORE PUSH1 0x12 PUSH1 0x4 MSTORE PUSH1 0x24 PUSH0 REVERT JUMPDEST POP DIV SWAP1 JUMP JUMPDEST DUP2 DUP2 SUB DUP2 DUP2 GT ISZERO PUSH2 0xE7D JUMPI PUSH2 0xE7D PUSH2 0x1D38 JUMP JUMPDEST PUSH0 PUSH1 0x20 DUP3 DUP5 SUB SLT ISZERO PUSH2 0x1DA5 JUMPI PUSH0 PUSH0 REVERT JUMPDEST DUP2 MLOAD DUP1 ISZERO ISZERO DUP2 EQ PUSH2 0x1914 JUMPI PUSH0 PUSH0 REVERT JUMPDEST PUSH1 0x20 DUP1 DUP3 MSTORE PUSH1 0xF SWAP1 DUP3 ADD MSTORE PUSH15 0x1514905394D1915497D19052531151 PUSH1 0x8A SHL PUSH1 0x40 DUP3 ADD MSTORE PUSH1 0x60 ADD SWAP1 JUMP JUMPDEST DUP1 DUP3 ADD DUP1 DUP3 GT ISZERO PUSH2 0xE7D JUMPI PUSH2 0xE7D PUSH2 0x1D38 JUMP INVALID LOG2 PUSH5 0x6970667358 0x22 SLT KECCAK256 SWAP3 0xFC DUP16 DUP1 SDIV PUSH14 0xCBCDE793CCF884651135405A4A78 DUP2 0x29 DUP3 DUP5 0xB4 0xDB PUSH22 0x70465063B964736F6C634300081C0033000000000000 "},"methodIdentifiers":{"borrow(uint256)":"c5ebeaec","collateralETH(address)":"6ad3d82b","debtUSDT(address)":"99b49130","depositCollateral()":"6f758140","depositLiquidity(uint256)":"76d58e1a","frToken()":"a5310e7d","getAvailableLiquidity()":"9b745aec","getBorrowAPY()":"503d37ea","getCollateralValue(address)":"97904e42","getDebtValue(address)":"ebf5a908","getHealthFactor(address)":"fe6bcd7c","getMaxBorrow(address)":"fd1c317a","getPoolValue()":"1ba2f531","getSupplyAPY()":"9f560dd5","getTotalSupplied()":"d9de24d7","getUtilization()":"7eb71131","lastAccrualTimestamp(address)":"16851b36","liquidate(address,uint256)":"bcbaf487","oracle()":"7dc0d1d0","repay(uint256)":"371fd8e6","totalBorrowedUSDT()":"bbe413f2","totalCollateralETH()":"74175cd4","totalReservesUSDT()":"62ac48f3","totalSuppliedUSDT()":"f0a7fad8","usdt()":"2f48ab7d","withdrawCollateral(uint256)":"6112fe2e","withdrawLiquidity(uint256)":"0a861f2a"}}}}}